{
  "_format": "hh-sol-artifact-1",
  "contractName": "MailRegistry",
  "sourceName": "contracts/MailRegistry.sol",
  "abi": [
    {
      "inputs": [],
      "stateMutability": "nonpayable",
      "type": "constructor"
    },
    {
      "inputs": [
        {
          "internalType": "address",
          "name": "owner",
          "type": "address"
        }
      ],
      "name": "OwnableInvalidOwner",
      "type": "error"
    },
    {
      "inputs": [
        {
          "internalType": "address",
          "name": "account",
          "type": "address"
        }
      ],
      "name": "OwnableUnauthorizedAccount",
      "type": "error"
    },
    {
      "inputs": [],
      "name": "ReentrancyGuardReentrantCall",
      "type": "error"
    },
    {
      "anonymous": false,
      "inputs": [
        {
          "indexed": true,
          "internalType": "string",
          "name": "mailId",
          "type": "string"
        },
        {
          "indexed": false,
          "internalType": "uint256",
          "name": "deliveryTime",
          "type": "uint256"
        },
        {
          "indexed": false,
          "internalType": "uint256",
          "name": "guaranteedTime",
          "type": "uint256"
        },
        {
          "indexed": false,
          "internalType": "bool",
          "name": "onTime",
          "type": "bool"
        }
      ],
      "name": "MailDelivered",
      "type": "event"
    },
    {
      "anonymous": false,
      "inputs": [
        {
          "indexed": true,
          "internalType": "string",
          "name": "mailId",
          "type": "string"
        },
        {
          "indexed": false,
          "internalType": "string",
          "name": "trackingNumber",
          "type": "string"
        },
        {
          "indexed": true,
          "internalType": "address",
          "name": "senderAddress",
          "type": "address"
        },
        {
          "indexed": false,
          "internalType": "string",
          "name": "recipientId",
          "type": "string"
        },
        {
          "indexed": false,
          "internalType": "uint256",
          "name": "registrationTime",
          "type": "uint256"
        },
        {
          "indexed": false,
          "internalType": "uint256",
          "name": "guaranteedDeliveryTime",
          "type": "uint256"
        }
      ],
      "name": "MailRegistered",
      "type": "event"
    },
    {
      "anonymous": false,
      "inputs": [
        {
          "indexed": true,
          "internalType": "string",
          "name": "mailId",
          "type": "string"
        },
        {
          "indexed": false,
          "internalType": "enum MailRegistry.MailStatus",
          "name": "previousStatus",
          "type": "uint8"
        },
        {
          "indexed": false,
          "internalType": "enum MailRegistry.MailStatus",
          "name": "newStatus",
          "type": "uint8"
        },
        {
          "indexed": false,
          "internalType": "uint256",
          "name": "timestamp",
          "type": "uint256"
        }
      ],
      "name": "MailStatusUpdated",
      "type": "event"
    },
    {
      "anonymous": false,
      "inputs": [
        {
          "indexed": true,
          "internalType": "address",
          "name": "previousOwner",
          "type": "address"
        },
        {
          "indexed": true,
          "internalType": "address",
          "name": "newOwner",
          "type": "address"
        }
      ],
      "name": "OwnershipTransferred",
      "type": "event"
    },
    {
      "anonymous": false,
      "inputs": [
        {
          "indexed": true,
          "internalType": "string",
          "name": "mailId",
          "type": "string"
        },
        {
          "indexed": false,
          "internalType": "bytes32",
          "name": "proofHash",
          "type": "bytes32"
        },
        {
          "indexed": false,
          "internalType": "uint256",
          "name": "timestamp",
          "type": "uint256"
        }
      ],
      "name": "ProofOfTimeGenerated",
      "type": "event"
    },
    {
      "inputs": [
        {
          "internalType": "uint256",
          "name": "",
          "type": "uint256"
        }
      ],
      "name": "allMailIds",
      "outputs": [
        {
          "internalType": "string",
          "name": "",
          "type": "string"
        }
      ],
      "stateMutability": "view",
      "type": "function"
    },
    {
      "inputs": [
        {
          "internalType": "uint256",
          "name": "offset",
          "type": "uint256"
        },
        {
          "internalType": "uint256",
          "name": "limit",
          "type": "uint256"
        }
      ],
      "name": "getAllMailIds",
      "outputs": [
        {
          "internalType": "string[]",
          "name": "",
          "type": "string[]"
        }
      ],
      "stateMutability": "view",
      "type": "function"
    },
    {
      "inputs": [
        {
          "internalType": "string[]",
          "name": "mailIds",
          "type": "string[]"
        }
      ],
      "name": "getBulkStatus",
      "outputs": [
        {
          "internalType": "enum MailRegistry.MailStatus[]",
          "name": "statuses",
          "type": "uint8[]"
        },
        {
          "internalType": "bool[]",
          "name": "onTimeStatus",
          "type": "bool[]"
        },
        {
          "internalType": "bytes32[]",
          "name": "proofHashes",
          "type": "bytes32[]"
        }
      ],
      "stateMutability": "view",
      "type": "function"
    },
    {
      "inputs": [
        {
          "internalType": "string",
          "name": "trackingNumber",
          "type": "string"
        }
      ],
      "name": "getMailByTracking",
      "outputs": [
        {
          "internalType": "string",
          "name": "mailId",
          "type": "string"
        },
        {
          "internalType": "address",
          "name": "senderAddress",
          "type": "address"
        },
        {
          "internalType": "string",
          "name": "recipientId",
          "type": "string"
        },
        {
          "internalType": "enum MailRegistry.MailStatus",
          "name": "currentStatus",
          "type": "uint8"
        },
        {
          "internalType": "uint256",
          "name": "registrationTime",
          "type": "uint256"
        },
        {
          "internalType": "uint256",
          "name": "guaranteedDeliveryTime",
          "type": "uint256"
        }
      ],
      "stateMutability": "view",
      "type": "function"
    },
    {
      "inputs": [
        {
          "internalType": "string",
          "name": "mailId",
          "type": "string"
        }
      ],
      "name": "getMailDetails",
      "outputs": [
        {
          "internalType": "string",
          "name": "trackingNumber",
          "type": "string"
        },
        {
          "internalType": "address",
          "name": "senderAddress",
          "type": "address"
        },
        {
          "internalType": "string",
          "name": "recipientId",
          "type": "string"
        },
        {
          "internalType": "enum MailRegistry.MailType",
          "name": "mailType",
          "type": "uint8"
        },
        {
          "internalType": "enum MailRegistry.MailStatus",
          "name": "currentStatus",
          "type": "uint8"
        },
        {
          "internalType": "uint256",
          "name": "registrationTime",
          "type": "uint256"
        },
        {
          "internalType": "uint256",
          "name": "deliveryTime",
          "type": "uint256"
        },
        {
          "internalType": "uint256",
          "name": "guaranteedDeliveryTime",
          "type": "uint256"
        },
        {
          "internalType": "bool",
          "name": "proofOfTimeRequired",
          "type": "bool"
        },
        {
          "internalType": "bytes32",
          "name": "proofOfTimeHash",
          "type": "bytes32"
        }
      ],
      "stateMutability": "view",
      "type": "function"
    },
    {
      "inputs": [
        {
          "internalType": "string",
          "name": "mailId",
          "type": "string"
        }
      ],
      "name": "getMailMetadata",
      "outputs": [
        {
          "internalType": "string",
          "name": "weight",
          "type": "string"
        },
        {
          "internalType": "string",
          "name": "size",
          "type": "string"
        },
        {
          "internalType": "enum MailRegistry.Priority",
          "name": "priority",
          "type": "uint8"
        },
        {
          "internalType": "uint256",
          "name": "insurance",
          "type": "uint256"
        },
        {
          "internalType": "bool",
          "name": "requiresSignature",
          "type": "bool"
        }
      ],
      "stateMutability": "view",
      "type": "function"
    },
    {
      "inputs": [
        {
          "internalType": "address",
          "name": "sender",
          "type": "address"
        }
      ],
      "name": "getSenderMails",
      "outputs": [
        {
          "internalType": "string[]",
          "name": "",
          "type": "string[]"
        }
      ],
      "stateMutability": "view",
      "type": "function"
    },
    {
      "inputs": [],
      "name": "getTotalMails",
      "outputs": [
        {
          "internalType": "uint256",
          "name": "",
          "type": "uint256"
        }
      ],
      "stateMutability": "view",
      "type": "function"
    },
    {
      "inputs": [
        {
          "internalType": "string",
          "name": "mailId",
          "type": "string"
        }
      ],
      "name": "isDeliveredOnTime",
      "outputs": [
        {
          "internalType": "bool",
          "name": "",
          "type": "bool"
        }
      ],
      "stateMutability": "view",
      "type": "function"
    },
    {
      "inputs": [
        {
          "internalType": "string",
          "name": "",
          "type": "string"
        }
      ],
      "name": "mailExists",
      "outputs": [
        {
          "internalType": "bool",
          "name": "",
          "type": "bool"
        }
      ],
      "stateMutability": "view",
      "type": "function"
    },
    {
      "inputs": [
        {
          "internalType": "string",
          "name": "",
          "type": "string"
        }
      ],
      "name": "mailItems",
      "outputs": [
        {
          "internalType": "string",
          "name": "mailId",
          "type": "string"
        },
        {
          "internalType": "string",
          "name": "trackingNumber",
          "type": "string"
        },
        {
          "internalType": "address",
          "name": "senderAddress",
          "type": "address"
        },
        {
          "internalType": "string",
          "name": "recipientId",
          "type": "string"
        },
        {
          "internalType": "enum MailRegistry.MailType",
          "name": "mailType",
          "type": "uint8"
        },
        {
          "internalType": "uint256",
          "name": "registrationTime",
          "type": "uint256"
        },
        {
          "internalType": "uint256",
          "name": "guaranteedDeliveryTime",
          "type": "uint256"
        },
        {
          "internalType": "bool",
          "name": "proofOfTimeRequired",
          "type": "bool"
        },
        {
          "components": [
            {
              "internalType": "string",
              "name": "weight",
              "type": "string"
            },
            {
              "internalType": "string",
              "name": "size",
              "type": "string"
            },
            {
              "internalType": "enum MailRegistry.Priority",
              "name": "priority",
              "type": "uint8"
            },
            {
              "internalType": "uint256",
              "name": "insurance",
              "type": "uint256"
            },
            {
              "internalType": "bool",
              "name": "requiresSignature",
              "type": "bool"
            }
          ],
          "internalType": "struct MailRegistry.MailMetadata",
          "name": "metadata",
          "type": "tuple"
        },
        {
          "internalType": "enum MailRegistry.MailStatus",
          "name": "currentStatus",
          "type": "uint8"
        },
        {
          "internalType": "uint256",
          "name": "deliveryTime",
          "type": "uint256"
        },
        {
          "internalType": "bool",
          "name": "isActive",
          "type": "bool"
        },
        {
          "internalType": "bytes32",
          "name": "proofOfTimeHash",
          "type": "bytes32"
        }
      ],
      "stateMutability": "view",
      "type": "function"
    },
    {
      "inputs": [],
      "name": "owner",
      "outputs": [
        {
          "internalType": "address",
          "name": "",
          "type": "address"
        }
      ],
      "stateMutability": "view",
      "type": "function"
    },
    {
      "inputs": [
        {
          "internalType": "string",
          "name": "mailId",
          "type": "string"
        },
        {
          "internalType": "string",
          "name": "trackingNumber",
          "type": "string"
        },
        {
          "internalType": "address",
          "name": "senderAddress",
          "type": "address"
        },
        {
          "internalType": "string",
          "name": "recipientId",
          "type": "string"
        },
        {
          "internalType": "enum MailRegistry.MailType",
          "name": "mailType",
          "type": "uint8"
        },
        {
          "internalType": "uint256",
          "name": "guaranteedDeliveryTime",
          "type": "uint256"
        },
        {
          "internalType": "bool",
          "name": "proofOfTimeRequired",
          "type": "bool"
        },
        {
          "components": [
            {
              "internalType": "string",
              "name": "weight",
              "type": "string"
            },
            {
              "internalType": "string",
              "name": "size",
              "type": "string"
            },
            {
              "internalType": "enum MailRegistry.Priority",
              "name": "priority",
              "type": "uint8"
            },
            {
              "internalType": "uint256",
              "name": "insurance",
              "type": "uint256"
            },
            {
              "internalType": "bool",
              "name": "requiresSignature",
              "type": "bool"
            }
          ],
          "internalType": "struct MailRegistry.MailMetadata",
          "name": "metadata",
          "type": "tuple"
        }
      ],
      "name": "registerMail",
      "outputs": [
        {
          "internalType": "bytes32",
          "name": "",
          "type": "bytes32"
        }
      ],
      "stateMutability": "nonpayable",
      "type": "function"
    },
    {
      "inputs": [],
      "name": "renounceOwnership",
      "outputs": [],
      "stateMutability": "nonpayable",
      "type": "function"
    },
    {
      "inputs": [
        {
          "internalType": "address",
          "name": "",
          "type": "address"
        },
        {
          "internalType": "uint256",
          "name": "",
          "type": "uint256"
        }
      ],
      "name": "senderMails",
      "outputs": [
        {
          "internalType": "string",
          "name": "",
          "type": "string"
        }
      ],
      "stateMutability": "view",
      "type": "function"
    },
    {
      "inputs": [
        {
          "internalType": "string",
          "name": "mailId",
          "type": "string"
        },
        {
          "internalType": "uint256",
          "name": "newGuaranteedTime",
          "type": "uint256"
        }
      ],
      "name": "setGuaranteedDeliveryTime",
      "outputs": [],
      "stateMutability": "nonpayable",
      "type": "function"
    },
    {
      "inputs": [],
      "name": "totalMails",
      "outputs": [
        {
          "internalType": "uint256",
          "name": "",
          "type": "uint256"
        }
      ],
      "stateMutability": "view",
      "type": "function"
    },
    {
      "inputs": [
        {
          "internalType": "string",
          "name": "",
          "type": "string"
        }
      ],
      "name": "trackingToMailId",
      "outputs": [
        {
          "internalType": "string",
          "name": "",
          "type": "string"
        }
      ],
      "stateMutability": "view",
      "type": "function"
    },
    {
      "inputs": [
        {
          "internalType": "address",
          "name": "newOwner",
          "type": "address"
        }
      ],
      "name": "transferOwnership",
      "outputs": [],
      "stateMutability": "nonpayable",
      "type": "function"
    },
    {
      "inputs": [
        {
          "internalType": "string",
          "name": "mailId",
          "type": "string"
        },
        {
          "internalType": "enum MailRegistry.MailStatus",
          "name": "newStatus",
          "type": "uint8"
        }
      ],
      "name": "updateMailStatus",
      "outputs": [],
      "stateMutability": "nonpayable",
      "type": "function"
    }
  ],
  "bytecode": "0x6080806040523461007e5733156100685760008054336001600160a01b03198216811783556040519290916001600160a01b0316907f8be0079c531659141344cd1fd0a4f28419497f9722a3daafe3b4186f6b6457e09080a3600180556121c090816100848239f35b631e4fbdf760e01b815260006004820152602490fd5b600080fdfe608080604052600436101561001357600080fd5b60003560e01c9081630f0828c214611aef575080631b7abe89146109075780634546bedb14611ab45780636431bdbd146119415780636feb57f2146111f8578063715018a61461119f5780638da5cb5b146111765780638e9abd3514610f7f578063a6be6e8414610f31578063a7b0b4fd14610d5f578063ac54af4a14610cd6578063b4faa85f14610aff578063b9f7096314610952578063bc902a3214610925578063c15b1a1e14610907578063ce3c452f14610817578063d6213252146107ac578063ddedbb661461056d578063ea19c706146101895763f2fde38b146100fb57600080fd5b3461018457602036600319011261018457610114611e6c565b61011c611f83565b6001600160a01b0390811690811561016b57600054826001600160601b0360a01b821617600055167f8be0079c531659141344cd1fd0a4f28419497f9722a3daafe3b4186f6b6457e0600080a3005b604051631e4fbdf760e01b815260006004820152602490fd5b600080fd5b346101845760208060031936011261018457600435906001600160401b038083116101845736602384011215610184578260040135926101c884611f6c565b916101d66040519384611d04565b848352838301906024809660051b8401019236841161018457868101925b84841061054757855186898961020984611f6c565b926102176040519485611d04565b84845261022385611f6c565b92828501601f1980950136823761023987611f6c565b966102476040519889611d04565b80885261025381611f6c565b9386868a01950136863761026682611f6c565b936102746040519586611d04565b82855261028083611f6c565b858801980136893760005b83811061035657505050506040519687966060880190606089525180915260808801929060005b81811061032c575050508682038786015251808252908401929060005b81811061031357505050848203604086015251808252908201929160005b8281106102fc57505050500390f35b8351855286955093810193928101926001016102ed565b82511515855288975093850193918501916001016102cf565b91949597985091928680826103446001948951611e8f565b019501910191899897959493926102b2565b61036781849c9697989a9b9c612169565b518861037c6040519283815193849201611c23565b810160058152818a60ff9384930301902054166103aa575b5061039e906120ee565b9998979594939961028b565b6103b48285612169565b5190896103ca6040519384815193849201611c23565b8201918a816002948581520301902090604051926103e784611ccd565b6103f083611db5565b84526103fe60018401611db5565b848d01528201546001600160a01b0316604084015261041f60038301611db5565b60608401526104378160048401541660808501611faf565b600582015460a084015260068201549160c0840192835281600782015416151560e085015261046860088201611e9c565b610100850152610180601083600d840154169261048a61012088019485611fbb565b600e810154946101408801958652600f8201541615156101608801520154940193845280516006811015610532578f906104c7876104cc93612169565b611fbb565b51600681101561051d5761039e94939291906004036105085751905110156104f48389612169565b525b51610501828a612169565b5290610394565b50514211156105178389612169565b526104f6565b85634e487b7160e01b60005260216004526000fd5b86634e487b7160e01b60005260216004526000fd5b833583811161018457879161056283928b3691870101611d25565b8152019301926101f4565b3461018457602080600319360112610184576004356001600160401b038111610184576105b8826105a56105c7933690600401611d25565b8160405193828580945193849201611c23565b81016003815203019020611db5565b60405160ff8251918481818601946105e0818388611c23565b81016005815203019020541615610767578261060791604051809381928651928391611c23565b8101600281520301902060405161061d81611ccd565b61062682611db5565b815261063460018301611db5565b8185015260028201546001600160a01b03908116604083019081529290919061065f60038201611db5565b926060830193845261067b60ff60048401541660808501611faf565b60058201549460a0840195865260068301549360c0810194855260ff600785015416151560e08201526106b060088501611e9c565b610100820152610180601060ff600d87015416956106d361012085019788611fbb565b600e81015461014085015260ff600f82015416151561016085015201549101525116925190519360068510156107515761072796610743926107389251945195604051998a9960c08b5260c08b0190611c46565b928901528782036040890152611c46565b936060860190611e8f565b608084015260a08301520390f35b634e487b7160e01b600052602160045260246000fd5b60405162461bcd60e51b815260048101849052601960248201527f547261636b696e67206e756d626572206e6f7420666f756e64000000000000006044820152606490fd5b34610184576040366003190112610184576107c5611e6c565b6001600160a01b03166000908152600460205260409020805460243590811015610184576107f96107ff9161081393611f54565b90611e5b565b604051918291602083526020830190611c46565b0390f35b3461018457602080600319360112610184576004356001600160401b038111610184576008610890836108516108a0943690600401611d25565b6040519061087f60ff82519385818186019661086e81838a611c23565b81016005815203019020541661211d565b604051938492839251928391611c23565b8101600281520301902001611e9c565b805190828101516040820151916003831015610751576108f96108ee6108e1966080606085015194015115159460405198899860a08a5260a08a0190611c46565b9188830390890152611c46565b936040860190611efa565b606084015260808301520390f35b34610184576000366003190112610184576020600754604051908152f35b3461018457602036600319011261018457600435600654811015610184576107ff6107f961081392611f07565b34610184576020366003190112610184576004356001600160401b03811161018457610982903690600401611d25565b604051818180935160208193019161099992611c23565b8101600281520360200190206109ae81611db5565b6109ba60018301611db5565b60028301549092906001600160a01b03166109d760038301611db5565b91600481015460ff16926005820154600683015494600784015460ff1660088501610a0190611e9c565b96600d86015460ff1693600e87015495600f88015460ff169760100154986040519c8d9c8d6101a09081815201610a3791611c46565b8d810360208f0152610a4891611c46565b9060408d01528b810360608d0152610a5f91611c46565b9360808b01610a6d91611e82565b60a08a015260c0890152151560e0880152868103610100880152855160a0825260a08201610a9a91611c46565b6020870151908281036020840152610ab191611c46565b95604081015160408301610ac491611efa565b6060810151606083015260800151151590608001526101208601610ae791611e8f565b61014085015215156101608401526101808301520390f35b34610184576020366003190112610184576004356001600160401b038111610184576020610851610b34923690600401611d25565b8101600281520301902060405190610b4b82611ccd565b610b5481611db5565b82526010610b6460018301611db5565b6020840190815260028301546001600160a01b0316604085015291610b8b60038201611db5565b6060850152610ba460ff60048301541660808601611faf565b600581015460a0850152600681015460c085015260ff600782015416151560e0850152610bd360088201611e9c565b610100850152610bee60ff600d830154166101208601611fbb565b600e810154610140850152600f81015460ff16151561016085015201546101808301525160408201516060830151608084015192939092916001600160a01b03169060048310156107515761012081015193600685101561075157602095610c9295610cb760a085015191610cad610ca26101408801519560c08901519761018060e08b015115159a01519a6040519e8f9e8f946101408652610140860190611c46565b9301528c820360408e0152611c46565b9860608b0190611e82565b6080890190611e8f565b60a087015260c086015260e08501526101008401526101208301520390f35b3461018457602080600319360112610184576001600160a01b03610cf8611e6c565b166000526004815260406000208054610d1081611f6c565b91610d1e6040519384611d04565b8183526000908152838120938084015b838310610d4357604051806108138782611c6b565b6001828192610d5189611db5565b815201960192019194610d2e565b34610184576040366003190112610184576004356001600160401b03811161018457610d8f903690600401611d25565b6024359060405190805190610db360ff60209485818186019661086e81838a611c23565b60405160028251610dc5818487611c23565b8201818152829003850190912001546001600160a01b03163303610ee05742841115610e9b5760ff600d60405185818551610e0181838a611c23565b81016002815203019020015416600681101561075157600414610e485791610e3791600693604051938492839251928391611c23565b810160028152030190200155600080f35b60405162461bcd60e51b815260048101849052602560248201527f43616e6e6f74206368616e67652074696d6520666f722064656c697665726564604482015264081b585a5b60da1b6064820152608490fd5b60405162461bcd60e51b815260048101849052601a60248201527f54696d65206d75737420626520696e20746865206675747572650000000000006044820152606490fd5b60405162461bcd60e51b815260048101849052602360248201527f4f6e6c792073656e6465722063616e20706572666f726d20746869732061637460448201526234b7b760e91b6064820152608490fd5b34610184576020366003190112610184576004356001600160401b0381116101845760ff610f6960206105a581943690600401611d25565b8101600581520301902054166040519015158152f35b34610184576040366003190112610184576004356001600160401b03811161018457610faf903690600401611d25565b6024359060068210156101845760ff91610ff16040518351610fe060209683888095818a019561086e818389611c23565b604051809381928751928391611c23565b8101600281520301902091600d83019260ff845416936006851015610751578484146111315760ff600f83015416156110ec57926110707ff1f12ed7a0d8ae1a8bdd4c0e333200d44d81edf41d2b48c4abbef47cc0b9961c95936110869361105b846060986120d6565b60048414806110e0575b61108f575b506120fd565b9561107e6040518095611e8f565b830190611e8f565b426040820152a2005b42600e820155600601547fda7a61b8cb201b6dd70eadeed7c1d9043a686a7ea2f9ed29a2354b90de2421ef876110c4846120fd565b9260405190428252808d8301524211156040820152a28861106a565b50600e81015415611065565b60405162461bcd60e51b815260048101879052601760248201527f4d61696c206974656d206973206e6f74206163746976650000000000000000006044820152606490fd5b60405162461bcd60e51b815260048101879052601860248201527f537461747573206d75737420626520646966666572656e7400000000000000006044820152606490fd5b34610184576000366003190112610184576000546040516001600160a01b039091168152602090f35b34610184576000366003190112610184576111b8611f83565b600080546001600160a01b0319811682556001600160a01b03167f8be0079c531659141344cd1fd0a4f28419497f9722a3daafe3b4186f6b6457e08280a3005b3461018457610100366003190112610184576004356001600160401b03811161018457611229903690600401611d25565b6024356001600160401b03811161018457611248903690600401611d25565b906044356001600160a01b0381169003610184576064356001600160401b0381116101845761127b903690600401611d25565b91600460843510156101845760c435918215158303610184576001600160401b0360e435116101845760a060e4353603600319011261018457604051926112c184611ce9565b6001600160401b0360e4356004013511610184576112eb36600460e43581013560e4350101611d25565b84526001600160401b03602460e435013511610184576113163660e435602481013501600401611d25565b60208501526003604460e435013510156101845760e435604481013560408601526064810135606086015260840135801515810361018457608085015260026001541461192f57600260015560ff60405160208185516113798183858a01611c23565b8101600581520301902054166118f1578251156118ac576044356001600160a01b03161561186e57845115611829574260a43511156117cd5760405161141660748285516113ce816020840160208a01611c23565b8751906113e48260208386010160208c01611c23565b8201016001600160601b031960443560601b166020820152426034820152436054820152036054810184520182611d04565b60208151910120936040519161142b83611ccd565b838352602083018590526044356001600160a01b031660408401526060830187905261145c60843560808501611faf565b4260a084015260a43560c0840152151560e08301526101008201526000610120820152600061014082015260016101608201528361018082015260405160208184516114ab8183858901611c23565b81016002815203019020906114c1815183611fc7565b6114d2602082015160018401611fc7565b6002820160018060a01b036040830151166001600160601b0360a01b825416179055611505606082015160038401611fc7565b608081015160048110156107515760048301805460ff92831660ff199182161790915560a0830151600585015560c0830151600685015560e08301516007850180549115159093169116179055610100810151611566815160088501611fc7565b611577602082015160098501611fc7565b6040810151600a8401916003821015610751576115c09260809260ff801983541691161790556060810151600b86015501511515600c84019060ff801983541691151516179055565b6101208101516006811015610751576010916115e261018092600d86016120d6565b610140810151600e85015561160d6101608201511515600f86019060ff801983541691151516179055565b015191015561163a81604051602081865161162b8183858b01611c23565b81016003815203019020611fc7565b6044356001600160a01b031660009081526004602052604090208054680100000000000000009190828110156117b75761167991600182018155611f54565b6117a1578261168791611fc7565b604051602081845161169c8183858901611c23565b81016005815203019020600160ff19825416179055600654908110156117b7578060016116cc9201600655611f07565b9290926117a1576020946116e38361176795611fc7565b6116ee6007546120ee565b6007557f5b2e7ea66af1b2e388c4c6903bdd2405c6c5d64f85209d61b2b2d50b493423da61174161171e856120fd565b9261173460405195608087526080870190611c46565b908582038a870152611c46565b42604085015260a43560608501526044356001600160a01b0316939081900390a36120fd565b7f12dac6448cdb514beaf81f7be43e87ab16e5495bb3c34f5bb8d0d0d9c76a0002604080518481524286820152a260018055604051908152f35b634e487b7160e01b600052600060045260246000fd5b634e487b7160e01b600052604160045260246000fd5b60405162461bcd60e51b815260206004820152602e60248201527f47756172616e746565642064656c69766572792074696d65206d75737420626560448201526d20696e207468652066757475726560901b6064820152608490fd5b60405162461bcd60e51b815260206004820152601c60248201527f526563697069656e742049442063616e6e6f7420626520656d707479000000006044820152606490fd5b60405162461bcd60e51b8152602060048201526016602482015275496e76616c69642073656e646572206164647265737360501b6044820152606490fd5b60405162461bcd60e51b815260206004820152601f60248201527f547261636b696e67206e756d6265722063616e6e6f7420626520656d707479006044820152606490fd5b60405162461bcd60e51b81526020600482015260166024820152754d61696c20494420616c72656164792065786973747360501b6044820152606490fd5b604051633ee5aeb560e01b8152600490fd5b3461018457602080600319360112610184576004356001600160401b0381116101845781610851611976923690600401611d25565b810160028152030190206040519061198d82611ccd565b61199681611db5565b82526119a460018201611db5565b8284015260028101546001600160a01b031660408301526119c760038201611db5565b60608301526119e060ff60048301541660808401611faf565b600581015460a083015260068101549160c0810192835260ff600783015416151560e0820152611a1260088301611e9c565b61010082015260ff600d8301541690611a3061012082019283611fbb565b6101806010600e85015494610140840195865260ff600f820154161515610160850152015491015251600681101561075157600403611a76575190511015604051908152f35b60405162461bcd60e51b815260048101849052601660248201527513585a5b081b9bdd0819195b1a5d995c9959081e595d60521b6044820152606490fd5b34610184576020366003190112610184576004356001600160401b038111610184576107ff6105b860206105a5610813943690600401611d25565b34610184576040366003190112610184576006546004359181831015611bea5750602435820190818311611bd457808211611bcc575b50611b30828261217d565b91611b3a83611f6c565b92611b486040519485611d04565b808452611b57601f1991611f6c565b0160005b818110611bbb575050805b828110611b7b57604051806108138682611c6b565b80611bb0611b8b611bb693611f07565b50611b9f611b99868561217d565b91611db5565b611ba98289612169565b5286612169565b506120ee565b611b66565b806060602080938801015201611b5b565b905082611b25565b634e487b7160e01b600052601160045260246000fd5b62461bcd60e51b81526020600482015260146024820152734f6666736574206f7574206f6620626f756e647360601b6044820152606490fd5b60005b838110611c365750506000910152565b8181015183820152602001611c26565b90602091611c5f81518092818552858086019101611c23565b601f01601f1916010190565b602080820190808352835180925260408301928160408460051b8301019501936000915b848310611c9f5750505050505090565b9091929394958480611cbd600193603f198682030187528a51611c46565b9801930193019194939290611c8f565b6101a081019081106001600160401b038211176117b757604052565b60a081019081106001600160401b038211176117b757604052565b90601f801991011681019081106001600160401b038211176117b757604052565b81601f82011215610184578035906001600160401b0382116117b75760405192611d59601f8401601f191660200185611d04565b8284526020838301011161018457816000926020809301838601378301015290565b90600182811c92168015611dab575b6020831014611d9557565b634e487b7160e01b600052602260045260246000fd5b91607f1691611d8a565b9060405191826000825492611dc984611d7b565b908184526001948581169081600014611e385750600114611df5575b5050611df392500383611d04565b565b9093915060005260209081600020936000915b818310611e20575050611df393508201013880611de5565b85548884018501529485019487945091830191611e08565b915050611df394506020925060ff191682840152151560051b8201013880611de5565b906117a157611e6990611db5565b90565b600435906001600160a01b038216820361018457565b9060048210156107515752565b9060068210156107515752565b90604051611ea981611ce9565b8092611eb481611db5565b8252611ec260018201611db5565b602083015260ff60028201541690600382101561075157600460ff916080936040860152600381015460608601520154161515910152565b9060038210156107515752565b600654811015611f3e5760066000527ff652222313e28459528d920b65115c16c04f3efc82aaedc97be59f3f377c0d3f0190600090565b634e487b7160e01b600052603260045260246000fd5b8054821015611f3e5760005260206000200190600090565b6001600160401b0381116117b75760051b60200190565b6000546001600160a01b03163303611f9757565b60405163118cdaa760e01b8152336004820152602490fd5b60048210156107515752565b60068210156107515752565b91909182516001600160401b0381116117b757611fe48254611d7b565b601f811161208e575b50602080601f831160011461202a57508192939460009261201f575b50508160011b916000199060031b1c1916179055565b015190503880612009565b90601f198316958460005282600020926000905b8882106120765750508360019596971061205d575b505050811b019055565b015160001960f88460031b161c19169055388080612053565b8060018596829496860151815501950193019061203e565b600083815260208120601f840160051c810192602085106120cc575b601f0160051c01915b8281106120c1575050611fed565b8181556001016120b3565b90925082906120aa565b9060068110156107515760ff80198354169116179055565b6000198114611bd45760010190565b61211590602060405192828480945193849201611c23565b810103902090565b1561212457565b60405162461bcd60e51b815260206004820152601860248201527f4d61696c206974656d20646f6573206e6f7420657869737400000000000000006044820152606490fd5b8051821015611f3e5760209160051b010190565b91908203918211611bd45756fea2646970667358221220d007c565b2002f68fa8b2c487bdf098b98007192e7e78ae0012b6c71ea45db8164736f6c63430008140033",
  "linkReferences": {},
  "deployedLinkReferences": {}
}