{
  "_format": "hh-sol-artifact-1",
  "contractName": "UserRegistry",
  "sourceName": "contracts/UserRegistry.sol",
  "abi": [
    {
      "inputs": [],
      "stateMutability": "nonpayable",
      "type": "constructor"
    },
    {
      "inputs": [
        {
          "internalType": "address",
          "name": "owner",
          "type": "address"
        }
      ],
      "name": "OwnableInvalidOwner",
      "type": "error"
    },
    {
      "inputs": [
        {
          "internalType": "address",
          "name": "account",
          "type": "address"
        }
      ],
      "name": "OwnableUnauthorizedAccount",
      "type": "error"
    },
    {
      "inputs": [],
      "name": "ReentrancyGuardReentrantCall",
      "type": "error"
    },
    {
      "anonymous": false,
      "inputs": [
        {
          "indexed": true,
          "internalType": "address",
          "name": "previousOwner",
          "type": "address"
        },
        {
          "indexed": true,
          "internalType": "address",
          "name": "newOwner",
          "type": "address"
        }
      ],
      "name": "OwnershipTransferred",
      "type": "event"
    },
    {
      "anonymous": false,
      "inputs": [
        {
          "indexed": true,
          "internalType": "address",
          "name": "userAddress",
          "type": "address"
        },
        {
          "indexed": false,
          "internalType": "uint256",
          "name": "timestamp",
          "type": "uint256"
        }
      ],
      "name": "PasswordChanged",
      "type": "event"
    },
    {
      "anonymous": false,
      "inputs": [
        {
          "indexed": true,
          "internalType": "address",
          "name": "userAddress",
          "type": "address"
        },
        {
          "indexed": false,
          "internalType": "uint256",
          "name": "timestamp",
          "type": "uint256"
        }
      ],
      "name": "UserDeactivated",
      "type": "event"
    },
    {
      "anonymous": false,
      "inputs": [
        {
          "indexed": true,
          "internalType": "address",
          "name": "userAddress",
          "type": "address"
        },
        {
          "indexed": false,
          "internalType": "uint256",
          "name": "timestamp",
          "type": "uint256"
        }
      ],
      "name": "UserLoggedIn",
      "type": "event"
    },
    {
      "anonymous": false,
      "inputs": [
        {
          "indexed": true,
          "internalType": "address",
          "name": "userAddress",
          "type": "address"
        },
        {
          "indexed": false,
          "internalType": "uint256",
          "name": "timestamp",
          "type": "uint256"
        }
      ],
      "name": "UserLoggedOut",
      "type": "event"
    },
    {
      "anonymous": false,
      "inputs": [
        {
          "indexed": true,
          "internalType": "address",
          "name": "userAddress",
          "type": "address"
        },
        {
          "indexed": false,
          "internalType": "string",
          "name": "email",
          "type": "string"
        },
        {
          "indexed": false,
          "internalType": "string",
          "name": "name",
          "type": "string"
        },
        {
          "indexed": false,
          "internalType": "uint256",
          "name": "timestamp",
          "type": "uint256"
        }
      ],
      "name": "UserRegistered",
      "type": "event"
    },
    {
      "inputs": [
        {
          "internalType": "address",
          "name": "",
          "type": "address"
        }
      ],
      "name": "activeUsers",
      "outputs": [
        {
          "internalType": "bool",
          "name": "",
          "type": "bool"
        }
      ],
      "stateMutability": "view",
      "type": "function"
    },
    {
      "inputs": [
        {
          "internalType": "bytes32",
          "name": "oldPasswordHash",
          "type": "bytes32"
        },
        {
          "internalType": "bytes32",
          "name": "newPasswordHash",
          "type": "bytes32"
        }
      ],
      "name": "changePassword",
      "outputs": [],
      "stateMutability": "nonpayable",
      "type": "function"
    },
    {
      "inputs": [
        {
          "internalType": "address",
          "name": "userAddress",
          "type": "address"
        }
      ],
      "name": "deactivateUser",
      "outputs": [],
      "stateMutability": "nonpayable",
      "type": "function"
    },
    {
      "inputs": [
        {
          "internalType": "string",
          "name": "",
          "type": "string"
        }
      ],
      "name": "emailToAddress",
      "outputs": [
        {
          "internalType": "address",
          "name": "",
          "type": "address"
        }
      ],
      "stateMutability": "view",
      "type": "function"
    },
    {
      "inputs": [
        {
          "internalType": "string",
          "name": "email",
          "type": "string"
        }
      ],
      "name": "getUserByEmail",
      "outputs": [
        {
          "internalType": "address",
          "name": "",
          "type": "address"
        }
      ],
      "stateMutability": "view",
      "type": "function"
    },
    {
      "inputs": [
        {
          "internalType": "address",
          "name": "userAddress",
          "type": "address"
        }
      ],
      "name": "getUserProfile",
      "outputs": [
        {
          "internalType": "string",
          "name": "name",
          "type": "string"
        },
        {
          "internalType": "string",
          "name": "email",
          "type": "string"
        },
        {
          "internalType": "bool",
          "name": "isActive",
          "type": "bool"
        },
        {
          "internalType": "uint256",
          "name": "registrationTime",
          "type": "uint256"
        },
        {
          "internalType": "uint256",
          "name": "lastLoginTime",
          "type": "uint256"
        }
      ],
      "stateMutability": "view",
      "type": "function"
    },
    {
      "inputs": [
        {
          "internalType": "address",
          "name": "userAddress",
          "type": "address"
        }
      ],
      "name": "isUserActive",
      "outputs": [
        {
          "internalType": "bool",
          "name": "",
          "type": "bool"
        }
      ],
      "stateMutability": "view",
      "type": "function"
    },
    {
      "inputs": [
        {
          "internalType": "bytes32",
          "name": "passwordHash",
          "type": "bytes32"
        }
      ],
      "name": "login",
      "outputs": [],
      "stateMutability": "nonpayable",
      "type": "function"
    },
    {
      "inputs": [],
      "name": "logout",
      "outputs": [],
      "stateMutability": "nonpayable",
      "type": "function"
    },
    {
      "inputs": [],
      "name": "owner",
      "outputs": [
        {
          "internalType": "address",
          "name": "",
          "type": "address"
        }
      ],
      "stateMutability": "view",
      "type": "function"
    },
    {
      "inputs": [
        {
          "internalType": "string",
          "name": "name",
          "type": "string"
        },
        {
          "internalType": "string",
          "name": "email",
          "type": "string"
        },
        {
          "internalType": "bytes32",
          "name": "passwordHash",
          "type": "bytes32"
        }
      ],
      "name": "registerUser",
      "outputs": [],
      "stateMutability": "nonpayable",
      "type": "function"
    },
    {
      "inputs": [],
      "name": "renounceOwnership",
      "outputs": [],
      "stateMutability": "nonpayable",
      "type": "function"
    },
    {
      "inputs": [
        {
          "internalType": "address",
          "name": "newOwner",
          "type": "address"
        }
      ],
      "name": "transferOwnership",
      "outputs": [],
      "stateMutability": "nonpayable",
      "type": "function"
    },
    {
      "inputs": [
        {
          "internalType": "string",
          "name": "newName",
          "type": "string"
        }
      ],
      "name": "updateProfile",
      "outputs": [],
      "stateMutability": "nonpayable",
      "type": "function"
    },
    {
      "inputs": [
        {
          "internalType": "address",
          "name": "",
          "type": "address"
        }
      ],
      "name": "users",
      "outputs": [
        {
          "internalType": "string",
          "name": "name",
          "type": "string"
        },
        {
          "internalType": "string",
          "name": "email",
          "type": "string"
        },
        {
          "internalType": "bytes32",
          "name": "passwordHash",
          "type": "bytes32"
        },
        {
          "internalType": "bool",
          "name": "isActive",
          "type": "bool"
        },
        {
          "internalType": "uint256",
          "name": "registrationTime",
          "type": "uint256"
        },
        {
          "internalType": "uint256",
          "name": "lastLoginTime",
          "type": "uint256"
        }
      ],
      "stateMutability": "view",
      "type": "function"
    }
  ],
  "bytecode": "0x6080806040523461007e5733156100685760008054336001600160a01b03198216811783556040519290916001600160a01b0316907f8be0079c531659141344cd1fd0a4f28419497f9722a3daafe3b4186f6b6457e09080a36001805561114b90816100848239f35b631e4fbdf760e01b815260006004820152602490fd5b600080fdfe6080604052600436101561001257600080fd5b60003560e01c80629299e314610d0e57806318046ae1146101985780631a47767b14610c3b5780631f3c99c314610bdf578063292785fc14610a6c57806368f6d82a14610505578063715018a6146104ac578063879281c4146103e35780638da5cb5b146103ba578063987ee156146102ec5780639ee20b15146102a6578063a87430ba14610201578063ea78dcbf14610198578063eb0eb8ab146101555763f2fde38b146100c057600080fd5b34610150576020366003190112610150576004356001600160a01b0381811691829003610150576100ef611037565b811561013757600054826bffffffffffffffffffffffff60a01b821617600055167f8be0079c531659141344cd1fd0a4f28419497f9722a3daafe3b4186f6b6457e0600080a3005b604051631e4fbdf760e01b815260006004820152602490fd5b600080fd5b34610150576020366003190112610150576004356001600160a01b03811690819003610150576000526004602052602060ff604060002054166040519015158152f35b346101505760203660031901126101505760043567ffffffffffffffff8111610150576101cb6020913690600401610eb8565b816101df6040519283815193849201610f0f565b600390820190815281900382019020546040516001600160a01b039091168152f35b34610150576020366003190112610150576004356001600160a01b0381169081900361015057600052600260205261027d604060002061024081610f91565b9061024d60018201610f91565b60028201549160ff60038201541661028b600560048401549301549360405197889760c0895260c0890190610f32565b908782036020890152610f32565b93604086015215156060850152608084015260a08301520390f35b34610150576020366003190112610150576004356001600160a01b03811690819003610150576000526002602052602060ff600360406000200154166040519015158152f35b34610150576020366003190112610150576004356001600160a01b0381169081900361015057600052600260205261039860406000206040519061032f82610e7a565b61033881610f91565b825261034660018201610f91565b918260208201526002820154604082015260ff6003830154161515918260608301526103a660056004830154928360808601520154928360a0820152519460405196879660a0885260a0880190610f32565b908682036020880152610f32565b926040850152606084015260808301520390f35b34610150576000366003190112610150576000546040516001600160a01b039091168152602090f35b346101505760208060031936011261015057336000526002815261041160ff600360406000200154166110c9565b6104196110a6565b336000526002815260043560026040600020015403610475573360005260028152426005604060002001557fd48e107b75fb4263f47c6775f9695146041b81f4e0eac8b4d6075fd5756cba94604051914283523392a260018055005b6064906040519062461bcd60e51b82526004820152601060248201526f125b9d985b1a59081c185cdcdddbdc9960821b6044820152fd5b34610150576000366003190112610150576104c5611037565b600080546001600160a01b0319811682556001600160a01b03167f8be0079c531659141344cd1fd0a4f28419497f9722a3daafe3b4186f6b6457e08280a3005b346101505760603660031901126101505760043567ffffffffffffffff811161015057610536903690600401610eb8565b60243567ffffffffffffffff811161015057610556903690600401610eb8565b90604435604051835161056d818360208801610f0f565b60039082019081528190036020019020546001600160a01b0316610a27576105936110a6565b61059f82511515611063565b8251156109ea5780156109a55733600052600260205260ff6003604060002001541661096057604051906105d282610e7a565b828252836020830152604082015260016060820152426080820152600060a08201523360005260026020526040600020815180519067ffffffffffffffff82116108835781906106228454610f57565b601f8111610910575b50602090601f83116001146108a457600092610899575b50508160011b916000199060031b1c19161781555b602082015180519067ffffffffffffffff82116108835761067b6001840154610f57565b601f811161083c575b50602090601f83116001146107a55791807fb43e07573ffd613ee4cb14f22ebd42b902fb524682771d8e82932bd48bcda247969492610787969460009261079a575b50508160011b916000199060031b1c19161760018201555b60408201516002820155600560a06003830193606081015115159460ff199560ff878354169116179055608081015160048501550151910155604051602081875161072c8183858c01610f0f565b81016003815203019020336bffffffffffffffffffffffff60a01b825416179055336000526004602052600160406000209182541617905561077960405194606086526060860190610f32565b908482036020860152610f32565b914260408201528033930390a260018055005b0151905088806106c6565b906001840160005260206000209160005b601f19851681106108245750927fb43e07573ffd613ee4cb14f22ebd42b902fb524682771d8e82932bd48bcda247969492600192610787979583601f1981161061080b575b505050811b0160018201556106de565b015160001960f88460031b161c191690558880806107fb565b919260206001819286850151815501940192016107b6565b600184016000526020600020601f840160051c81016020851061087c575b601f830160051c82018110610870575050610684565b6000815560010161085a565b508061085a565b634e487b7160e01b600052604160045260246000fd5b015190508680610642565b9250836000526020600020906000935b601f19841685106108f5576001945083601f198116106108dc575b505050811b018155610657565b015160001960f88460031b161c191690558680806108cf565b818101518355602094850194600190930192909101906108b4565b909150836000526020600020601f840160051c810160208510610959575b90849392915b601f830160051c8201811061094a57505061062b565b60008155859450600101610934565b508061092e565b60405162461bcd60e51b815260206004820152601760248201527f5573657220616c726561647920726567697374657265640000000000000000006044820152606490fd5b60405162461bcd60e51b815260206004820152601d60248201527f50617373776f726420686173682063616e6e6f7420626520656d7074790000006044820152606490fd5b60405162461bcd60e51b8152602060048201526015602482015274456d61696c2063616e6e6f7420626520656d70747960581b6044820152606490fd5b60405162461bcd60e51b815260206004820152601860248201527f456d61696c20616c7265616479207265676973746572656400000000000000006044820152606490fd5b34610150576040366003190112610150576004356024353360005260209160028352610aa260ff600360406000200154166110c9565b610aaa6110a6565b33600052600283528060026040600020015403610ba3578115610b54578114610b0f5733600052600282526002604060002001557f3968c31efa355362613f9903354c5801e02cd55028749f7a4e6c18f7e7bc8309604051914283523392a260018055005b60405162461bcd60e51b815260048101839052601e60248201527f4e65772070617373776f7264206d75737420626520646966666572656e7400006044820152606490fd5b60405162461bcd60e51b815260048101849052602160248201527f4e65772070617373776f726420686173682063616e6e6f7420626520656d70746044820152607960f81b6064820152608490fd5b60405162461bcd60e51b8152600481018490526014602482015273125b9d985b1a59081bdb19081c185cdcdddbdc9960621b6044820152606490fd5b3461015057600036600319011261015057336000526002602052610c0d60ff600360406000200154166110c9565b6040514281527f22c3ce09984495411cfaa9c6d5bfd078ede4d3a3d9d3249f506a59861d68e72160203392a2005b3461015057602080600319360112610150576004356001600160a01b038116919082900361015057610c6b611037565b816000526002815260ff6003604060002001541615610cd8577f0a3c4dd3ee5277d6eada470cf9b47a480953120ecafcbbdc14bde6f8a6248930908260005260028152600360406000200160ff1990818154169055600482526040600020908154169055604051428152a2005b6064906040519062461bcd60e51b82526004820152600f60248201526e55736572206e6f742061637469766560881b6044820152fd5b34610150576020806003193601126101505767ffffffffffffffff9060043582811161015057610d42903690600401610eb8565b913360005260028252610d5f60ff600360406000200154166110c9565b610d6b83511515611063565b3360005260028252604060002091835191821161088357610d8c8354610f57565b601f8111610e34575b5080601f8311600114610dd15750819293600092610dc6575b5050600019600383901b1c191660019190911b179055005b015190508380610dae565b90601f198316948460005282600020926000905b878210610e1c575050836001959610610e03575b505050811b019055005b015160001960f88460031b161c19169055838080610df9565b80600185968294968601518155019501930190610de5565b8360005281600020601f840160051c810191838510610e70575b601f0160051c01905b818110610e645750610d95565b60008155600101610e57565b9091508190610e4e565b60c0810190811067ffffffffffffffff82111761088357604052565b90601f8019910116810190811067ffffffffffffffff82111761088357604052565b81601f820112156101505780359067ffffffffffffffff82116108835760405192610eed601f8401601f191660200185610e96565b8284526020838301011161015057816000926020809301838601378301015290565b60005b838110610f225750506000910152565b8181015183820152602001610f12565b90602091610f4b81518092818552858086019101610f0f565b601f01601f1916010190565b90600182811c92168015610f87575b6020831014610f7157565b634e487b7160e01b600052602260045260246000fd5b91607f1691610f66565b9060405191826000825492610fa584610f57565b9081845260019485811690816000146110145750600114610fd1575b5050610fcf92500383610e96565b565b9093915060005260209081600020936000915b818310610ffc575050610fcf93508201013880610fc1565b85548884018501529485019487945091830191610fe4565b915050610fcf94506020925060ff191682840152151560051b8201013880610fc1565b6000546001600160a01b0316330361104b57565b60405163118cdaa760e01b8152336004820152602490fd5b1561106a57565b60405162461bcd60e51b81526020600482015260146024820152734e616d652063616e6e6f7420626520656d70747960601b6044820152606490fd5b6002600154146110b7576002600155565b604051633ee5aeb560e01b8152600490fd5b156110d057565b60405162461bcd60e51b815260206004820152601f60248201527f55736572206e6f742072656769737465726564206f7220696e616374697665006044820152606490fdfea264697066735822122075602dc523638ae3d8cf3964471a8f59618eca18ccfd971b94587f4c0ea1c1a164736f6c63430008140033",
  "linkReferences": {},
  "deployedLinkReferences": {}
}