{"contracts/TimeProof.sol":{"TimeProof":{"abi":[{"inputs":[],"stateMutability":"nonpayable","type":"constructor"},{"inputs":[{"internalType":"address","name":"owner","type":"address"}],"name":"OwnableInvalidOwner","type":"error"},{"inputs":[{"internalType":"address","name":"account","type":"address"}],"name":"OwnableUnauthorizedAccount","type":"error"},{"inputs":[],"name":"ReentrancyGuardReentrantCall","type":"error"},{"anonymous":false,"inputs":[{"indexed":true,"internalType":"address","name":"previousOwner","type":"address"},{"indexed":true,"internalType":"address","name":"newOwner","type":"address"}],"name":"OwnershipTransferred","type":"event"},{"anonymous":false,"inputs":[{"indexed":true,"internalType":"bytes32","name":"proofHash","type":"bytes32"},{"indexed":true,"internalType":"string","name":"mailId","type":"string"},{"indexed":false,"internalType":"enum TimeProof.EventType","name":"eventType","type":"uint8"},{"indexed":false,"internalType":"uint256","name":"timestamp","type":"uint256"},{"indexed":false,"internalType":"address","name":"requestedBy","type":"address"}],"name":"TimeProofGenerated","type":"event"},{"anonymous":false,"inputs":[{"indexed":true,"internalType":"bytes32","name":"proofHash","type":"bytes32"},{"indexed":false,"internalType":"bool","name":"isValid","type":"bool"},{"indexed":false,"internalType":"uint256","name":"verificationTime","type":"uint256"},{"indexed":false,"internalType":"address","name":"verifiedBy","type":"address"}],"name":"TimeProofVerified","type":"event"},{"anonymous":false,"inputs":[{"indexed":true,"internalType":"address","name":"authority","type":"address"},{"indexed":false,"internalType":"uint256","name":"timestamp","type":"uint256"}],"name":"TimestampAuthorityAdded","type":"event"},{"anonymous":false,"inputs":[{"indexed":true,"internalType":"address","name":"authority","type":"address"},{"indexed":false,"internalType":"uint256","name":"timestamp","type":"uint256"}],"name":"TimestampAuthorityRemoved","type":"event"},{"inputs":[{"internalType":"address","name":"authority","type":"address"}],"name":"addTimestampAuthority","outputs":[],"stateMutability":"nonpayable","type":"function"},{"inputs":[{"internalType":"uint256","name":"","type":"uint256"}],"name":"allProofHashes","outputs":[{"internalType":"bytes32","name":"","type":"bytes32"}],"stateMutability":"view","type":"function"},{"inputs":[{"internalType":"address","name":"","type":"address"}],"name":"authorizedTimestampAuthorities","outputs":[{"internalType":"bool","name":"","type":"bool"}],"stateMutability":"view","type":"function"},{"inputs":[{"internalType":"bytes32[]","name":"proofHashes","type":"bytes32[]"}],"name":"batchVerifyTimeProofs","outputs":[{"internalType":"bool[]","name":"","type":"bool[]"}],"stateMutability":"nonpayable","type":"function"},{"inputs":[{"internalType":"string","name":"mailId","type":"string"},{"internalType":"enum TimeProof.EventType","name":"eventType","type":"uint8"},{"internalType":"address","name":"requestedBy","type":"address"}],"name":"generateSimpleTimeProof","outputs":[{"internalType":"bytes32","name":"","type":"bytes32"}],"stateMutability":"nonpayable","type":"function"},{"inputs":[{"internalType":"string","name":"mailId","type":"string"},{"internalType":"enum TimeProof.EventType","name":"eventType","type":"uint8"},{"internalType":"address","name":"requestedBy","type":"address"},{"components":[{"internalType":"uint256","name":"timestamp","type":"uint256"},{"internalType":"string","name":"ntpServer","type":"string"},{"internalType":"bytes","name":"signature","type":"bytes"},{"internalType":"address","name":"timestampAuthority","type":"address"}],"internalType":"struct TimeProof.AtomicTimeData","name":"atomicTime","type":"tuple"},{"internalType":"bytes32[]","name":"certificateChain","type":"bytes32[]"},{"internalType":"bytes32","name":"nonce","type":"bytes32"}],"name":"generateTimeProof","outputs":[{"internalType":"bytes32","name":"","type":"bytes32"}],"stateMutability":"nonpayable","type":"function"},{"inputs":[{"internalType":"uint256","name":"offset","type":"uint256"},{"internalType":"uint256","name":"limit","type":"uint256"}],"name":"getAllProofHashes","outputs":[{"internalType":"bytes32[]","name":"","type":"bytes32[]"}],"stateMutability":"view","type":"function"},{"inputs":[{"internalType":"bytes32","name":"proofHash","type":"bytes32"}],"name":"getCertificateChain","outputs":[{"internalType":"bytes32[]","name":"","type":"bytes32[]"}],"stateMutability":"view","type":"function"},{"inputs":[{"internalType":"string","name":"mailId","type":"string"}],"name":"getMailTimeProofs","outputs":[{"internalType":"bytes32[]","name":"","type":"bytes32[]"}],"stateMutability":"view","type":"function"},{"inputs":[{"internalType":"bytes32","name":"proofHash","type":"bytes32"}],"name":"getMerkleProof","outputs":[{"internalType":"bytes32[]","name":"","type":"bytes32[]"}],"stateMutability":"view","type":"function"},{"inputs":[{"internalType":"bytes32","name":"proofHash","type":"bytes32"}],"name":"getTimeProof","outputs":[{"internalType":"string","name":"mailId","type":"string"},{"internalType":"enum TimeProof.EventType","name":"eventType","type":"uint8"},{"internalType":"uint256","name":"timestamp","type":"uint256"},{"internalType":"bytes32","name":"blockHash","type":"bytes32"},{"internalType":"uint256","name":"blockNumber","type":"uint256"},{"internalType":"string","name":"ntpServerUsed","type":"string"},{"internalType":"address","name":"requestedBy","type":"address"},{"internalType":"bool","name":"isVerified","type":"bool"},{"internalType":"uint256","name":"creationTime","type":"uint256"}],"stateMutability":"view","type":"function"},{"inputs":[],"name":"getTotalProofs","outputs":[{"internalType":"uint256","name":"","type":"uint256"}],"stateMutability":"view","type":"function"},{"inputs":[{"internalType":"bytes32","name":"proofHash","type":"bytes32"}],"name":"getVerificationStatus","outputs":[{"internalType":"bool","name":"isVerified","type":"bool"},{"internalType":"bool","name":"blockchainConfirmed","type":"bool"},{"internalType":"bool","name":"atomicTimeVerified","type":"bool"},{"internalType":"bool","name":"merkleProofValid","type":"bool"}],"stateMutability":"view","type":"function"},{"inputs":[{"internalType":"string","name":"","type":"string"},{"internalType":"uint256","name":"","type":"uint256"}],"name":"mailTimeProofs","outputs":[{"internalType":"bytes32","name":"","type":"bytes32"}],"stateMutability":"view","type":"function"},{"inputs":[],"name":"owner","outputs":[{"internalType":"address","name":"","type":"address"}],"stateMutability":"view","type":"function"},{"inputs":[{"internalType":"address","name":"authority","type":"address"}],"name":"removeTimestampAuthority","outputs":[],"stateMutability":"nonpayable","type":"function"},{"inputs":[],"name":"renounceOwnership","outputs":[],"stateMutability":"nonpayable","type":"function"},{"inputs":[{"internalType":"bytes32","name":"","type":"bytes32"}],"name":"timeProofs","outputs":[{"internalType":"string","name":"mailId","type":"string"},{"internalType":"enum TimeProof.EventType","name":"eventType","type":"uint8"},{"internalType":"uint256","name":"timestamp","type":"uint256"},{"internalType":"bytes32","name":"blockHash","type":"bytes32"},{"internalType":"uint256","name":"blockNumber","type":"uint256"},{"internalType":"uint256","name":"transactionIndex","type":"uint256"},{"internalType":"bytes","name":"atomicTimeSignature","type":"bytes"},{"internalType":"string","name":"ntpServerUsed","type":"string"},{"internalType":"address","name":"requestedBy","type":"address"},{"internalType":"bool","name":"isVerified","type":"bool"},{"internalType":"uint256","name":"creationTime","type":"uint256"}],"stateMutability":"view","type":"function"},{"inputs":[],"name":"totalProofs","outputs":[{"internalType":"uint256","name":"","type":"uint256"}],"stateMutability":"view","type":"function"},{"inputs":[{"internalType":"address","name":"newOwner","type":"address"}],"name":"transferOwnership","outputs":[],"stateMutability":"nonpayable","type":"function"},{"inputs":[{"internalType":"bytes32","name":"","type":"bytes32"}],"name":"usedNonces","outputs":[{"internalType":"bool","name":"","type":"bool"}],"stateMutability":"view","type":"function"},{"inputs":[{"internalType":"bytes32","name":"proofHash","type":"bytes32"}],"name":"verifyTimeProof","outputs":[{"internalType":"bool","name":"","type":"bool"}],"stateMutability":"nonpayable","type":"function"}],"evm":{"bytecode":{"linkReferences":{},"object":"608080604052346100c15733156100ab5760008054336001600160a01b0319821681178355604080519390929091906001600160a01b03167f8be0079c531659141344cd1fd0a4f28419497f9722a3daafe3b4186f6b6457e08380a360018055338152600460205220600160ff198254161790554281527f81328cfd1779b05ea74063f5e6902fddfb964dd84c5eeb288f6db6786eecda1260203392a260405161210290816100c78239f35b631e4fbdf760e01b815260006004820152602490fd5b600080fdfe608080604052600436101561001357600080fd5b60003560e01c9081632ded356814611bd2575080632e36b05014611b875780635356986314611a7557806355be20271461195b5780635de1ea78146119245780636346000b146117bd5780636faae4e814611649578063715018a6146115f0578063827c9c28146114eb5780638da5cb5b146114c25780638f266232146113c05780639b1bc0c9146113a2578063a587bb18146111e9578063c812da5514610f6d578063c965ff3914610f04578063cfa9f83314610e8a578063d1bf068414610e4b578063f2fde38b14610dc2578063f715a16f14610d5f578063f7580ab91461026e578063feb617241461023d5763ffdccee31461011157600080fd5b346102385760203660031901126102385760043560005260026020526040600020604051806101408184611e92565b0361014b9082611d09565b600182015460ff1691600281015492600382015490600483015490600584015490604051918280600788019061018091611e92565b0361018b9084611d09565b604051938461019d8160088a01611e92565b036101a89086611d09565b600a87015496600b015495604051998a99610160808c528b016101ca91611dc2565b9460208b016101d891611de7565b60408a01526060890152608088015260a087015285810360c08701526101fd91611dc2565b84810360e086015261020e91611dc2565b91600160a01b60019003811661010085015260a01c60ff1615156101208401526101408301520390f35b600080fd5b34610238576020366003190112610238576004356000526005602052602060ff604060002054166040519015158152f35b346102385760031960c036820112610238576004356001600160401b0381116102385761029f903690600401611e3a565b9060046024351015610238576102b3611c37565b606435916001600160401b03831161023857608090833603011261023857604051916102de83611cb8565b8060040135835260248101356001600160401b038111610238576103089060043691840101611e3a565b602084015260448101356001600160401b0381116102385781019036602383011215610238576103446064923690602460048201359101611df4565b604085015201356001600160a01b03811681036102385760608301526001600160401b03608435116102385761037f36608435600401611d41565b33600052600460205260ff6040600020541615610d0c576103a284511515611f54565b600260015414610cfa5760026001556001600160a01b03821615610cb55760a435600052600560205260ff60406000205416610c7b57825161012c420190814211610b765711610c3657825161012b19420190428211610b765710610bf157805115610ba25760a43560005260056020526040600020600160ff198254161790556040519061043082611cb8565b6003825260603660208401376040516104736021828851610458816020840160208d01611d9f565b810160243560f81b6020820152036001810184520182611d09565b6020815191012061048383611f9f565b526040516020810190428252436040820152604081526104a281611cee565b519020825160011015610b8c576040830152835160405160208101916001600160601b03198660601b1683526034820152603481526104e081611cee565b519020825160021015610b8c5760608301528351602085015161057460d460405180936020820195602061051a8d89815193849201611d9f565b83019060243560208301524260408301524360608301526001600160601b03198b60601b166080830152609482015261055d82518093602060b485019101611d9f565b0160a43560b48201520360b4810184520182611d09565b5190209343600019810111610b765760206040820151910151906040519361059b85611c9c565b8785526105ad60243560208701611fc0565b4260408601526000194301406060860152436080860152600060a086015260c085015260e084015261010083015261012082015260018060a01b03821661014082015260006101608201524261018082015282600052600260205260406000209080518051906001600160401b038211610957578190610637826106318754611e58565b87611fcc565b602090601f8311600114610b0a57600092610aff575b50508160011b916000199060031b1c19161782555b60208101516004811015610ae957600183019060ff8019835416911617905560408101516002830155606081015160038301556080810151600483015560a0810151600583015560c08101518051906001600160401b03821161095757600160401b8211610957576006840154826006860155808310610abc575b5060200160068401600052602060002060005b838110610aa8575050505060e08101518051906001600160401b03821161095757819061072d826107246007880154611e58565b60078801611fcc565b602090601f8311600114610a3657600092610a2b575b50508160011b916000199060031b1c19161760078301555b6101008101518051906001600160401b03821161095757819061078e826107856008880154611e58565b60088801611fcc565b602090601f83116001146109b9576000926109ae575b50508160011b916000199060031b1c19161760088301555b6101208101518051906001600160401b03821161095757600160401b8211610957576009840154826009860155808310610981575b5060200160098401600052602060002060005b83811061096d5750505050610140810151600a8301805461016084015160ff60a01b90151560a01b166001600160a01b039093166001600160a81b031990911617919091179055600b906101800151910155604051602081855161086b8183858a01611d9f565b810160038152030190208054600160401b8110156109575761089781859360016108ae94018155611c84565b819391549060031b91821b91600019901b19161790565b905560065492600160401b841015610957577fdff62bff3c25328f1d6c91c68180d7b2034d18a341365436a22750e3af7c0d9360606109218593846108fe6108978a600160209c01600655611c4d565b905561090b600754612020565b6007558760405192828480945193849201611d9f565b8101039020936040519061093782602435611de7565b42828901526001600160a01b03166040820152a360018055604051908152f35b634e487b7160e01b600052604160045260246000fd5b600190602084519401938184015501610804565b600985016000526020600020908382015b81830181106109a25750506107f1565b60008155600101610992565b0151905087806107a4565b9250600885016000526020600020906000935b601f1984168510610a10576001945083601f198116106109f7575b505050811b0160088301556107bc565b015160001960f88460031b161c191690558780806109e7565b818101518355602094850194600190930192909101906109cc565b015190508780610743565b9250600785016000526020600020906000935b601f1984168510610a8d576001945083601f19811610610a74575b505050811b01600783015561075b565b015160001960f88460031b161c19169055878080610a64565b81810151835560209485019460019093019290910190610a49565b6001906020845194019381840155016106f0565b600685016000526020600020908382015b8183018110610add5750506106dd565b60008155600101610acd565b634e487b7160e01b600052602160045260246000fd5b01519050878061064d565b9250846000526020600020906000935b601f1984168510610b5b576001945083601f19811610610b42575b505050811b018255610662565b015160001960f88460031b161c19169055878080610b35565b81810151835560209485019460019093019290910190610b1a565b634e487b7160e01b600052601160045260246000fd5b634e487b7160e01b600052603260045260246000fd5b60405162461bcd60e51b815260206004820152602160248201527f436572746966696361746520636861696e2063616e6e6f7420626520656d70746044820152607960f81b6064820152608490fd5b60405162461bcd60e51b815260206004820152601b60248201527f41746f6d69632074696d6520746f6f2066617220696e207061737400000000006044820152606490fd5b60405162461bcd60e51b815260206004820152601d60248201527f41746f6d69632074696d6520746f6f2066617220696e206675747572650000006044820152606490fd5b60405162461bcd60e51b8152602060048201526012602482015271139bdb98d948185b1c9958591e481d5cd95960721b6044820152606490fd5b60405162461bcd60e51b815260206004820152601960248201527f496e76616c6964207265717565737465722061646472657373000000000000006044820152606490fd5b604051633ee5aeb560e01b8152600490fd5b60405162461bcd60e51b815260206004820152602560248201527f4e6f7420616e20617574686f72697a65642074696d657374616d7020617574686044820152646f7269747960d81b6064820152608490fd5b3461023857602036600319011261023857600435806000526002602052610d8f600260406000200154151561202f565b6000526002602052610dbe610daa600960406000200161207b565b604051918291602083526020830190611bed565b0390f35b3461023857602036600319011261023857610ddb611c21565b610de3611f28565b6001600160a01b03908116908115610e3257600054826001600160601b0360a01b821617600055167f8be0079c531659141344cd1fd0a4f28419497f9722a3daafe3b4186f6b6457e0600080a3005b604051631e4fbdf760e01b815260006004820152602490fd5b34610238576020366003190112610238576001600160a01b03610e6c611c21565b166000526004602052602060ff604060002054166040519015158152f35b34610238576040366003190112610238576004356001600160401b03811161023857610eba903690600401611e3a565b610ed66020602435928160405193828580945193849201611d9f565b81016003815203019020805482101561023857602091610ef591611c84565b90549060031b1c604051908152f35b34610238576020366003190112610238576004356001600160401b03811161023857610daa610f5e6020610f3f610dbe943690600401611e3a565b610f4b81511515611f54565b8160405193828580945193849201611d9f565b8101600381520301902061207b565b3461023857600319606036820112610238576004356001600160401b03811161023857610f9e903690600401611e3a565b9060243590600482101561023857610fb4611c37565b92610fc181511515611f54565b60405193602094858101904282524460408201523360601b606082015260548152610feb81611cb8565b51902090816000526005865260ff604060002054166111b2576040514281880152868152869493929161101d82611cd3565b6040519461102a86611cb8565b4286526040519761103a89611cd3565b60088952878901671a5b9d195c9b985b60c21b90528787019889526040870193845260608701923384526040519461107186611cd3565b600186528936818801376040518a81019073696e7465726e616c5f636572746966696361746560601b8252426034820152603481526110af81611cee565b5190206110bb87611f9f565b5260405163f7580ab960e01b815260c060048201529a8b998a996110e39060c48c0190611dc2565b9460248b016110f191611de7565b6001600160a01b0393841660448b0152898503860160648b01525184525160808b85018190526111249190850190611dc2565b905190838103604085015261113891611dc2565b935116906060015284820301608485015261115291611bed565b9060a48301520381305a90600091f19081156111a657600091611179575b50604051908152f35b90508181813d831161119f575b6111908183611d09565b81010312610238575182611170565b503d611186565b6040513d6000823e3d90fd5b60405162461bcd60e51b815260048101879052600f60248201526e2737b731b29031b7b63634b9b4b7b760891b6044820152606490fd5b3461023857602036600319011261023857600435806000526002602052611219600260406000200154151561202f565b6000526002602052604060002060405161123281611c9c565b60405161124a816112438186611e92565b0382611d09565b815260ff60018301541691611263602083019384611fc0565b600281015490604083019182526003810154906060840191825260048101549360808101948552600582015460a08201526112a06006830161207b565b60c08201526040516112b9816112438160078701611e92565b60e0820152604051936112da856112d38160088701611e92565b0386611d09565b610100928383019586526112f06009820161207b565b966101209788850152600a82015496610140850191600b60018060a01b0394858b16855260ff61016089019b60a01c1615158b520154956101808101968752519a51936004851015610ae9576113909551985191519251935116985115159551976113746113696040519d8d8f9e8f9081520190611dc2565b9560208d0190611de7565b60408b015260608a0152608089015287820360a0890152611dc2565b9360c086015260e08501528301520390f35b34610238576000366003190112610238576020600754604051908152f35b34610238576040366003190112610238576004356006548082101561148657602435820190818311610b765780821161147e575b506113ff8282611f92565b9161140983611d2a565b926114176040519485611d09565b808452611426601f1991611d2a565b01366020850137805b82811061144c5760405160208082528190610dbe90820187611bed565b8061145961147992611c4d565b90549060031b1c61147361146d8584611f92565b87611fac565b52612020565b61142f565b9050826113f4565b60405162461bcd60e51b81526020600482015260146024820152734f6666736574206f7574206f6620626f756e647360601b6044820152606490fd5b34610238576000366003190112610238576000546040516001600160a01b039091168152602090f35b34610238576020366003190112610238576020600435806000526002825261151c600260406000200154151561202f565b806000526002825260406000209060048201549182151592836115e5575b506006810154151561154f6007830154611e58565b15156009830154151591856115dd575b50846115d5575b50836115cb575b50600a01805460ff60a01b191683151560a01b60ff60a01b161790555b7fbf00953ad8ffc27546af9d2685d2cf1612d4427e80ae49d5dc8a7b74d1f33a046060604051931515938481524286820152336040820152a2604051908152f35b925061158a61156d565b935085611566565b94508661155f565b43101592508461153a565b3461023857600036600319011261023857611609611f28565b600080546001600160a01b0319811682556001600160a01b03167f8be0079c531659141344cd1fd0a4f28419497f9722a3daafe3b4186f6b6457e08280a3005b3461023857602080600319360112610238576004356001600160401b0381116102385761167a903690600401611d41565b805161168581611d2a565b906116936040519283611d09565b80825261169f81611d2a565b8285019390601f190136853760005b8281106116fb5750505090604051928392818401908285525180915260408401929160005b8281106116e257505050500390f35b83511515855286955093810193928101926001016116d3565b6117058183611fac565b5160005260028087526040600020015415156000146117ad576117288183611fac565b51906040519163104f938560e31b8352600483015286826024816000305af180156111a657600090611773575b61176e92506117648287611fac565b9015159052612020565b6116ae565b50908681813d83116117a6575b61178a8183611d09565b8101031261023857519081151582036102385761176e91611755565b503d611780565b80600061147361176e9387611fac565b34610238576020366003190112610238576004358060005260026020526117ed600260406000200154151561202f565b60005260026020526080604060002060405161180881611c9c565b604051611819816112438186611e92565b815261182f60ff60018401541660208301611fc0565b60028201546040820152600382015460608201526004820154838201908152600583015460a08301526118646006840161207b565b9060c0830191825260405192611888846118818160078901611e92565b0385611d09565b60e081019384526040516118a3816112438160088a01611e92565b6101008201526118b56009860161207b565b610120820152610180600b60ff600a88015460018060a01b03811661014086015260a01c1615159687610160850152015491015251918215159283611919575b50515115159051511515916040519384521515602084015260408301526060820152f35b4310159250856118f5565b34610238576020366003190112610238576004356006548110156102385761194d602091611c4d565b90546040519160031b1c8152f35b346102385760208060031936011261023857611975611c21565b9061197e611f28565b6001600160a01b03918216600081815260048352604090205490929060ff1615611a30576000541682146119ec577f537ca1ecd9f203b969c83498d924b6fa540225acd427e790f71ec71df76c9bcb908260005260048152604060002060ff198154169055604051428152a2005b6064906040519062461bcd60e51b82526004820152601c60248201527f43616e6e6f742072656d6f766520636f6e7472616374206f776e6572000000006044820152fd5b60405162461bcd60e51b815260048101839052601860248201527f417574686f72697479206e6f7420617574686f72697a656400000000000000006044820152606490fd5b346102385760208060031936011261023857611a8f611c21565b611a97611f28565b6001600160a01b0316908115611b4357816000526004815260ff60406000205416611aff577f81328cfd1779b05ea74063f5e6902fddfb964dd84c5eeb288f6db6786eecda129082600052600481526040600020600160ff19825416179055604051428152a2005b6064906040519062461bcd60e51b82526004820152601c60248201527f417574686f7269747920616c726561647920617574686f72697a6564000000006044820152fd5b6064906040519062461bcd60e51b82526004820152601960248201527f496e76616c696420617574686f726974792061646472657373000000000000006044820152fd5b3461023857602036600319011261023857600435806000526002602052611bb7600260406000200154151561202f565b6000526002602052610dbe610daa600660406000200161207b565b34610238576000366003190112610238576020906007548152f35b90815180825260208080930193019160005b828110611c0d575050505090565b835185529381019392810192600101611bff565b600435906001600160a01b038216820361023857565b604435906001600160a01b038216820361023857565b600654811015610b8c5760066000527ff652222313e28459528d920b65115c16c04f3efc82aaedc97be59f3f377c0d3f0190600090565b8054821015610b8c5760005260206000200190600090565b6101a081019081106001600160401b0382111761095757604052565b608081019081106001600160401b0382111761095757604052565b604081019081106001600160401b0382111761095757604052565b606081019081106001600160401b0382111761095757604052565b90601f801991011681019081106001600160401b0382111761095757604052565b6001600160401b0381116109575760051b60200190565b81601f8201121561023857803591611d5883611d2a565b92611d666040519485611d09565b808452602092838086019260051b820101928311610238578301905b828210611d90575050505090565b81358152908301908301611d82565b60005b838110611db25750506000910152565b8181015183820152602001611da2565b90602091611ddb81518092818552858086019101611d9f565b601f01601f1916010190565b906004821015610ae95752565b9291926001600160401b0382116109575760405191611e1d601f8201601f191660200184611d09565b829481845281830111610238578281602093846000960137010152565b9080601f8301121561023857816020611e5593359101611df4565b90565b90600182811c92168015611e88575b6020831014611e7257565b634e487b7160e01b600052602260045260246000fd5b91607f1691611e67565b9060009291805491611ea383611e58565b918282526001938481169081600014611f055750600114611ec5575b50505050565b90919394506000526020928360002092846000945b838610611ef1575050505001019038808080611ebf565b805485870183015294019385908201611eda565b9294505050602093945060ff191683830152151560051b01019038808080611ebf565b6000546001600160a01b03163303611f3c57565b60405163118cdaa760e01b8152336004820152602490fd5b15611f5b57565b60405162461bcd60e51b815260206004820152600f60248201526e125b9d985b1a59081b585a5b081251608a1b6044820152606490fd5b91908203918211610b7657565b805115610b8c5760200190565b8051821015610b8c5760209160051b010190565b6004821015610ae95752565b90601f8111611fda57505050565b600091825260208220906020601f850160051c83019410612016575b601f0160051c01915b82811061200b57505050565b818155600101611fff565b9092508290611ff6565b6000198114610b765760010190565b1561203657565b60405162461bcd60e51b815260206004820152601960248201527f54696d652070726f6f6620646f6573206e6f74206578697374000000000000006044820152606490fd5b9060405191828154918282526020928383019160005283600020936000905b8282106120b2575050506120b092500383611d09565b565b85548452600195860195889550938101939091019061209a56fea2646970667358221220b5344c8e9c28630d621a0a7b8f291ea12cc8131734c67d8e352e489ef13401d464736f6c63430008140033","opcodes":"PUSH1 0x80 DUP1 PUSH1 0x40 MSTORE CALLVALUE PUSH2 0xC1 JUMPI CALLER ISZERO PUSH2 0xAB JUMPI PUSH1 0x0 DUP1 SLOAD CALLER PUSH1 0x1 PUSH1 0x1 PUSH1 0xA0 SHL SUB NOT DUP3 AND DUP2 OR DUP4 SSTORE PUSH1 0x40 DUP1 MLOAD SWAP4 SWAP1 SWAP3 SWAP1 SWAP2 SWAP1 PUSH1 0x1 PUSH1 0x1 PUSH1 0xA0 SHL SUB AND PUSH32 0x8BE0079C531659141344CD1FD0A4F28419497F9722A3DAAFE3B4186F6B6457E0 DUP4 DUP1 LOG3 PUSH1 0x1 DUP1 SSTORE CALLER DUP2 MSTORE PUSH1 0x4 PUSH1 0x20 MSTORE KECCAK256 PUSH1 0x1 PUSH1 0xFF NOT DUP3 SLOAD AND OR SWAP1 SSTORE TIMESTAMP DUP2 MSTORE PUSH32 0x81328CFD1779B05EA74063F5E6902FDDFB964DD84C5EEB288F6DB6786EECDA12 PUSH1 0x20 CALLER SWAP3 LOG2 PUSH1 0x40 MLOAD PUSH2 0x2102 SWAP1 DUP2 PUSH2 0xC7 DUP3 CODECOPY RETURN JUMPDEST PUSH4 0x1E4FBDF7 PUSH1 0xE0 SHL DUP2 MSTORE PUSH1 0x0 PUSH1 0x4 DUP3 ADD MSTORE PUSH1 0x24 SWAP1 REVERT JUMPDEST PUSH1 0x0 DUP1 REVERT INVALID PUSH1 0x80 DUP1 PUSH1 0x40 MSTORE PUSH1 0x4 CALLDATASIZE LT ISZERO PUSH2 0x13 JUMPI PUSH1 0x0 DUP1 REVERT JUMPDEST PUSH1 0x0 CALLDATALOAD PUSH1 0xE0 SHR SWAP1 DUP2 PUSH4 0x2DED3568 EQ PUSH2 0x1BD2 JUMPI POP DUP1 PUSH4 0x2E36B050 EQ PUSH2 0x1B87 JUMPI DUP1 PUSH4 0x53569863 EQ PUSH2 0x1A75 JUMPI DUP1 PUSH4 0x55BE2027 EQ PUSH2 0x195B JUMPI DUP1 PUSH4 0x5DE1EA78 EQ PUSH2 0x1924 JUMPI DUP1 PUSH4 0x6346000B EQ PUSH2 0x17BD JUMPI DUP1 PUSH4 0x6FAAE4E8 EQ PUSH2 0x1649 JUMPI DUP1 PUSH4 0x715018A6 EQ PUSH2 0x15F0 JUMPI DUP1 PUSH4 0x827C9C28 EQ PUSH2 0x14EB JUMPI DUP1 PUSH4 0x8DA5CB5B EQ PUSH2 0x14C2 JUMPI DUP1 PUSH4 0x8F266232 EQ PUSH2 0x13C0 JUMPI DUP1 PUSH4 0x9B1BC0C9 EQ PUSH2 0x13A2 JUMPI DUP1 PUSH4 0xA587BB18 EQ PUSH2 0x11E9 JUMPI DUP1 PUSH4 0xC812DA55 EQ PUSH2 0xF6D JUMPI DUP1 PUSH4 0xC965FF39 EQ PUSH2 0xF04 JUMPI DUP1 PUSH4 0xCFA9F833 EQ PUSH2 0xE8A JUMPI DUP1 PUSH4 0xD1BF0684 EQ PUSH2 0xE4B JUMPI DUP1 PUSH4 0xF2FDE38B EQ PUSH2 0xDC2 JUMPI DUP1 PUSH4 0xF715A16F EQ PUSH2 0xD5F JUMPI DUP1 PUSH4 0xF7580AB9 EQ PUSH2 0x26E JUMPI DUP1 PUSH4 0xFEB61724 EQ PUSH2 0x23D JUMPI PUSH4 0xFFDCCEE3 EQ PUSH2 0x111 JUMPI PUSH1 0x0 DUP1 REVERT JUMPDEST CALLVALUE PUSH2 0x238 JUMPI PUSH1 0x20 CALLDATASIZE PUSH1 0x3 NOT ADD SLT PUSH2 0x238 JUMPI PUSH1 0x4 CALLDATALOAD PUSH1 0x0 MSTORE PUSH1 0x2 PUSH1 0x20 MSTORE PUSH1 0x40 PUSH1 0x0 KECCAK256 PUSH1 0x40 MLOAD DUP1 PUSH2 0x140 DUP2 DUP5 PUSH2 0x1E92 JUMP JUMPDEST SUB PUSH2 0x14B SWAP1 DUP3 PUSH2 0x1D09 JUMP JUMPDEST PUSH1 0x1 DUP3 ADD SLOAD PUSH1 0xFF AND SWAP2 PUSH1 0x2 DUP2 ADD SLOAD SWAP3 PUSH1 0x3 DUP3 ADD SLOAD SWAP1 PUSH1 0x4 DUP4 ADD SLOAD SWAP1 PUSH1 0x5 DUP5 ADD SLOAD SWAP1 PUSH1 0x40 MLOAD SWAP2 DUP3 DUP1 PUSH1 0x7 DUP9 ADD SWAP1 PUSH2 0x180 SWAP2 PUSH2 0x1E92 JUMP JUMPDEST SUB PUSH2 0x18B SWAP1 DUP5 PUSH2 0x1D09 JUMP JUMPDEST PUSH1 0x40 MLOAD SWAP4 DUP5 PUSH2 0x19D DUP2 PUSH1 0x8 DUP11 ADD PUSH2 0x1E92 JUMP JUMPDEST SUB PUSH2 0x1A8 SWAP1 DUP7 PUSH2 0x1D09 JUMP JUMPDEST PUSH1 0xA DUP8 ADD SLOAD SWAP7 PUSH1 0xB ADD SLOAD SWAP6 PUSH1 0x40 MLOAD SWAP10 DUP11 SWAP10 PUSH2 0x160 DUP1 DUP13 MSTORE DUP12 ADD PUSH2 0x1CA SWAP2 PUSH2 0x1DC2 JUMP JUMPDEST SWAP5 PUSH1 0x20 DUP12 ADD PUSH2 0x1D8 SWAP2 PUSH2 0x1DE7 JUMP JUMPDEST PUSH1 0x40 DUP11 ADD MSTORE PUSH1 0x60 DUP10 ADD MSTORE PUSH1 0x80 DUP9 ADD MSTORE PUSH1 0xA0 DUP8 ADD MSTORE DUP6 DUP2 SUB PUSH1 0xC0 DUP8 ADD MSTORE PUSH2 0x1FD SWAP2 PUSH2 0x1DC2 JUMP JUMPDEST DUP5 DUP2 SUB PUSH1 0xE0 DUP7 ADD MSTORE PUSH2 0x20E SWAP2 PUSH2 0x1DC2 JUMP JUMPDEST SWAP2 PUSH1 0x1 PUSH1 0xA0 SHL PUSH1 0x1 SWAP1 SUB DUP2 AND PUSH2 0x100 DUP6 ADD MSTORE PUSH1 0xA0 SHR PUSH1 0xFF AND ISZERO ISZERO PUSH2 0x120 DUP5 ADD MSTORE PUSH2 0x140 DUP4 ADD MSTORE SUB SWAP1 RETURN JUMPDEST PUSH1 0x0 DUP1 REVERT JUMPDEST CALLVALUE PUSH2 0x238 JUMPI PUSH1 0x20 CALLDATASIZE PUSH1 0x3 NOT ADD SLT PUSH2 0x238 JUMPI PUSH1 0x4 CALLDATALOAD PUSH1 0x0 MSTORE PUSH1 0x5 PUSH1 0x20 MSTORE PUSH1 0x20 PUSH1 0xFF PUSH1 0x40 PUSH1 0x0 KECCAK256 SLOAD AND PUSH1 0x40 MLOAD SWAP1 ISZERO ISZERO DUP2 MSTORE RETURN JUMPDEST CALLVALUE PUSH2 0x238 JUMPI PUSH1 0x3 NOT PUSH1 0xC0 CALLDATASIZE DUP3 ADD SLT PUSH2 0x238 JUMPI PUSH1 0x4 CALLDATALOAD PUSH1 0x1 PUSH1 0x1 PUSH1 0x40 SHL SUB DUP2 GT PUSH2 0x238 JUMPI PUSH2 0x29F SWAP1 CALLDATASIZE SWAP1 PUSH1 0x4 ADD PUSH2 0x1E3A JUMP JUMPDEST SWAP1 PUSH1 0x4 PUSH1 0x24 CALLDATALOAD LT ISZERO PUSH2 0x238 JUMPI PUSH2 0x2B3 PUSH2 0x1C37 JUMP JUMPDEST PUSH1 0x64 CALLDATALOAD SWAP2 PUSH1 0x1 PUSH1 0x1 PUSH1 0x40 SHL SUB DUP4 GT PUSH2 0x238 JUMPI PUSH1 0x80 SWAP1 DUP4 CALLDATASIZE SUB ADD SLT PUSH2 0x238 JUMPI PUSH1 0x40 MLOAD SWAP2 PUSH2 0x2DE DUP4 PUSH2 0x1CB8 JUMP JUMPDEST DUP1 PUSH1 0x4 ADD CALLDATALOAD DUP4 MSTORE PUSH1 0x24 DUP2 ADD CALLDATALOAD PUSH1 0x1 PUSH1 0x1 PUSH1 0x40 SHL SUB DUP2 GT PUSH2 0x238 JUMPI PUSH2 0x308 SWAP1 PUSH1 0x4 CALLDATASIZE SWAP2 DUP5 ADD ADD PUSH2 0x1E3A JUMP JUMPDEST PUSH1 0x20 DUP5 ADD MSTORE PUSH1 0x44 DUP2 ADD CALLDATALOAD PUSH1 0x1 PUSH1 0x1 PUSH1 0x40 SHL SUB DUP2 GT PUSH2 0x238 JUMPI DUP2 ADD SWAP1 CALLDATASIZE PUSH1 0x23 DUP4 ADD SLT ISZERO PUSH2 0x238 JUMPI PUSH2 0x344 PUSH1 0x64 SWAP3 CALLDATASIZE SWAP1 PUSH1 0x24 PUSH1 0x4 DUP3 ADD CALLDATALOAD SWAP2 ADD PUSH2 0x1DF4 JUMP JUMPDEST PUSH1 0x40 DUP6 ADD MSTORE ADD CALLDATALOAD PUSH1 0x1 PUSH1 0x1 PUSH1 0xA0 SHL SUB DUP2 AND DUP2 SUB PUSH2 0x238 JUMPI PUSH1 0x60 DUP4 ADD MSTORE PUSH1 0x1 PUSH1 0x1 PUSH1 0x40 SHL SUB PUSH1 0x84 CALLDATALOAD GT PUSH2 0x238 JUMPI PUSH2 0x37F CALLDATASIZE PUSH1 0x84 CALLDATALOAD PUSH1 0x4 ADD PUSH2 0x1D41 JUMP JUMPDEST CALLER PUSH1 0x0 MSTORE PUSH1 0x4 PUSH1 0x20 MSTORE PUSH1 0xFF PUSH1 0x40 PUSH1 0x0 KECCAK256 SLOAD AND ISZERO PUSH2 0xD0C JUMPI PUSH2 0x3A2 DUP5 MLOAD ISZERO ISZERO PUSH2 0x1F54 JUMP JUMPDEST PUSH1 0x2 PUSH1 0x1 SLOAD EQ PUSH2 0xCFA JUMPI PUSH1 0x2 PUSH1 0x1 SSTORE PUSH1 0x1 PUSH1 0x1 PUSH1 0xA0 SHL SUB DUP3 AND ISZERO PUSH2 0xCB5 JUMPI PUSH1 0xA4 CALLDATALOAD PUSH1 0x0 MSTORE PUSH1 0x5 PUSH1 0x20 MSTORE PUSH1 0xFF PUSH1 0x40 PUSH1 0x0 KECCAK256 SLOAD AND PUSH2 0xC7B JUMPI DUP3 MLOAD PUSH2 0x12C TIMESTAMP ADD SWAP1 DUP2 TIMESTAMP GT PUSH2 0xB76 JUMPI GT PUSH2 0xC36 JUMPI DUP3 MLOAD PUSH2 0x12B NOT TIMESTAMP ADD SWAP1 TIMESTAMP DUP3 GT PUSH2 0xB76 JUMPI LT PUSH2 0xBF1 JUMPI DUP1 MLOAD ISZERO PUSH2 0xBA2 JUMPI PUSH1 0xA4 CALLDATALOAD PUSH1 0x0 MSTORE PUSH1 0x5 PUSH1 0x20 MSTORE PUSH1 0x40 PUSH1 0x0 KECCAK256 PUSH1 0x1 PUSH1 0xFF NOT DUP3 SLOAD AND OR SWAP1 SSTORE PUSH1 0x40 MLOAD SWAP1 PUSH2 0x430 DUP3 PUSH2 0x1CB8 JUMP JUMPDEST PUSH1 0x3 DUP3 MSTORE PUSH1 0x60 CALLDATASIZE PUSH1 0x20 DUP5 ADD CALLDATACOPY PUSH1 0x40 MLOAD PUSH2 0x473 PUSH1 0x21 DUP3 DUP9 MLOAD PUSH2 0x458 DUP2 PUSH1 0x20 DUP5 ADD PUSH1 0x20 DUP14 ADD PUSH2 0x1D9F JUMP JUMPDEST DUP2 ADD PUSH1 0x24 CALLDATALOAD PUSH1 0xF8 SHL PUSH1 0x20 DUP3 ADD MSTORE SUB PUSH1 0x1 DUP2 ADD DUP5 MSTORE ADD DUP3 PUSH2 0x1D09 JUMP JUMPDEST PUSH1 0x20 DUP2 MLOAD SWAP2 ADD KECCAK256 PUSH2 0x483 DUP4 PUSH2 0x1F9F JUMP JUMPDEST MSTORE PUSH1 0x40 MLOAD PUSH1 0x20 DUP2 ADD SWAP1 TIMESTAMP DUP3 MSTORE NUMBER PUSH1 0x40 DUP3 ADD MSTORE PUSH1 0x40 DUP2 MSTORE PUSH2 0x4A2 DUP2 PUSH2 0x1CEE JUMP JUMPDEST MLOAD SWAP1 KECCAK256 DUP3 MLOAD PUSH1 0x1 LT ISZERO PUSH2 0xB8C JUMPI PUSH1 0x40 DUP4 ADD MSTORE DUP4 MLOAD PUSH1 0x40 MLOAD PUSH1 0x20 DUP2 ADD SWAP2 PUSH1 0x1 PUSH1 0x1 PUSH1 0x60 SHL SUB NOT DUP7 PUSH1 0x60 SHL AND DUP4 MSTORE PUSH1 0x34 DUP3 ADD MSTORE PUSH1 0x34 DUP2 MSTORE PUSH2 0x4E0 DUP2 PUSH2 0x1CEE JUMP JUMPDEST MLOAD SWAP1 KECCAK256 DUP3 MLOAD PUSH1 0x2 LT ISZERO PUSH2 0xB8C JUMPI PUSH1 0x60 DUP4 ADD MSTORE DUP4 MLOAD PUSH1 0x20 DUP6 ADD MLOAD PUSH2 0x574 PUSH1 0xD4 PUSH1 0x40 MLOAD DUP1 SWAP4 PUSH1 0x20 DUP3 ADD SWAP6 PUSH1 0x20 PUSH2 0x51A DUP14 DUP10 DUP2 MLOAD SWAP4 DUP5 SWAP3 ADD PUSH2 0x1D9F JUMP JUMPDEST DUP4 ADD SWAP1 PUSH1 0x24 CALLDATALOAD PUSH1 0x20 DUP4 ADD MSTORE TIMESTAMP PUSH1 0x40 DUP4 ADD MSTORE NUMBER PUSH1 0x60 DUP4 ADD MSTORE PUSH1 0x1 PUSH1 0x1 PUSH1 0x60 SHL SUB NOT DUP12 PUSH1 0x60 SHL AND PUSH1 0x80 DUP4 ADD MSTORE PUSH1 0x94 DUP3 ADD MSTORE PUSH2 0x55D DUP3 MLOAD DUP1 SWAP4 PUSH1 0x20 PUSH1 0xB4 DUP6 ADD SWAP2 ADD PUSH2 0x1D9F JUMP JUMPDEST ADD PUSH1 0xA4 CALLDATALOAD PUSH1 0xB4 DUP3 ADD MSTORE SUB PUSH1 0xB4 DUP2 ADD DUP5 MSTORE ADD DUP3 PUSH2 0x1D09 JUMP JUMPDEST MLOAD SWAP1 KECCAK256 SWAP4 NUMBER PUSH1 0x0 NOT DUP2 ADD GT PUSH2 0xB76 JUMPI PUSH1 0x20 PUSH1 0x40 DUP3 ADD MLOAD SWAP2 ADD MLOAD SWAP1 PUSH1 0x40 MLOAD SWAP4 PUSH2 0x59B DUP6 PUSH2 0x1C9C JUMP JUMPDEST DUP8 DUP6 MSTORE PUSH2 0x5AD PUSH1 0x24 CALLDATALOAD PUSH1 0x20 DUP8 ADD PUSH2 0x1FC0 JUMP JUMPDEST TIMESTAMP PUSH1 0x40 DUP7 ADD MSTORE PUSH1 0x0 NOT NUMBER ADD BLOCKHASH PUSH1 0x60 DUP7 ADD MSTORE NUMBER PUSH1 0x80 DUP7 ADD MSTORE PUSH1 0x0 PUSH1 0xA0 DUP7 ADD MSTORE PUSH1 0xC0 DUP6 ADD MSTORE PUSH1 0xE0 DUP5 ADD MSTORE PUSH2 0x100 DUP4 ADD MSTORE PUSH2 0x120 DUP3 ADD MSTORE PUSH1 0x1 DUP1 PUSH1 0xA0 SHL SUB DUP3 AND PUSH2 0x140 DUP3 ADD MSTORE PUSH1 0x0 PUSH2 0x160 DUP3 ADD MSTORE TIMESTAMP PUSH2 0x180 DUP3 ADD MSTORE DUP3 PUSH1 0x0 MSTORE PUSH1 0x2 PUSH1 0x20 MSTORE PUSH1 0x40 PUSH1 0x0 KECCAK256 SWAP1 DUP1 MLOAD DUP1 MLOAD SWAP1 PUSH1 0x1 PUSH1 0x1 PUSH1 0x40 SHL SUB DUP3 GT PUSH2 0x957 JUMPI DUP2 SWAP1 PUSH2 0x637 DUP3 PUSH2 0x631 DUP8 SLOAD PUSH2 0x1E58 JUMP JUMPDEST DUP8 PUSH2 0x1FCC JUMP JUMPDEST PUSH1 0x20 SWAP1 PUSH1 0x1F DUP4 GT PUSH1 0x1 EQ PUSH2 0xB0A JUMPI PUSH1 0x0 SWAP3 PUSH2 0xAFF JUMPI JUMPDEST POP POP DUP2 PUSH1 0x1 SHL SWAP2 PUSH1 0x0 NOT SWAP1 PUSH1 0x3 SHL SHR NOT AND OR DUP3 SSTORE JUMPDEST PUSH1 0x20 DUP2 ADD MLOAD PUSH1 0x4 DUP2 LT ISZERO PUSH2 0xAE9 JUMPI PUSH1 0x1 DUP4 ADD SWAP1 PUSH1 0xFF DUP1 NOT DUP4 SLOAD AND SWAP2 AND OR SWAP1 SSTORE PUSH1 0x40 DUP2 ADD MLOAD PUSH1 0x2 DUP4 ADD SSTORE PUSH1 0x60 DUP2 ADD MLOAD PUSH1 0x3 DUP4 ADD SSTORE PUSH1 0x80 DUP2 ADD MLOAD PUSH1 0x4 DUP4 ADD SSTORE PUSH1 0xA0 DUP2 ADD MLOAD PUSH1 0x5 DUP4 ADD SSTORE PUSH1 0xC0 DUP2 ADD MLOAD DUP1 MLOAD SWAP1 PUSH1 0x1 PUSH1 0x1 PUSH1 0x40 SHL SUB DUP3 GT PUSH2 0x957 JUMPI PUSH1 0x1 PUSH1 0x40 SHL DUP3 GT PUSH2 0x957 JUMPI PUSH1 0x6 DUP5 ADD SLOAD DUP3 PUSH1 0x6 DUP7 ADD SSTORE DUP1 DUP4 LT PUSH2 0xABC JUMPI JUMPDEST POP PUSH1 0x20 ADD PUSH1 0x6 DUP5 ADD PUSH1 0x0 MSTORE PUSH1 0x20 PUSH1 0x0 KECCAK256 PUSH1 0x0 JUMPDEST DUP4 DUP2 LT PUSH2 0xAA8 JUMPI POP POP POP POP PUSH1 0xE0 DUP2 ADD MLOAD DUP1 MLOAD SWAP1 PUSH1 0x1 PUSH1 0x1 PUSH1 0x40 SHL SUB DUP3 GT PUSH2 0x957 JUMPI DUP2 SWAP1 PUSH2 0x72D DUP3 PUSH2 0x724 PUSH1 0x7 DUP9 ADD SLOAD PUSH2 0x1E58 JUMP JUMPDEST PUSH1 0x7 DUP9 ADD PUSH2 0x1FCC JUMP JUMPDEST PUSH1 0x20 SWAP1 PUSH1 0x1F DUP4 GT PUSH1 0x1 EQ PUSH2 0xA36 JUMPI PUSH1 0x0 SWAP3 PUSH2 0xA2B JUMPI JUMPDEST POP POP DUP2 PUSH1 0x1 SHL SWAP2 PUSH1 0x0 NOT SWAP1 PUSH1 0x3 SHL SHR NOT AND OR PUSH1 0x7 DUP4 ADD SSTORE JUMPDEST PUSH2 0x100 DUP2 ADD MLOAD DUP1 MLOAD SWAP1 PUSH1 0x1 PUSH1 0x1 PUSH1 0x40 SHL SUB DUP3 GT PUSH2 0x957 JUMPI DUP2 SWAP1 PUSH2 0x78E DUP3 PUSH2 0x785 PUSH1 0x8 DUP9 ADD SLOAD PUSH2 0x1E58 JUMP JUMPDEST PUSH1 0x8 DUP9 ADD PUSH2 0x1FCC JUMP JUMPDEST PUSH1 0x20 SWAP1 PUSH1 0x1F DUP4 GT PUSH1 0x1 EQ PUSH2 0x9B9 JUMPI PUSH1 0x0 SWAP3 PUSH2 0x9AE JUMPI JUMPDEST POP POP DUP2 PUSH1 0x1 SHL SWAP2 PUSH1 0x0 NOT SWAP1 PUSH1 0x3 SHL SHR NOT AND OR PUSH1 0x8 DUP4 ADD SSTORE JUMPDEST PUSH2 0x120 DUP2 ADD MLOAD DUP1 MLOAD SWAP1 PUSH1 0x1 PUSH1 0x1 PUSH1 0x40 SHL SUB DUP3 GT PUSH2 0x957 JUMPI PUSH1 0x1 PUSH1 0x40 SHL DUP3 GT PUSH2 0x957 JUMPI PUSH1 0x9 DUP5 ADD SLOAD DUP3 PUSH1 0x9 DUP7 ADD SSTORE DUP1 DUP4 LT PUSH2 0x981 JUMPI JUMPDEST POP PUSH1 0x20 ADD PUSH1 0x9 DUP5 ADD PUSH1 0x0 MSTORE PUSH1 0x20 PUSH1 0x0 KECCAK256 PUSH1 0x0 JUMPDEST DUP4 DUP2 LT PUSH2 0x96D JUMPI POP POP POP POP PUSH2 0x140 DUP2 ADD MLOAD PUSH1 0xA DUP4 ADD DUP1 SLOAD PUSH2 0x160 DUP5 ADD MLOAD PUSH1 0xFF PUSH1 0xA0 SHL SWAP1 ISZERO ISZERO PUSH1 0xA0 SHL AND PUSH1 0x1 PUSH1 0x1 PUSH1 0xA0 SHL SUB SWAP1 SWAP4 AND PUSH1 0x1 PUSH1 0x1 PUSH1 0xA8 SHL SUB NOT SWAP1 SWAP2 AND OR SWAP2 SWAP1 SWAP2 OR SWAP1 SSTORE PUSH1 0xB SWAP1 PUSH2 0x180 ADD MLOAD SWAP2 ADD SSTORE PUSH1 0x40 MLOAD PUSH1 0x20 DUP2 DUP6 MLOAD PUSH2 0x86B DUP2 DUP4 DUP6 DUP11 ADD PUSH2 0x1D9F JUMP JUMPDEST DUP2 ADD PUSH1 0x3 DUP2 MSTORE SUB ADD SWAP1 KECCAK256 DUP1 SLOAD PUSH1 0x1 PUSH1 0x40 SHL DUP2 LT ISZERO PUSH2 0x957 JUMPI PUSH2 0x897 DUP2 DUP6 SWAP4 PUSH1 0x1 PUSH2 0x8AE SWAP5 ADD DUP2 SSTORE PUSH2 0x1C84 JUMP JUMPDEST DUP2 SWAP4 SWAP2 SLOAD SWAP1 PUSH1 0x3 SHL SWAP2 DUP3 SHL SWAP2 PUSH1 0x0 NOT SWAP1 SHL NOT AND OR SWAP1 JUMP JUMPDEST SWAP1 SSTORE PUSH1 0x6 SLOAD SWAP3 PUSH1 0x1 PUSH1 0x40 SHL DUP5 LT ISZERO PUSH2 0x957 JUMPI PUSH32 0xDFF62BFF3C25328F1D6C91C68180D7B2034D18A341365436A22750E3AF7C0D93 PUSH1 0x60 PUSH2 0x921 DUP6 SWAP4 DUP5 PUSH2 0x8FE PUSH2 0x897 DUP11 PUSH1 0x1 PUSH1 0x20 SWAP13 ADD PUSH1 0x6 SSTORE PUSH2 0x1C4D JUMP JUMPDEST SWAP1 SSTORE PUSH2 0x90B PUSH1 0x7 SLOAD PUSH2 0x2020 JUMP JUMPDEST PUSH1 0x7 SSTORE DUP8 PUSH1 0x40 MLOAD SWAP3 DUP3 DUP5 DUP1 SWAP5 MLOAD SWAP4 DUP5 SWAP3 ADD PUSH2 0x1D9F JUMP JUMPDEST DUP2 ADD SUB SWAP1 KECCAK256 SWAP4 PUSH1 0x40 MLOAD SWAP1 PUSH2 0x937 DUP3 PUSH1 0x24 CALLDATALOAD PUSH2 0x1DE7 JUMP JUMPDEST TIMESTAMP DUP3 DUP10 ADD MSTORE PUSH1 0x1 PUSH1 0x1 PUSH1 0xA0 SHL SUB AND PUSH1 0x40 DUP3 ADD MSTORE LOG3 PUSH1 0x1 DUP1 SSTORE PUSH1 0x40 MLOAD SWAP1 DUP2 MSTORE RETURN JUMPDEST PUSH4 0x4E487B71 PUSH1 0xE0 SHL PUSH1 0x0 MSTORE PUSH1 0x41 PUSH1 0x4 MSTORE PUSH1 0x24 PUSH1 0x0 REVERT JUMPDEST PUSH1 0x1 SWAP1 PUSH1 0x20 DUP5 MLOAD SWAP5 ADD SWAP4 DUP2 DUP5 ADD SSTORE ADD PUSH2 0x804 JUMP JUMPDEST PUSH1 0x9 DUP6 ADD PUSH1 0x0 MSTORE PUSH1 0x20 PUSH1 0x0 KECCAK256 SWAP1 DUP4 DUP3 ADD JUMPDEST DUP2 DUP4 ADD DUP2 LT PUSH2 0x9A2 JUMPI POP POP PUSH2 0x7F1 JUMP JUMPDEST PUSH1 0x0 DUP2 SSTORE PUSH1 0x1 ADD PUSH2 0x992 JUMP JUMPDEST ADD MLOAD SWAP1 POP DUP8 DUP1 PUSH2 0x7A4 JUMP JUMPDEST SWAP3 POP PUSH1 0x8 DUP6 ADD PUSH1 0x0 MSTORE PUSH1 0x20 PUSH1 0x0 KECCAK256 SWAP1 PUSH1 0x0 SWAP4 JUMPDEST PUSH1 0x1F NOT DUP5 AND DUP6 LT PUSH2 0xA10 JUMPI PUSH1 0x1 SWAP5 POP DUP4 PUSH1 0x1F NOT DUP2 AND LT PUSH2 0x9F7 JUMPI JUMPDEST POP POP POP DUP2 SHL ADD PUSH1 0x8 DUP4 ADD SSTORE PUSH2 0x7BC JUMP JUMPDEST ADD MLOAD PUSH1 0x0 NOT PUSH1 0xF8 DUP5 PUSH1 0x3 SHL AND SHR NOT AND SWAP1 SSTORE DUP8 DUP1 DUP1 PUSH2 0x9E7 JUMP JUMPDEST DUP2 DUP2 ADD MLOAD DUP4 SSTORE PUSH1 0x20 SWAP5 DUP6 ADD SWAP5 PUSH1 0x1 SWAP1 SWAP4 ADD SWAP3 SWAP1 SWAP2 ADD SWAP1 PUSH2 0x9CC JUMP JUMPDEST ADD MLOAD SWAP1 POP DUP8 DUP1 PUSH2 0x743 JUMP JUMPDEST SWAP3 POP PUSH1 0x7 DUP6 ADD PUSH1 0x0 MSTORE PUSH1 0x20 PUSH1 0x0 KECCAK256 SWAP1 PUSH1 0x0 SWAP4 JUMPDEST PUSH1 0x1F NOT DUP5 AND DUP6 LT PUSH2 0xA8D JUMPI PUSH1 0x1 SWAP5 POP DUP4 PUSH1 0x1F NOT DUP2 AND LT PUSH2 0xA74 JUMPI JUMPDEST POP POP POP DUP2 SHL ADD PUSH1 0x7 DUP4 ADD SSTORE PUSH2 0x75B JUMP JUMPDEST ADD MLOAD PUSH1 0x0 NOT PUSH1 0xF8 DUP5 PUSH1 0x3 SHL AND SHR NOT AND SWAP1 SSTORE DUP8 DUP1 DUP1 PUSH2 0xA64 JUMP JUMPDEST DUP2 DUP2 ADD MLOAD DUP4 SSTORE PUSH1 0x20 SWAP5 DUP6 ADD SWAP5 PUSH1 0x1 SWAP1 SWAP4 ADD SWAP3 SWAP1 SWAP2 ADD SWAP1 PUSH2 0xA49 JUMP JUMPDEST PUSH1 0x1 SWAP1 PUSH1 0x20 DUP5 MLOAD SWAP5 ADD SWAP4 DUP2 DUP5 ADD SSTORE ADD PUSH2 0x6F0 JUMP JUMPDEST PUSH1 0x6 DUP6 ADD PUSH1 0x0 MSTORE PUSH1 0x20 PUSH1 0x0 KECCAK256 SWAP1 DUP4 DUP3 ADD JUMPDEST DUP2 DUP4 ADD DUP2 LT PUSH2 0xADD JUMPI POP POP PUSH2 0x6DD JUMP JUMPDEST PUSH1 0x0 DUP2 SSTORE PUSH1 0x1 ADD PUSH2 0xACD JUMP JUMPDEST PUSH4 0x4E487B71 PUSH1 0xE0 SHL PUSH1 0x0 MSTORE PUSH1 0x21 PUSH1 0x4 MSTORE PUSH1 0x24 PUSH1 0x0 REVERT JUMPDEST ADD MLOAD SWAP1 POP DUP8 DUP1 PUSH2 0x64D JUMP JUMPDEST SWAP3 POP DUP5 PUSH1 0x0 MSTORE PUSH1 0x20 PUSH1 0x0 KECCAK256 SWAP1 PUSH1 0x0 SWAP4 JUMPDEST PUSH1 0x1F NOT DUP5 AND DUP6 LT PUSH2 0xB5B JUMPI PUSH1 0x1 SWAP5 POP DUP4 PUSH1 0x1F NOT DUP2 AND LT PUSH2 0xB42 JUMPI JUMPDEST POP POP POP DUP2 SHL ADD DUP3 SSTORE PUSH2 0x662 JUMP JUMPDEST ADD MLOAD PUSH1 0x0 NOT PUSH1 0xF8 DUP5 PUSH1 0x3 SHL AND SHR NOT AND SWAP1 SSTORE DUP8 DUP1 DUP1 PUSH2 0xB35 JUMP JUMPDEST DUP2 DUP2 ADD MLOAD DUP4 SSTORE PUSH1 0x20 SWAP5 DUP6 ADD SWAP5 PUSH1 0x1 SWAP1 SWAP4 ADD SWAP3 SWAP1 SWAP2 ADD SWAP1 PUSH2 0xB1A JUMP JUMPDEST PUSH4 0x4E487B71 PUSH1 0xE0 SHL PUSH1 0x0 MSTORE PUSH1 0x11 PUSH1 0x4 MSTORE PUSH1 0x24 PUSH1 0x0 REVERT JUMPDEST PUSH4 0x4E487B71 PUSH1 0xE0 SHL PUSH1 0x0 MSTORE PUSH1 0x32 PUSH1 0x4 MSTORE PUSH1 0x24 PUSH1 0x0 REVERT JUMPDEST PUSH1 0x40 MLOAD PUSH3 0x461BCD PUSH1 0xE5 SHL DUP2 MSTORE PUSH1 0x20 PUSH1 0x4 DUP3 ADD MSTORE PUSH1 0x21 PUSH1 0x24 DUP3 ADD MSTORE PUSH32 0x436572746966696361746520636861696E2063616E6E6F7420626520656D7074 PUSH1 0x44 DUP3 ADD MSTORE PUSH1 0x79 PUSH1 0xF8 SHL PUSH1 0x64 DUP3 ADD MSTORE PUSH1 0x84 SWAP1 REVERT JUMPDEST PUSH1 0x40 MLOAD PUSH3 0x461BCD PUSH1 0xE5 SHL DUP2 MSTORE PUSH1 0x20 PUSH1 0x4 DUP3 ADD MSTORE PUSH1 0x1B PUSH1 0x24 DUP3 ADD MSTORE PUSH32 0x41746F6D69632074696D6520746F6F2066617220696E20706173740000000000 PUSH1 0x44 DUP3 ADD MSTORE PUSH1 0x64 SWAP1 REVERT JUMPDEST PUSH1 0x40 MLOAD PUSH3 0x461BCD PUSH1 0xE5 SHL DUP2 MSTORE PUSH1 0x20 PUSH1 0x4 DUP3 ADD MSTORE PUSH1 0x1D PUSH1 0x24 DUP3 ADD MSTORE PUSH32 0x41746F6D69632074696D6520746F6F2066617220696E20667574757265000000 PUSH1 0x44 DUP3 ADD MSTORE PUSH1 0x64 SWAP1 REVERT JUMPDEST PUSH1 0x40 MLOAD PUSH3 0x461BCD PUSH1 0xE5 SHL DUP2 MSTORE PUSH1 0x20 PUSH1 0x4 DUP3 ADD MSTORE PUSH1 0x12 PUSH1 0x24 DUP3 ADD MSTORE PUSH18 0x139BDB98D948185B1C9958591E481D5CD959 PUSH1 0x72 SHL PUSH1 0x44 DUP3 ADD MSTORE PUSH1 0x64 SWAP1 REVERT JUMPDEST PUSH1 0x40 MLOAD PUSH3 0x461BCD PUSH1 0xE5 SHL DUP2 MSTORE PUSH1 0x20 PUSH1 0x4 DUP3 ADD MSTORE PUSH1 0x19 PUSH1 0x24 DUP3 ADD MSTORE PUSH32 0x496E76616C696420726571756573746572206164647265737300000000000000 PUSH1 0x44 DUP3 ADD MSTORE PUSH1 0x64 SWAP1 REVERT JUMPDEST PUSH1 0x40 MLOAD PUSH4 0x3EE5AEB5 PUSH1 0xE0 SHL DUP2 MSTORE PUSH1 0x4 SWAP1 REVERT JUMPDEST PUSH1 0x40 MLOAD PUSH3 0x461BCD PUSH1 0xE5 SHL DUP2 MSTORE PUSH1 0x20 PUSH1 0x4 DUP3 ADD MSTORE PUSH1 0x25 PUSH1 0x24 DUP3 ADD MSTORE PUSH32 0x4E6F7420616E20617574686F72697A65642074696D657374616D702061757468 PUSH1 0x44 DUP3 ADD MSTORE PUSH5 0x6F72697479 PUSH1 0xD8 SHL PUSH1 0x64 DUP3 ADD MSTORE PUSH1 0x84 SWAP1 REVERT JUMPDEST CALLVALUE PUSH2 0x238 JUMPI PUSH1 0x20 CALLDATASIZE PUSH1 0x3 NOT ADD SLT PUSH2 0x238 JUMPI PUSH1 0x4 CALLDATALOAD DUP1 PUSH1 0x0 MSTORE PUSH1 0x2 PUSH1 0x20 MSTORE PUSH2 0xD8F PUSH1 0x2 PUSH1 0x40 PUSH1 0x0 KECCAK256 ADD SLOAD ISZERO ISZERO PUSH2 0x202F JUMP JUMPDEST PUSH1 0x0 MSTORE PUSH1 0x2 PUSH1 0x20 MSTORE PUSH2 0xDBE PUSH2 0xDAA PUSH1 0x9 PUSH1 0x40 PUSH1 0x0 KECCAK256 ADD PUSH2 0x207B JUMP JUMPDEST PUSH1 0x40 MLOAD SWAP2 DUP3 SWAP2 PUSH1 0x20 DUP4 MSTORE PUSH1 0x20 DUP4 ADD SWAP1 PUSH2 0x1BED JUMP JUMPDEST SUB SWAP1 RETURN JUMPDEST CALLVALUE PUSH2 0x238 JUMPI PUSH1 0x20 CALLDATASIZE PUSH1 0x3 NOT ADD SLT PUSH2 0x238 JUMPI PUSH2 0xDDB PUSH2 0x1C21 JUMP JUMPDEST PUSH2 0xDE3 PUSH2 0x1F28 JUMP JUMPDEST PUSH1 0x1 PUSH1 0x1 PUSH1 0xA0 SHL SUB SWAP1 DUP2 AND SWAP1 DUP2 ISZERO PUSH2 0xE32 JUMPI PUSH1 0x0 SLOAD DUP3 PUSH1 0x1 PUSH1 0x1 PUSH1 0x60 SHL SUB PUSH1 0xA0 SHL DUP3 AND OR PUSH1 0x0 SSTORE AND PUSH32 0x8BE0079C531659141344CD1FD0A4F28419497F9722A3DAAFE3B4186F6B6457E0 PUSH1 0x0 DUP1 LOG3 STOP JUMPDEST PUSH1 0x40 MLOAD PUSH4 0x1E4FBDF7 PUSH1 0xE0 SHL DUP2 MSTORE PUSH1 0x0 PUSH1 0x4 DUP3 ADD MSTORE PUSH1 0x24 SWAP1 REVERT JUMPDEST CALLVALUE PUSH2 0x238 JUMPI PUSH1 0x20 CALLDATASIZE PUSH1 0x3 NOT ADD SLT PUSH2 0x238 JUMPI PUSH1 0x1 PUSH1 0x1 PUSH1 0xA0 SHL SUB PUSH2 0xE6C PUSH2 0x1C21 JUMP JUMPDEST AND PUSH1 0x0 MSTORE PUSH1 0x4 PUSH1 0x20 MSTORE PUSH1 0x20 PUSH1 0xFF PUSH1 0x40 PUSH1 0x0 KECCAK256 SLOAD AND PUSH1 0x40 MLOAD SWAP1 ISZERO ISZERO DUP2 MSTORE RETURN JUMPDEST CALLVALUE PUSH2 0x238 JUMPI PUSH1 0x40 CALLDATASIZE PUSH1 0x3 NOT ADD SLT PUSH2 0x238 JUMPI PUSH1 0x4 CALLDATALOAD PUSH1 0x1 PUSH1 0x1 PUSH1 0x40 SHL SUB DUP2 GT PUSH2 0x238 JUMPI PUSH2 0xEBA SWAP1 CALLDATASIZE SWAP1 PUSH1 0x4 ADD PUSH2 0x1E3A JUMP JUMPDEST PUSH2 0xED6 PUSH1 0x20 PUSH1 0x24 CALLDATALOAD SWAP3 DUP2 PUSH1 0x40 MLOAD SWAP4 DUP3 DUP6 DUP1 SWAP5 MLOAD SWAP4 DUP5 SWAP3 ADD PUSH2 0x1D9F JUMP JUMPDEST DUP2 ADD PUSH1 0x3 DUP2 MSTORE SUB ADD SWAP1 KECCAK256 DUP1 SLOAD DUP3 LT ISZERO PUSH2 0x238 JUMPI PUSH1 0x20 SWAP2 PUSH2 0xEF5 SWAP2 PUSH2 0x1C84 JUMP JUMPDEST SWAP1 SLOAD SWAP1 PUSH1 0x3 SHL SHR PUSH1 0x40 MLOAD SWAP1 DUP2 MSTORE RETURN JUMPDEST CALLVALUE PUSH2 0x238 JUMPI PUSH1 0x20 CALLDATASIZE PUSH1 0x3 NOT ADD SLT PUSH2 0x238 JUMPI PUSH1 0x4 CALLDATALOAD PUSH1 0x1 PUSH1 0x1 PUSH1 0x40 SHL SUB DUP2 GT PUSH2 0x238 JUMPI PUSH2 0xDAA PUSH2 0xF5E PUSH1 0x20 PUSH2 0xF3F PUSH2 0xDBE SWAP5 CALLDATASIZE SWAP1 PUSH1 0x4 ADD PUSH2 0x1E3A JUMP JUMPDEST PUSH2 0xF4B DUP2 MLOAD ISZERO ISZERO PUSH2 0x1F54 JUMP JUMPDEST DUP2 PUSH1 0x40 MLOAD SWAP4 DUP3 DUP6 DUP1 SWAP5 MLOAD SWAP4 DUP5 SWAP3 ADD PUSH2 0x1D9F JUMP JUMPDEST DUP2 ADD PUSH1 0x3 DUP2 MSTORE SUB ADD SWAP1 KECCAK256 PUSH2 0x207B JUMP JUMPDEST CALLVALUE PUSH2 0x238 JUMPI PUSH1 0x3 NOT PUSH1 0x60 CALLDATASIZE DUP3 ADD SLT PUSH2 0x238 JUMPI PUSH1 0x4 CALLDATALOAD PUSH1 0x1 PUSH1 0x1 PUSH1 0x40 SHL SUB DUP2 GT PUSH2 0x238 JUMPI PUSH2 0xF9E SWAP1 CALLDATASIZE SWAP1 PUSH1 0x4 ADD PUSH2 0x1E3A JUMP JUMPDEST SWAP1 PUSH1 0x24 CALLDATALOAD SWAP1 PUSH1 0x4 DUP3 LT ISZERO PUSH2 0x238 JUMPI PUSH2 0xFB4 PUSH2 0x1C37 JUMP JUMPDEST SWAP3 PUSH2 0xFC1 DUP2 MLOAD ISZERO ISZERO PUSH2 0x1F54 JUMP JUMPDEST PUSH1 0x40 MLOAD SWAP4 PUSH1 0x20 SWAP5 DUP6 DUP2 ADD SWAP1 TIMESTAMP DUP3 MSTORE PREVRANDAO PUSH1 0x40 DUP3 ADD MSTORE CALLER PUSH1 0x60 SHL PUSH1 0x60 DUP3 ADD MSTORE PUSH1 0x54 DUP2 MSTORE PUSH2 0xFEB DUP2 PUSH2 0x1CB8 JUMP JUMPDEST MLOAD SWAP1 KECCAK256 SWAP1 DUP2 PUSH1 0x0 MSTORE PUSH1 0x5 DUP7 MSTORE PUSH1 0xFF PUSH1 0x40 PUSH1 0x0 KECCAK256 SLOAD AND PUSH2 0x11B2 JUMPI PUSH1 0x40 MLOAD TIMESTAMP DUP2 DUP9 ADD MSTORE DUP7 DUP2 MSTORE DUP7 SWAP5 SWAP4 SWAP3 SWAP2 PUSH2 0x101D DUP3 PUSH2 0x1CD3 JUMP JUMPDEST PUSH1 0x40 MLOAD SWAP5 PUSH2 0x102A DUP7 PUSH2 0x1CB8 JUMP JUMPDEST TIMESTAMP DUP7 MSTORE PUSH1 0x40 MLOAD SWAP8 PUSH2 0x103A DUP10 PUSH2 0x1CD3 JUMP JUMPDEST PUSH1 0x8 DUP10 MSTORE DUP8 DUP10 ADD PUSH8 0x1A5B9D195C9B985B PUSH1 0xC2 SHL SWAP1 MSTORE DUP8 DUP8 ADD SWAP9 DUP10 MSTORE PUSH1 0x40 DUP8 ADD SWAP4 DUP5 MSTORE PUSH1 0x60 DUP8 ADD SWAP3 CALLER DUP5 MSTORE PUSH1 0x40 MLOAD SWAP5 PUSH2 0x1071 DUP7 PUSH2 0x1CD3 JUMP JUMPDEST PUSH1 0x1 DUP7 MSTORE DUP10 CALLDATASIZE DUP2 DUP9 ADD CALLDATACOPY PUSH1 0x40 MLOAD DUP11 DUP2 ADD SWAP1 PUSH20 0x696E7465726E616C5F6365727469666963617465 PUSH1 0x60 SHL DUP3 MSTORE TIMESTAMP PUSH1 0x34 DUP3 ADD MSTORE PUSH1 0x34 DUP2 MSTORE PUSH2 0x10AF DUP2 PUSH2 0x1CEE JUMP JUMPDEST MLOAD SWAP1 KECCAK256 PUSH2 0x10BB DUP8 PUSH2 0x1F9F JUMP JUMPDEST MSTORE PUSH1 0x40 MLOAD PUSH4 0xF7580AB9 PUSH1 0xE0 SHL DUP2 MSTORE PUSH1 0xC0 PUSH1 0x4 DUP3 ADD MSTORE SWAP11 DUP12 SWAP10 DUP11 SWAP10 PUSH2 0x10E3 SWAP1 PUSH1 0xC4 DUP13 ADD SWAP1 PUSH2 0x1DC2 JUMP JUMPDEST SWAP5 PUSH1 0x24 DUP12 ADD PUSH2 0x10F1 SWAP2 PUSH2 0x1DE7 JUMP JUMPDEST PUSH1 0x1 PUSH1 0x1 PUSH1 0xA0 SHL SUB SWAP4 DUP5 AND PUSH1 0x44 DUP12 ADD MSTORE DUP10 DUP6 SUB DUP7 ADD PUSH1 0x64 DUP12 ADD MSTORE MLOAD DUP5 MSTORE MLOAD PUSH1 0x80 DUP12 DUP6 ADD DUP2 SWAP1 MSTORE PUSH2 0x1124 SWAP2 SWAP1 DUP6 ADD SWAP1 PUSH2 0x1DC2 JUMP JUMPDEST SWAP1 MLOAD SWAP1 DUP4 DUP2 SUB PUSH1 0x40 DUP6 ADD MSTORE PUSH2 0x1138 SWAP2 PUSH2 0x1DC2 JUMP JUMPDEST SWAP4 MLOAD AND SWAP1 PUSH1 0x60 ADD MSTORE DUP5 DUP3 SUB ADD PUSH1 0x84 DUP6 ADD MSTORE PUSH2 0x1152 SWAP2 PUSH2 0x1BED JUMP JUMPDEST SWAP1 PUSH1 0xA4 DUP4 ADD MSTORE SUB DUP2 ADDRESS GAS SWAP1 PUSH1 0x0 SWAP2 CALL SWAP1 DUP2 ISZERO PUSH2 0x11A6 JUMPI PUSH1 0x0 SWAP2 PUSH2 0x1179 JUMPI JUMPDEST POP PUSH1 0x40 MLOAD SWAP1 DUP2 MSTORE RETURN JUMPDEST SWAP1 POP DUP2 DUP2 DUP2 RETURNDATASIZE DUP4 GT PUSH2 0x119F JUMPI JUMPDEST PUSH2 0x1190 DUP2 DUP4 PUSH2 0x1D09 JUMP JUMPDEST DUP2 ADD SUB SLT PUSH2 0x238 JUMPI MLOAD DUP3 PUSH2 0x1170 JUMP JUMPDEST POP RETURNDATASIZE PUSH2 0x1186 JUMP JUMPDEST PUSH1 0x40 MLOAD RETURNDATASIZE PUSH1 0x0 DUP3 RETURNDATACOPY RETURNDATASIZE SWAP1 REVERT JUMPDEST PUSH1 0x40 MLOAD PUSH3 0x461BCD PUSH1 0xE5 SHL DUP2 MSTORE PUSH1 0x4 DUP2 ADD DUP8 SWAP1 MSTORE PUSH1 0xF PUSH1 0x24 DUP3 ADD MSTORE PUSH15 0x2737B731B29031B7B63634B9B4B7B7 PUSH1 0x89 SHL PUSH1 0x44 DUP3 ADD MSTORE PUSH1 0x64 SWAP1 REVERT JUMPDEST CALLVALUE PUSH2 0x238 JUMPI PUSH1 0x20 CALLDATASIZE PUSH1 0x3 NOT ADD SLT PUSH2 0x238 JUMPI PUSH1 0x4 CALLDATALOAD DUP1 PUSH1 0x0 MSTORE PUSH1 0x2 PUSH1 0x20 MSTORE PUSH2 0x1219 PUSH1 0x2 PUSH1 0x40 PUSH1 0x0 KECCAK256 ADD SLOAD ISZERO ISZERO PUSH2 0x202F JUMP JUMPDEST PUSH1 0x0 MSTORE PUSH1 0x2 PUSH1 0x20 MSTORE PUSH1 0x40 PUSH1 0x0 KECCAK256 PUSH1 0x40 MLOAD PUSH2 0x1232 DUP2 PUSH2 0x1C9C JUMP JUMPDEST PUSH1 0x40 MLOAD PUSH2 0x124A DUP2 PUSH2 0x1243 DUP2 DUP7 PUSH2 0x1E92 JUMP JUMPDEST SUB DUP3 PUSH2 0x1D09 JUMP JUMPDEST DUP2 MSTORE PUSH1 0xFF PUSH1 0x1 DUP4 ADD SLOAD AND SWAP2 PUSH2 0x1263 PUSH1 0x20 DUP4 ADD SWAP4 DUP5 PUSH2 0x1FC0 JUMP JUMPDEST PUSH1 0x2 DUP2 ADD SLOAD SWAP1 PUSH1 0x40 DUP4 ADD SWAP2 DUP3 MSTORE PUSH1 0x3 DUP2 ADD SLOAD SWAP1 PUSH1 0x60 DUP5 ADD SWAP2 DUP3 MSTORE PUSH1 0x4 DUP2 ADD SLOAD SWAP4 PUSH1 0x80 DUP2 ADD SWAP5 DUP6 MSTORE PUSH1 0x5 DUP3 ADD SLOAD PUSH1 0xA0 DUP3 ADD MSTORE PUSH2 0x12A0 PUSH1 0x6 DUP4 ADD PUSH2 0x207B JUMP JUMPDEST PUSH1 0xC0 DUP3 ADD MSTORE PUSH1 0x40 MLOAD PUSH2 0x12B9 DUP2 PUSH2 0x1243 DUP2 PUSH1 0x7 DUP8 ADD PUSH2 0x1E92 JUMP JUMPDEST PUSH1 0xE0 DUP3 ADD MSTORE PUSH1 0x40 MLOAD SWAP4 PUSH2 0x12DA DUP6 PUSH2 0x12D3 DUP2 PUSH1 0x8 DUP8 ADD PUSH2 0x1E92 JUMP JUMPDEST SUB DUP7 PUSH2 0x1D09 JUMP JUMPDEST PUSH2 0x100 SWAP3 DUP4 DUP4 ADD SWAP6 DUP7 MSTORE PUSH2 0x12F0 PUSH1 0x9 DUP3 ADD PUSH2 0x207B JUMP JUMPDEST SWAP7 PUSH2 0x120 SWAP8 DUP9 DUP6 ADD MSTORE PUSH1 0xA DUP3 ADD SLOAD SWAP7 PUSH2 0x140 DUP6 ADD SWAP2 PUSH1 0xB PUSH1 0x1 DUP1 PUSH1 0xA0 SHL SUB SWAP5 DUP6 DUP12 AND DUP6 MSTORE PUSH1 0xFF PUSH2 0x160 DUP10 ADD SWAP12 PUSH1 0xA0 SHR AND ISZERO ISZERO DUP12 MSTORE ADD SLOAD SWAP6 PUSH2 0x180 DUP2 ADD SWAP7 DUP8 MSTORE MLOAD SWAP11 MLOAD SWAP4 PUSH1 0x4 DUP6 LT ISZERO PUSH2 0xAE9 JUMPI PUSH2 0x1390 SWAP6 MLOAD SWAP9 MLOAD SWAP2 MLOAD SWAP3 MLOAD SWAP4 MLOAD AND SWAP9 MLOAD ISZERO ISZERO SWAP6 MLOAD SWAP8 PUSH2 0x1374 PUSH2 0x1369 PUSH1 0x40 MLOAD SWAP14 DUP14 DUP16 SWAP15 DUP16 SWAP1 DUP2 MSTORE ADD SWAP1 PUSH2 0x1DC2 JUMP JUMPDEST SWAP6 PUSH1 0x20 DUP14 ADD SWAP1 PUSH2 0x1DE7 JUMP JUMPDEST PUSH1 0x40 DUP12 ADD MSTORE PUSH1 0x60 DUP11 ADD MSTORE PUSH1 0x80 DUP10 ADD MSTORE DUP8 DUP3 SUB PUSH1 0xA0 DUP10 ADD MSTORE PUSH2 0x1DC2 JUMP JUMPDEST SWAP4 PUSH1 0xC0 DUP7 ADD MSTORE PUSH1 0xE0 DUP6 ADD MSTORE DUP4 ADD MSTORE SUB SWAP1 RETURN JUMPDEST CALLVALUE PUSH2 0x238 JUMPI PUSH1 0x0 CALLDATASIZE PUSH1 0x3 NOT ADD SLT PUSH2 0x238 JUMPI PUSH1 0x20 PUSH1 0x7 SLOAD PUSH1 0x40 MLOAD SWAP1 DUP2 MSTORE RETURN JUMPDEST CALLVALUE PUSH2 0x238 JUMPI PUSH1 0x40 CALLDATASIZE PUSH1 0x3 NOT ADD SLT PUSH2 0x238 JUMPI PUSH1 0x4 CALLDATALOAD PUSH1 0x6 SLOAD DUP1 DUP3 LT ISZERO PUSH2 0x1486 JUMPI PUSH1 0x24 CALLDATALOAD DUP3 ADD SWAP1 DUP2 DUP4 GT PUSH2 0xB76 JUMPI DUP1 DUP3 GT PUSH2 0x147E JUMPI JUMPDEST POP PUSH2 0x13FF DUP3 DUP3 PUSH2 0x1F92 JUMP JUMPDEST SWAP2 PUSH2 0x1409 DUP4 PUSH2 0x1D2A JUMP JUMPDEST SWAP3 PUSH2 0x1417 PUSH1 0x40 MLOAD SWAP5 DUP6 PUSH2 0x1D09 JUMP JUMPDEST DUP1 DUP5 MSTORE PUSH2 0x1426 PUSH1 0x1F NOT SWAP2 PUSH2 0x1D2A JUMP JUMPDEST ADD CALLDATASIZE PUSH1 0x20 DUP6 ADD CALLDATACOPY DUP1 JUMPDEST DUP3 DUP2 LT PUSH2 0x144C JUMPI PUSH1 0x40 MLOAD PUSH1 0x20 DUP1 DUP3 MSTORE DUP2 SWAP1 PUSH2 0xDBE SWAP1 DUP3 ADD DUP8 PUSH2 0x1BED JUMP JUMPDEST DUP1 PUSH2 0x1459 PUSH2 0x1479 SWAP3 PUSH2 0x1C4D JUMP JUMPDEST SWAP1 SLOAD SWAP1 PUSH1 0x3 SHL SHR PUSH2 0x1473 PUSH2 0x146D DUP6 DUP5 PUSH2 0x1F92 JUMP JUMPDEST DUP8 PUSH2 0x1FAC JUMP JUMPDEST MSTORE PUSH2 0x2020 JUMP JUMPDEST PUSH2 0x142F JUMP JUMPDEST SWAP1 POP DUP3 PUSH2 0x13F4 JUMP JUMPDEST PUSH1 0x40 MLOAD PUSH3 0x461BCD PUSH1 0xE5 SHL DUP2 MSTORE PUSH1 0x20 PUSH1 0x4 DUP3 ADD MSTORE PUSH1 0x14 PUSH1 0x24 DUP3 ADD MSTORE PUSH20 0x4F6666736574206F7574206F6620626F756E6473 PUSH1 0x60 SHL PUSH1 0x44 DUP3 ADD MSTORE PUSH1 0x64 SWAP1 REVERT JUMPDEST CALLVALUE PUSH2 0x238 JUMPI PUSH1 0x0 CALLDATASIZE PUSH1 0x3 NOT ADD SLT PUSH2 0x238 JUMPI PUSH1 0x0 SLOAD PUSH1 0x40 MLOAD PUSH1 0x1 PUSH1 0x1 PUSH1 0xA0 SHL SUB SWAP1 SWAP2 AND DUP2 MSTORE PUSH1 0x20 SWAP1 RETURN JUMPDEST CALLVALUE PUSH2 0x238 JUMPI PUSH1 0x20 CALLDATASIZE PUSH1 0x3 NOT ADD SLT PUSH2 0x238 JUMPI PUSH1 0x20 PUSH1 0x4 CALLDATALOAD DUP1 PUSH1 0x0 MSTORE PUSH1 0x2 DUP3 MSTORE PUSH2 0x151C PUSH1 0x2 PUSH1 0x40 PUSH1 0x0 KECCAK256 ADD SLOAD ISZERO ISZERO PUSH2 0x202F JUMP JUMPDEST DUP1 PUSH1 0x0 MSTORE PUSH1 0x2 DUP3 MSTORE PUSH1 0x40 PUSH1 0x0 KECCAK256 SWAP1 PUSH1 0x4 DUP3 ADD SLOAD SWAP2 DUP3 ISZERO ISZERO SWAP3 DUP4 PUSH2 0x15E5 JUMPI JUMPDEST POP PUSH1 0x6 DUP2 ADD SLOAD ISZERO ISZERO PUSH2 0x154F PUSH1 0x7 DUP4 ADD SLOAD PUSH2 0x1E58 JUMP JUMPDEST ISZERO ISZERO PUSH1 0x9 DUP4 ADD SLOAD ISZERO ISZERO SWAP2 DUP6 PUSH2 0x15DD JUMPI JUMPDEST POP DUP5 PUSH2 0x15D5 JUMPI JUMPDEST POP DUP4 PUSH2 0x15CB JUMPI JUMPDEST POP PUSH1 0xA ADD DUP1 SLOAD PUSH1 0xFF PUSH1 0xA0 SHL NOT AND DUP4 ISZERO ISZERO PUSH1 0xA0 SHL PUSH1 0xFF PUSH1 0xA0 SHL AND OR SWAP1 SSTORE JUMPDEST PUSH32 0xBF00953AD8FFC27546AF9D2685D2CF1612D4427E80AE49D5DC8A7B74D1F33A04 PUSH1 0x60 PUSH1 0x40 MLOAD SWAP4 ISZERO ISZERO SWAP4 DUP5 DUP2 MSTORE TIMESTAMP DUP7 DUP3 ADD MSTORE CALLER PUSH1 0x40 DUP3 ADD MSTORE LOG2 PUSH1 0x40 MLOAD SWAP1 DUP2 MSTORE RETURN JUMPDEST SWAP3 POP PUSH2 0x158A PUSH2 0x156D JUMP JUMPDEST SWAP4 POP DUP6 PUSH2 0x1566 JUMP JUMPDEST SWAP5 POP DUP7 PUSH2 0x155F JUMP JUMPDEST NUMBER LT ISZERO SWAP3 POP DUP5 PUSH2 0x153A JUMP JUMPDEST CALLVALUE PUSH2 0x238 JUMPI PUSH1 0x0 CALLDATASIZE PUSH1 0x3 NOT ADD SLT PUSH2 0x238 JUMPI PUSH2 0x1609 PUSH2 0x1F28 JUMP JUMPDEST PUSH1 0x0 DUP1 SLOAD PUSH1 0x1 PUSH1 0x1 PUSH1 0xA0 SHL SUB NOT DUP2 AND DUP3 SSTORE PUSH1 0x1 PUSH1 0x1 PUSH1 0xA0 SHL SUB AND PUSH32 0x8BE0079C531659141344CD1FD0A4F28419497F9722A3DAAFE3B4186F6B6457E0 DUP3 DUP1 LOG3 STOP JUMPDEST CALLVALUE PUSH2 0x238 JUMPI PUSH1 0x20 DUP1 PUSH1 0x3 NOT CALLDATASIZE ADD SLT PUSH2 0x238 JUMPI PUSH1 0x4 CALLDATALOAD PUSH1 0x1 PUSH1 0x1 PUSH1 0x40 SHL SUB DUP2 GT PUSH2 0x238 JUMPI PUSH2 0x167A SWAP1 CALLDATASIZE SWAP1 PUSH1 0x4 ADD PUSH2 0x1D41 JUMP JUMPDEST DUP1 MLOAD PUSH2 0x1685 DUP2 PUSH2 0x1D2A JUMP JUMPDEST SWAP1 PUSH2 0x1693 PUSH1 0x40 MLOAD SWAP3 DUP4 PUSH2 0x1D09 JUMP JUMPDEST DUP1 DUP3 MSTORE PUSH2 0x169F DUP2 PUSH2 0x1D2A JUMP JUMPDEST DUP3 DUP6 ADD SWAP4 SWAP1 PUSH1 0x1F NOT ADD CALLDATASIZE DUP6 CALLDATACOPY PUSH1 0x0 JUMPDEST DUP3 DUP2 LT PUSH2 0x16FB JUMPI POP POP POP SWAP1 PUSH1 0x40 MLOAD SWAP3 DUP4 SWAP3 DUP2 DUP5 ADD SWAP1 DUP3 DUP6 MSTORE MLOAD DUP1 SWAP2 MSTORE PUSH1 0x40 DUP5 ADD SWAP3 SWAP2 PUSH1 0x0 JUMPDEST DUP3 DUP2 LT PUSH2 0x16E2 JUMPI POP POP POP POP SUB SWAP1 RETURN JUMPDEST DUP4 MLOAD ISZERO ISZERO DUP6 MSTORE DUP7 SWAP6 POP SWAP4 DUP2 ADD SWAP4 SWAP3 DUP2 ADD SWAP3 PUSH1 0x1 ADD PUSH2 0x16D3 JUMP JUMPDEST PUSH2 0x1705 DUP2 DUP4 PUSH2 0x1FAC JUMP JUMPDEST MLOAD PUSH1 0x0 MSTORE PUSH1 0x2 DUP1 DUP8 MSTORE PUSH1 0x40 PUSH1 0x0 KECCAK256 ADD SLOAD ISZERO ISZERO PUSH1 0x0 EQ PUSH2 0x17AD JUMPI PUSH2 0x1728 DUP2 DUP4 PUSH2 0x1FAC JUMP JUMPDEST MLOAD SWAP1 PUSH1 0x40 MLOAD SWAP2 PUSH4 0x104F9385 PUSH1 0xE3 SHL DUP4 MSTORE PUSH1 0x4 DUP4 ADD MSTORE DUP7 DUP3 PUSH1 0x24 DUP2 PUSH1 0x0 ADDRESS GAS CALL DUP1 ISZERO PUSH2 0x11A6 JUMPI PUSH1 0x0 SWAP1 PUSH2 0x1773 JUMPI JUMPDEST PUSH2 0x176E SWAP3 POP PUSH2 0x1764 DUP3 DUP8 PUSH2 0x1FAC JUMP JUMPDEST SWAP1 ISZERO ISZERO SWAP1 MSTORE PUSH2 0x2020 JUMP JUMPDEST PUSH2 0x16AE JUMP JUMPDEST POP SWAP1 DUP7 DUP2 DUP2 RETURNDATASIZE DUP4 GT PUSH2 0x17A6 JUMPI JUMPDEST PUSH2 0x178A DUP2 DUP4 PUSH2 0x1D09 JUMP JUMPDEST DUP2 ADD SUB SLT PUSH2 0x238 JUMPI MLOAD SWAP1 DUP2 ISZERO ISZERO DUP3 SUB PUSH2 0x238 JUMPI PUSH2 0x176E SWAP2 PUSH2 0x1755 JUMP JUMPDEST POP RETURNDATASIZE PUSH2 0x1780 JUMP JUMPDEST DUP1 PUSH1 0x0 PUSH2 0x1473 PUSH2 0x176E SWAP4 DUP8 PUSH2 0x1FAC JUMP JUMPDEST CALLVALUE PUSH2 0x238 JUMPI PUSH1 0x20 CALLDATASIZE PUSH1 0x3 NOT ADD SLT PUSH2 0x238 JUMPI PUSH1 0x4 CALLDATALOAD DUP1 PUSH1 0x0 MSTORE PUSH1 0x2 PUSH1 0x20 MSTORE PUSH2 0x17ED PUSH1 0x2 PUSH1 0x40 PUSH1 0x0 KECCAK256 ADD SLOAD ISZERO ISZERO PUSH2 0x202F JUMP JUMPDEST PUSH1 0x0 MSTORE PUSH1 0x2 PUSH1 0x20 MSTORE PUSH1 0x80 PUSH1 0x40 PUSH1 0x0 KECCAK256 PUSH1 0x40 MLOAD PUSH2 0x1808 DUP2 PUSH2 0x1C9C JUMP JUMPDEST PUSH1 0x40 MLOAD PUSH2 0x1819 DUP2 PUSH2 0x1243 DUP2 DUP7 PUSH2 0x1E92 JUMP JUMPDEST DUP2 MSTORE PUSH2 0x182F PUSH1 0xFF PUSH1 0x1 DUP5 ADD SLOAD AND PUSH1 0x20 DUP4 ADD PUSH2 0x1FC0 JUMP JUMPDEST PUSH1 0x2 DUP3 ADD SLOAD PUSH1 0x40 DUP3 ADD MSTORE PUSH1 0x3 DUP3 ADD SLOAD PUSH1 0x60 DUP3 ADD MSTORE PUSH1 0x4 DUP3 ADD SLOAD DUP4 DUP3 ADD SWAP1 DUP2 MSTORE PUSH1 0x5 DUP4 ADD SLOAD PUSH1 0xA0 DUP4 ADD MSTORE PUSH2 0x1864 PUSH1 0x6 DUP5 ADD PUSH2 0x207B JUMP JUMPDEST SWAP1 PUSH1 0xC0 DUP4 ADD SWAP2 DUP3 MSTORE PUSH1 0x40 MLOAD SWAP3 PUSH2 0x1888 DUP5 PUSH2 0x1881 DUP2 PUSH1 0x7 DUP10 ADD PUSH2 0x1E92 JUMP JUMPDEST SUB DUP6 PUSH2 0x1D09 JUMP JUMPDEST PUSH1 0xE0 DUP2 ADD SWAP4 DUP5 MSTORE PUSH1 0x40 MLOAD PUSH2 0x18A3 DUP2 PUSH2 0x1243 DUP2 PUSH1 0x8 DUP11 ADD PUSH2 0x1E92 JUMP JUMPDEST PUSH2 0x100 DUP3 ADD MSTORE PUSH2 0x18B5 PUSH1 0x9 DUP7 ADD PUSH2 0x207B JUMP JUMPDEST PUSH2 0x120 DUP3 ADD MSTORE PUSH2 0x180 PUSH1 0xB PUSH1 0xFF PUSH1 0xA DUP9 ADD SLOAD PUSH1 0x1 DUP1 PUSH1 0xA0 SHL SUB DUP2 AND PUSH2 0x140 DUP7 ADD MSTORE PUSH1 0xA0 SHR AND ISZERO ISZERO SWAP7 DUP8 PUSH2 0x160 DUP6 ADD MSTORE ADD SLOAD SWAP2 ADD MSTORE MLOAD SWAP2 DUP3 ISZERO ISZERO SWAP3 DUP4 PUSH2 0x1919 JUMPI JUMPDEST POP MLOAD MLOAD ISZERO ISZERO SWAP1 MLOAD MLOAD ISZERO ISZERO SWAP2 PUSH1 0x40 MLOAD SWAP4 DUP5 MSTORE ISZERO ISZERO PUSH1 0x20 DUP5 ADD MSTORE PUSH1 0x40 DUP4 ADD MSTORE PUSH1 0x60 DUP3 ADD MSTORE RETURN JUMPDEST NUMBER LT ISZERO SWAP3 POP DUP6 PUSH2 0x18F5 JUMP JUMPDEST CALLVALUE PUSH2 0x238 JUMPI PUSH1 0x20 CALLDATASIZE PUSH1 0x3 NOT ADD SLT PUSH2 0x238 JUMPI PUSH1 0x4 CALLDATALOAD PUSH1 0x6 SLOAD DUP2 LT ISZERO PUSH2 0x238 JUMPI PUSH2 0x194D PUSH1 0x20 SWAP2 PUSH2 0x1C4D JUMP JUMPDEST SWAP1 SLOAD PUSH1 0x40 MLOAD SWAP2 PUSH1 0x3 SHL SHR DUP2 MSTORE RETURN JUMPDEST CALLVALUE PUSH2 0x238 JUMPI PUSH1 0x20 DUP1 PUSH1 0x3 NOT CALLDATASIZE ADD SLT PUSH2 0x238 JUMPI PUSH2 0x1975 PUSH2 0x1C21 JUMP JUMPDEST SWAP1 PUSH2 0x197E PUSH2 0x1F28 JUMP JUMPDEST PUSH1 0x1 PUSH1 0x1 PUSH1 0xA0 SHL SUB SWAP2 DUP3 AND PUSH1 0x0 DUP2 DUP2 MSTORE PUSH1 0x4 DUP4 MSTORE PUSH1 0x40 SWAP1 KECCAK256 SLOAD SWAP1 SWAP3 SWAP1 PUSH1 0xFF AND ISZERO PUSH2 0x1A30 JUMPI PUSH1 0x0 SLOAD AND DUP3 EQ PUSH2 0x19EC JUMPI PUSH32 0x537CA1ECD9F203B969C83498D924B6FA540225ACD427E790F71EC71DF76C9BCB SWAP1 DUP3 PUSH1 0x0 MSTORE PUSH1 0x4 DUP2 MSTORE PUSH1 0x40 PUSH1 0x0 KECCAK256 PUSH1 0xFF NOT DUP2 SLOAD AND SWAP1 SSTORE PUSH1 0x40 MLOAD TIMESTAMP DUP2 MSTORE LOG2 STOP JUMPDEST PUSH1 0x64 SWAP1 PUSH1 0x40 MLOAD SWAP1 PUSH3 0x461BCD PUSH1 0xE5 SHL DUP3 MSTORE PUSH1 0x4 DUP3 ADD MSTORE PUSH1 0x1C PUSH1 0x24 DUP3 ADD MSTORE PUSH32 0x43616E6E6F742072656D6F766520636F6E7472616374206F776E657200000000 PUSH1 0x44 DUP3 ADD MSTORE REVERT JUMPDEST PUSH1 0x40 MLOAD PUSH3 0x461BCD PUSH1 0xE5 SHL DUP2 MSTORE PUSH1 0x4 DUP2 ADD DUP4 SWAP1 MSTORE PUSH1 0x18 PUSH1 0x24 DUP3 ADD MSTORE PUSH32 0x417574686F72697479206E6F7420617574686F72697A65640000000000000000 PUSH1 0x44 DUP3 ADD MSTORE PUSH1 0x64 SWAP1 REVERT JUMPDEST CALLVALUE PUSH2 0x238 JUMPI PUSH1 0x20 DUP1 PUSH1 0x3 NOT CALLDATASIZE ADD SLT PUSH2 0x238 JUMPI PUSH2 0x1A8F PUSH2 0x1C21 JUMP JUMPDEST PUSH2 0x1A97 PUSH2 0x1F28 JUMP JUMPDEST PUSH1 0x1 PUSH1 0x1 PUSH1 0xA0 SHL SUB AND SWAP1 DUP2 ISZERO PUSH2 0x1B43 JUMPI DUP2 PUSH1 0x0 MSTORE PUSH1 0x4 DUP2 MSTORE PUSH1 0xFF PUSH1 0x40 PUSH1 0x0 KECCAK256 SLOAD AND PUSH2 0x1AFF JUMPI PUSH32 0x81328CFD1779B05EA74063F5E6902FDDFB964DD84C5EEB288F6DB6786EECDA12 SWAP1 DUP3 PUSH1 0x0 MSTORE PUSH1 0x4 DUP2 MSTORE PUSH1 0x40 PUSH1 0x0 KECCAK256 PUSH1 0x1 PUSH1 0xFF NOT DUP3 SLOAD AND OR SWAP1 SSTORE PUSH1 0x40 MLOAD TIMESTAMP DUP2 MSTORE LOG2 STOP JUMPDEST PUSH1 0x64 SWAP1 PUSH1 0x40 MLOAD SWAP1 PUSH3 0x461BCD PUSH1 0xE5 SHL DUP3 MSTORE PUSH1 0x4 DUP3 ADD MSTORE PUSH1 0x1C PUSH1 0x24 DUP3 ADD MSTORE PUSH32 0x417574686F7269747920616C726561647920617574686F72697A656400000000 PUSH1 0x44 DUP3 ADD MSTORE REVERT JUMPDEST PUSH1 0x64 SWAP1 PUSH1 0x40 MLOAD SWAP1 PUSH3 0x461BCD PUSH1 0xE5 SHL DUP3 MSTORE PUSH1 0x4 DUP3 ADD MSTORE PUSH1 0x19 PUSH1 0x24 DUP3 ADD MSTORE PUSH32 0x496E76616C696420617574686F72697479206164647265737300000000000000 PUSH1 0x44 DUP3 ADD MSTORE REVERT JUMPDEST CALLVALUE PUSH2 0x238 JUMPI PUSH1 0x20 CALLDATASIZE PUSH1 0x3 NOT ADD SLT PUSH2 0x238 JUMPI PUSH1 0x4 CALLDATALOAD DUP1 PUSH1 0x0 MSTORE PUSH1 0x2 PUSH1 0x20 MSTORE PUSH2 0x1BB7 PUSH1 0x2 PUSH1 0x40 PUSH1 0x0 KECCAK256 ADD SLOAD ISZERO ISZERO PUSH2 0x202F JUMP JUMPDEST PUSH1 0x0 MSTORE PUSH1 0x2 PUSH1 0x20 MSTORE PUSH2 0xDBE PUSH2 0xDAA PUSH1 0x6 PUSH1 0x40 PUSH1 0x0 KECCAK256 ADD PUSH2 0x207B JUMP JUMPDEST CALLVALUE PUSH2 0x238 JUMPI PUSH1 0x0 CALLDATASIZE PUSH1 0x3 NOT ADD SLT PUSH2 0x238 JUMPI PUSH1 0x20 SWAP1 PUSH1 0x7 SLOAD DUP2 MSTORE RETURN JUMPDEST SWAP1 DUP2 MLOAD DUP1 DUP3 MSTORE PUSH1 0x20 DUP1 DUP1 SWAP4 ADD SWAP4 ADD SWAP2 PUSH1 0x0 JUMPDEST DUP3 DUP2 LT PUSH2 0x1C0D JUMPI POP POP POP POP SWAP1 JUMP JUMPDEST DUP4 MLOAD DUP6 MSTORE SWAP4 DUP2 ADD SWAP4 SWAP3 DUP2 ADD SWAP3 PUSH1 0x1 ADD PUSH2 0x1BFF JUMP JUMPDEST PUSH1 0x4 CALLDATALOAD SWAP1 PUSH1 0x1 PUSH1 0x1 PUSH1 0xA0 SHL SUB DUP3 AND DUP3 SUB PUSH2 0x238 JUMPI JUMP JUMPDEST PUSH1 0x44 CALLDATALOAD SWAP1 PUSH1 0x1 PUSH1 0x1 PUSH1 0xA0 SHL SUB DUP3 AND DUP3 SUB PUSH2 0x238 JUMPI JUMP JUMPDEST PUSH1 0x6 SLOAD DUP2 LT ISZERO PUSH2 0xB8C JUMPI PUSH1 0x6 PUSH1 0x0 MSTORE PUSH32 0xF652222313E28459528D920B65115C16C04F3EFC82AAEDC97BE59F3F377C0D3F ADD SWAP1 PUSH1 0x0 SWAP1 JUMP JUMPDEST DUP1 SLOAD DUP3 LT ISZERO PUSH2 0xB8C JUMPI PUSH1 0x0 MSTORE PUSH1 0x20 PUSH1 0x0 KECCAK256 ADD SWAP1 PUSH1 0x0 SWAP1 JUMP JUMPDEST PUSH2 0x1A0 DUP2 ADD SWAP1 DUP2 LT PUSH1 0x1 PUSH1 0x1 PUSH1 0x40 SHL SUB DUP3 GT OR PUSH2 0x957 JUMPI PUSH1 0x40 MSTORE JUMP JUMPDEST PUSH1 0x80 DUP2 ADD SWAP1 DUP2 LT PUSH1 0x1 PUSH1 0x1 PUSH1 0x40 SHL SUB DUP3 GT OR PUSH2 0x957 JUMPI PUSH1 0x40 MSTORE JUMP JUMPDEST PUSH1 0x40 DUP2 ADD SWAP1 DUP2 LT PUSH1 0x1 PUSH1 0x1 PUSH1 0x40 SHL SUB DUP3 GT OR PUSH2 0x957 JUMPI PUSH1 0x40 MSTORE JUMP JUMPDEST PUSH1 0x60 DUP2 ADD SWAP1 DUP2 LT PUSH1 0x1 PUSH1 0x1 PUSH1 0x40 SHL SUB DUP3 GT OR PUSH2 0x957 JUMPI PUSH1 0x40 MSTORE JUMP JUMPDEST SWAP1 PUSH1 0x1F DUP1 NOT SWAP2 ADD AND DUP2 ADD SWAP1 DUP2 LT PUSH1 0x1 PUSH1 0x1 PUSH1 0x40 SHL SUB DUP3 GT OR PUSH2 0x957 JUMPI PUSH1 0x40 MSTORE JUMP JUMPDEST PUSH1 0x1 PUSH1 0x1 PUSH1 0x40 SHL SUB DUP2 GT PUSH2 0x957 JUMPI PUSH1 0x5 SHL PUSH1 0x20 ADD SWAP1 JUMP JUMPDEST DUP2 PUSH1 0x1F DUP3 ADD SLT ISZERO PUSH2 0x238 JUMPI DUP1 CALLDATALOAD SWAP2 PUSH2 0x1D58 DUP4 PUSH2 0x1D2A JUMP JUMPDEST SWAP3 PUSH2 0x1D66 PUSH1 0x40 MLOAD SWAP5 DUP6 PUSH2 0x1D09 JUMP JUMPDEST DUP1 DUP5 MSTORE PUSH1 0x20 SWAP3 DUP4 DUP1 DUP7 ADD SWAP3 PUSH1 0x5 SHL DUP3 ADD ADD SWAP3 DUP4 GT PUSH2 0x238 JUMPI DUP4 ADD SWAP1 JUMPDEST DUP3 DUP3 LT PUSH2 0x1D90 JUMPI POP POP POP POP SWAP1 JUMP JUMPDEST DUP2 CALLDATALOAD DUP2 MSTORE SWAP1 DUP4 ADD SWAP1 DUP4 ADD PUSH2 0x1D82 JUMP JUMPDEST PUSH1 0x0 JUMPDEST DUP4 DUP2 LT PUSH2 0x1DB2 JUMPI POP POP PUSH1 0x0 SWAP2 ADD MSTORE JUMP JUMPDEST DUP2 DUP2 ADD MLOAD DUP4 DUP3 ADD MSTORE PUSH1 0x20 ADD PUSH2 0x1DA2 JUMP JUMPDEST SWAP1 PUSH1 0x20 SWAP2 PUSH2 0x1DDB DUP2 MLOAD DUP1 SWAP3 DUP2 DUP6 MSTORE DUP6 DUP1 DUP7 ADD SWAP2 ADD PUSH2 0x1D9F JUMP JUMPDEST PUSH1 0x1F ADD PUSH1 0x1F NOT AND ADD ADD SWAP1 JUMP JUMPDEST SWAP1 PUSH1 0x4 DUP3 LT ISZERO PUSH2 0xAE9 JUMPI MSTORE JUMP JUMPDEST SWAP3 SWAP2 SWAP3 PUSH1 0x1 PUSH1 0x1 PUSH1 0x40 SHL SUB DUP3 GT PUSH2 0x957 JUMPI PUSH1 0x40 MLOAD SWAP2 PUSH2 0x1E1D PUSH1 0x1F DUP3 ADD PUSH1 0x1F NOT AND PUSH1 0x20 ADD DUP5 PUSH2 0x1D09 JUMP JUMPDEST DUP3 SWAP5 DUP2 DUP5 MSTORE DUP2 DUP4 ADD GT PUSH2 0x238 JUMPI DUP3 DUP2 PUSH1 0x20 SWAP4 DUP5 PUSH1 0x0 SWAP7 ADD CALLDATACOPY ADD ADD MSTORE JUMP JUMPDEST SWAP1 DUP1 PUSH1 0x1F DUP4 ADD SLT ISZERO PUSH2 0x238 JUMPI DUP2 PUSH1 0x20 PUSH2 0x1E55 SWAP4 CALLDATALOAD SWAP2 ADD PUSH2 0x1DF4 JUMP JUMPDEST SWAP1 JUMP JUMPDEST SWAP1 PUSH1 0x1 DUP3 DUP2 SHR SWAP3 AND DUP1 ISZERO PUSH2 0x1E88 JUMPI JUMPDEST PUSH1 0x20 DUP4 LT EQ PUSH2 0x1E72 JUMPI JUMP JUMPDEST PUSH4 0x4E487B71 PUSH1 0xE0 SHL PUSH1 0x0 MSTORE PUSH1 0x22 PUSH1 0x4 MSTORE PUSH1 0x24 PUSH1 0x0 REVERT JUMPDEST SWAP2 PUSH1 0x7F AND SWAP2 PUSH2 0x1E67 JUMP JUMPDEST SWAP1 PUSH1 0x0 SWAP3 SWAP2 DUP1 SLOAD SWAP2 PUSH2 0x1EA3 DUP4 PUSH2 0x1E58 JUMP JUMPDEST SWAP2 DUP3 DUP3 MSTORE PUSH1 0x1 SWAP4 DUP5 DUP2 AND SWAP1 DUP2 PUSH1 0x0 EQ PUSH2 0x1F05 JUMPI POP PUSH1 0x1 EQ PUSH2 0x1EC5 JUMPI JUMPDEST POP POP POP POP JUMP JUMPDEST SWAP1 SWAP2 SWAP4 SWAP5 POP PUSH1 0x0 MSTORE PUSH1 0x20 SWAP3 DUP4 PUSH1 0x0 KECCAK256 SWAP3 DUP5 PUSH1 0x0 SWAP5 JUMPDEST DUP4 DUP7 LT PUSH2 0x1EF1 JUMPI POP POP POP POP ADD ADD SWAP1 CODESIZE DUP1 DUP1 DUP1 PUSH2 0x1EBF JUMP JUMPDEST DUP1 SLOAD DUP6 DUP8 ADD DUP4 ADD MSTORE SWAP5 ADD SWAP4 DUP6 SWAP1 DUP3 ADD PUSH2 0x1EDA JUMP JUMPDEST SWAP3 SWAP5 POP POP POP PUSH1 0x20 SWAP4 SWAP5 POP PUSH1 0xFF NOT AND DUP4 DUP4 ADD MSTORE ISZERO ISZERO PUSH1 0x5 SHL ADD ADD SWAP1 CODESIZE DUP1 DUP1 DUP1 PUSH2 0x1EBF JUMP JUMPDEST PUSH1 0x0 SLOAD PUSH1 0x1 PUSH1 0x1 PUSH1 0xA0 SHL SUB AND CALLER SUB PUSH2 0x1F3C JUMPI JUMP JUMPDEST PUSH1 0x40 MLOAD PUSH4 0x118CDAA7 PUSH1 0xE0 SHL DUP2 MSTORE CALLER PUSH1 0x4 DUP3 ADD MSTORE PUSH1 0x24 SWAP1 REVERT JUMPDEST ISZERO PUSH2 0x1F5B JUMPI JUMP JUMPDEST PUSH1 0x40 MLOAD PUSH3 0x461BCD PUSH1 0xE5 SHL DUP2 MSTORE PUSH1 0x20 PUSH1 0x4 DUP3 ADD MSTORE PUSH1 0xF PUSH1 0x24 DUP3 ADD MSTORE PUSH15 0x125B9D985B1A59081B585A5B081251 PUSH1 0x8A SHL PUSH1 0x44 DUP3 ADD MSTORE PUSH1 0x64 SWAP1 REVERT JUMPDEST SWAP2 SWAP1 DUP3 SUB SWAP2 DUP3 GT PUSH2 0xB76 JUMPI JUMP JUMPDEST DUP1 MLOAD ISZERO PUSH2 0xB8C JUMPI PUSH1 0x20 ADD SWAP1 JUMP JUMPDEST DUP1 MLOAD DUP3 LT ISZERO PUSH2 0xB8C JUMPI PUSH1 0x20 SWAP2 PUSH1 0x5 SHL ADD ADD SWAP1 JUMP JUMPDEST PUSH1 0x4 DUP3 LT ISZERO PUSH2 0xAE9 JUMPI MSTORE JUMP JUMPDEST SWAP1 PUSH1 0x1F DUP2 GT PUSH2 0x1FDA JUMPI POP POP POP JUMP JUMPDEST PUSH1 0x0 SWAP2 DUP3 MSTORE PUSH1 0x20 DUP3 KECCAK256 SWAP1 PUSH1 0x20 PUSH1 0x1F DUP6 ADD PUSH1 0x5 SHR DUP4 ADD SWAP5 LT PUSH2 0x2016 JUMPI JUMPDEST PUSH1 0x1F ADD PUSH1 0x5 SHR ADD SWAP2 JUMPDEST DUP3 DUP2 LT PUSH2 0x200B JUMPI POP POP POP JUMP JUMPDEST DUP2 DUP2 SSTORE PUSH1 0x1 ADD PUSH2 0x1FFF JUMP JUMPDEST SWAP1 SWAP3 POP DUP3 SWAP1 PUSH2 0x1FF6 JUMP JUMPDEST PUSH1 0x0 NOT DUP2 EQ PUSH2 0xB76 JUMPI PUSH1 0x1 ADD SWAP1 JUMP JUMPDEST ISZERO PUSH2 0x2036 JUMPI JUMP JUMPDEST PUSH1 0x40 MLOAD PUSH3 0x461BCD PUSH1 0xE5 SHL DUP2 MSTORE PUSH1 0x20 PUSH1 0x4 DUP3 ADD MSTORE PUSH1 0x19 PUSH1 0x24 DUP3 ADD MSTORE PUSH32 0x54696D652070726F6F6620646F6573206E6F7420657869737400000000000000 PUSH1 0x44 DUP3 ADD MSTORE PUSH1 0x64 SWAP1 REVERT JUMPDEST SWAP1 PUSH1 0x40 MLOAD SWAP2 DUP3 DUP2 SLOAD SWAP2 DUP3 DUP3 MSTORE PUSH1 0x20 SWAP3 DUP4 DUP4 ADD SWAP2 PUSH1 0x0 MSTORE DUP4 PUSH1 0x0 KECCAK256 SWAP4 PUSH1 0x0 SWAP1 JUMPDEST DUP3 DUP3 LT PUSH2 0x20B2 JUMPI POP POP POP PUSH2 0x20B0 SWAP3 POP SUB DUP4 PUSH2 0x1D09 JUMP JUMPDEST JUMP JUMPDEST DUP6 SLOAD DUP5 MSTORE PUSH1 0x1 SWAP6 DUP7 ADD SWAP6 DUP9 SWAP6 POP SWAP4 DUP2 ADD SWAP4 SWAP1 SWAP2 ADD SWAP1 PUSH2 0x209A JUMP INVALID LOG2 PUSH5 0x6970667358 0x22 SLT KECCAK256 0xB5 CALLVALUE 0x4C DUP15 SWAP13 0x28 PUSH4 0xD621A0A PUSH28 0x8F291EA12CC8131734C67D8E352E489EF13401D464736F6C63430008 EQ STOP CALLER "},"methodIdentifiers":{"addTimestampAuthority(address)":"53569863","allProofHashes(uint256)":"5de1ea78","authorizedTimestampAuthorities(address)":"d1bf0684","batchVerifyTimeProofs(bytes32[])":"6faae4e8","generateSimpleTimeProof(string,uint8,address)":"c812da55","generateTimeProof(string,uint8,address,(uint256,string,bytes,address),bytes32[],bytes32)":"f7580ab9","getAllProofHashes(uint256,uint256)":"8f266232","getCertificateChain(bytes32)":"f715a16f","getMailTimeProofs(string)":"c965ff39","getMerkleProof(bytes32)":"2e36b050","getTimeProof(bytes32)":"a587bb18","getTotalProofs()":"9b1bc0c9","getVerificationStatus(bytes32)":"6346000b","mailTimeProofs(string,uint256)":"cfa9f833","owner()":"8da5cb5b","removeTimestampAuthority(address)":"55be2027","renounceOwnership()":"715018a6","timeProofs(bytes32)":"ffdccee3","totalProofs()":"2ded3568","transferOwnership(address)":"f2fde38b","usedNonces(bytes32)":"feb61724","verifyTimeProof(bytes32)":"827c9c28"}}}}}