{"contracts/DeliveryTracking.sol":{"DeliveryTracking":{"abi":[{"inputs":[],"stateMutability":"nonpayable","type":"constructor"},{"inputs":[{"internalType":"address","name":"owner","type":"address"}],"name":"OwnableInvalidOwner","type":"error"},{"inputs":[{"internalType":"address","name":"account","type":"address"}],"name":"OwnableUnauthorizedAccount","type":"error"},{"inputs":[],"name":"ReentrancyGuardReentrantCall","type":"error"},{"anonymous":false,"inputs":[{"indexed":true,"internalType":"string","name":"trackingNumber","type":"string"},{"indexed":false,"internalType":"string","name":"reason","type":"string"},{"indexed":false,"internalType":"uint256","name":"timestamp","type":"uint256"},{"indexed":false,"internalType":"address","name":"alertedBy","type":"address"}],"name":"EmergencyAlert","type":"event"},{"anonymous":false,"inputs":[{"indexed":true,"internalType":"string","name":"trackingNumber","type":"string"},{"indexed":false,"internalType":"int256","name":"latitude","type":"int256"},{"indexed":false,"internalType":"int256","name":"longitude","type":"int256"},{"indexed":false,"internalType":"uint256","name":"timestamp","type":"uint256"}],"name":"LocationUpdated","type":"event"},{"anonymous":false,"inputs":[{"indexed":true,"internalType":"address","name":"previousOwner","type":"address"},{"indexed":true,"internalType":"address","name":"newOwner","type":"address"}],"name":"OwnershipTransferred","type":"event"},{"anonymous":false,"inputs":[{"indexed":true,"internalType":"string","name":"trackingNumber","type":"string"},{"indexed":true,"internalType":"address","name":"workerAddress","type":"address"},{"indexed":false,"internalType":"enum DeliveryTracking.DeliveryStatus","name":"status","type":"uint8"},{"indexed":false,"internalType":"string","name":"location","type":"string"},{"indexed":false,"internalType":"uint256","name":"timestamp","type":"uint256"},{"indexed":false,"internalType":"bytes32","name":"timeProofHash","type":"bytes32"}],"name":"StatusUpdated","type":"event"},{"anonymous":false,"inputs":[{"indexed":true,"internalType":"address","name":"workerAddress","type":"address"},{"indexed":false,"internalType":"uint256","name":"timestamp","type":"uint256"}],"name":"WorkerDeauthorized","type":"event"},{"anonymous":false,"inputs":[{"indexed":true,"internalType":"address","name":"workerAddress","type":"address"},{"indexed":false,"internalType":"string","name":"name","type":"string"},{"indexed":false,"internalType":"string","name":"role","type":"string"},{"indexed":false,"internalType":"uint256","name":"timestamp","type":"uint256"}],"name":"WorkerRegistered","type":"event"},{"inputs":[{"internalType":"uint256","name":"","type":"uint256"}],"name":"authorizedWorkers","outputs":[{"internalType":"address","name":"","type":"address"}],"stateMutability":"view","type":"function"},{"inputs":[{"internalType":"string","name":"","type":"string"}],"name":"currentStatus","outputs":[{"internalType":"enum DeliveryTracking.DeliveryStatus","name":"","type":"uint8"}],"stateMutability":"view","type":"function"},{"inputs":[{"internalType":"address","name":"workerAddress","type":"address"}],"name":"deauthorizeWorker","outputs":[],"stateMutability":"nonpayable","type":"function"},{"inputs":[{"internalType":"string","name":"trackingNumber","type":"string"},{"internalType":"string","name":"reason","type":"string"}],"name":"generateEmergencyAlert","outputs":[],"stateMutability":"nonpayable","type":"function"},{"inputs":[],"name":"getAuthorizedWorkers","outputs":[{"internalType":"address[]","name":"","type":"address[]"}],"stateMutability":"view","type":"function"},{"inputs":[{"internalType":"string[]","name":"trackingNumbers","type":"string[]"}],"name":"getBulkStatus","outputs":[{"internalType":"enum DeliveryTracking.DeliveryStatus[]","name":"statuses","type":"uint8[]"},{"internalType":"uint256[]","name":"lastUpdates","type":"uint256[]"},{"internalType":"string[]","name":"locations","type":"string[]"}],"stateMutability":"view","type":"function"},{"inputs":[{"internalType":"string","name":"trackingNumber","type":"string"}],"name":"getCurrentStatus","outputs":[{"internalType":"enum DeliveryTracking.DeliveryStatus","name":"status","type":"uint8"},{"internalType":"string","name":"location","type":"string"},{"components":[{"internalType":"int256","name":"latitude","type":"int256"},{"internalType":"int256","name":"longitude","type":"int256"}],"internalType":"struct DeliveryTracking.Coordinates","name":"coordinates","type":"tuple"},{"internalType":"uint256","name":"lastUpdate","type":"uint256"},{"internalType":"address","name":"lastUpdatedByAddr","type":"address"}],"stateMutability":"view","type":"function"},{"inputs":[{"internalType":"string","name":"trackingNumber","type":"string"}],"name":"getDeliveryPerformance","outputs":[{"internalType":"uint256","name":"totalMilestones","type":"uint256"},{"internalType":"uint256","name":"registrationTime","type":"uint256"},{"internalType":"uint256","name":"lastUpdateTimestamp","type":"uint256"},{"internalType":"bool","name":"isDelivered","type":"bool"},{"internalType":"uint256","name":"totalTransitTime","type":"uint256"}],"stateMutability":"view","type":"function"},{"inputs":[{"internalType":"string","name":"trackingNumber","type":"string"}],"name":"getTrackingHistory","outputs":[{"components":[{"internalType":"string","name":"trackingNumber","type":"string"},{"internalType":"address","name":"workerAddress","type":"address"},{"internalType":"string","name":"location","type":"string"},{"components":[{"internalType":"int256","name":"latitude","type":"int256"},{"internalType":"int256","name":"longitude","type":"int256"}],"internalType":"struct DeliveryTracking.Coordinates","name":"coordinates","type":"tuple"},{"internalType":"enum DeliveryTracking.DeliveryStatus","name":"status","type":"uint8"},{"internalType":"uint256","name":"timestamp","type":"uint256"},{"internalType":"bytes","name":"signature","type":"bytes"},{"components":[{"internalType":"string","name":"ntpServer","type":"string"},{"internalType":"uint256","name":"atomicTime","type":"uint256"},{"internalType":"string","name":"timezone","type":"string"}],"internalType":"struct DeliveryTracking.ProofOfTime","name":"proofOfTime","type":"tuple"},{"internalType":"uint256","name":"blockNumber","type":"uint256"},{"internalType":"bytes32","name":"timeProofHash","type":"bytes32"}],"internalType":"struct DeliveryTracking.StatusUpdate[]","name":"","type":"tuple[]"}],"stateMutability":"view","type":"function"},{"inputs":[{"internalType":"address","name":"workerAddress","type":"address"}],"name":"getWorkerInfo","outputs":[{"internalType":"bool","name":"isAuthorized","type":"bool"},{"internalType":"string","name":"name","type":"string"},{"internalType":"string","name":"role","type":"string"},{"internalType":"uint256","name":"registrationTime","type":"uint256"},{"internalType":"uint256","name":"totalUpdates","type":"uint256"}],"stateMutability":"view","type":"function"},{"inputs":[{"internalType":"string","name":"","type":"string"}],"name":"lastUpdateTime","outputs":[{"internalType":"uint256","name":"","type":"uint256"}],"stateMutability":"view","type":"function"},{"inputs":[{"internalType":"string","name":"","type":"string"}],"name":"lastUpdatedBy","outputs":[{"internalType":"address","name":"","type":"address"}],"stateMutability":"view","type":"function"},{"inputs":[],"name":"owner","outputs":[{"internalType":"address","name":"","type":"address"}],"stateMutability":"view","type":"function"},{"inputs":[{"internalType":"address","name":"workerAddress","type":"address"},{"internalType":"string","name":"name","type":"string"},{"internalType":"string","name":"role","type":"string"}],"name":"registerWorker","outputs":[],"stateMutability":"nonpayable","type":"function"},{"inputs":[],"name":"renounceOwnership","outputs":[],"stateMutability":"nonpayable","type":"function"},{"inputs":[{"internalType":"string","name":"","type":"string"},{"internalType":"uint256","name":"","type":"uint256"}],"name":"trackingHistory","outputs":[{"internalType":"string","name":"trackingNumber","type":"string"},{"internalType":"address","name":"workerAddress","type":"address"},{"internalType":"string","name":"location","type":"string"},{"components":[{"internalType":"int256","name":"latitude","type":"int256"},{"internalType":"int256","name":"longitude","type":"int256"}],"internalType":"struct DeliveryTracking.Coordinates","name":"coordinates","type":"tuple"},{"internalType":"enum DeliveryTracking.DeliveryStatus","name":"status","type":"uint8"},{"internalType":"uint256","name":"timestamp","type":"uint256"},{"internalType":"bytes","name":"signature","type":"bytes"},{"components":[{"internalType":"string","name":"ntpServer","type":"string"},{"internalType":"uint256","name":"atomicTime","type":"uint256"},{"internalType":"string","name":"timezone","type":"string"}],"internalType":"struct DeliveryTracking.ProofOfTime","name":"proofOfTime","type":"tuple"},{"internalType":"uint256","name":"blockNumber","type":"uint256"},{"internalType":"bytes32","name":"timeProofHash","type":"bytes32"}],"stateMutability":"view","type":"function"},{"inputs":[{"internalType":"address","name":"newOwner","type":"address"}],"name":"transferOwnership","outputs":[],"stateMutability":"nonpayable","type":"function"},{"inputs":[{"internalType":"string","name":"trackingNumber","type":"string"},{"internalType":"string","name":"location","type":"string"},{"components":[{"internalType":"int256","name":"latitude","type":"int256"},{"internalType":"int256","name":"longitude","type":"int256"}],"internalType":"struct DeliveryTracking.Coordinates","name":"coordinates","type":"tuple"},{"internalType":"enum DeliveryTracking.DeliveryStatus","name":"status","type":"uint8"},{"internalType":"bytes","name":"signature","type":"bytes"},{"components":[{"internalType":"string","name":"ntpServer","type":"string"},{"internalType":"uint256","name":"atomicTime","type":"uint256"},{"internalType":"string","name":"timezone","type":"string"}],"internalType":"struct DeliveryTracking.ProofOfTime","name":"proofOfTime","type":"tuple"}],"name":"updateStatus","outputs":[],"stateMutability":"nonpayable","type":"function"},{"inputs":[{"internalType":"string","name":"trackingNumber","type":"string"},{"internalType":"uint256","name":"updateIndex","type":"uint256"},{"internalType":"bytes32","name":"expectedHash","type":"bytes32"}],"name":"verifyTimeProof","outputs":[{"internalType":"bool","name":"","type":"bool"}],"stateMutability":"view","type":"function"},{"inputs":[{"internalType":"address","name":"","type":"address"}],"name":"workers","outputs":[{"internalType":"bool","name":"isAuthorized","type":"bool"},{"internalType":"string","name":"name","type":"string"},{"internalType":"string","name":"role","type":"string"},{"internalType":"uint256","name":"registrationTime","type":"uint256"},{"internalType":"uint256","name":"totalUpdates","type":"uint256"}],"stateMutability":"view","type":"function"}],"evm":{"bytecode":{"linkReferences":{},"object":"6080806040523461007e5733156100685760008054336001600160a01b03198216811783556040519290916001600160a01b0316907f8be0079c531659141344cd1fd0a4f28419497f9722a3daafe3b4186f6b6457e09080a360018055612a9490816100848239f35b631e4fbdf760e01b815260006004820152602490fd5b600080fdfe6080604052600436101561001257600080fd5b60003560e01c806311b1838214611ac95780632877a1b01461195f5780632d46d9eb1461191d5780633544e430146118d45780634048a2571461184e5780634202b2ab146116c75780634444465a1461165f5780634a61caa1146115f957806353c8aca814611196578063558a5e3314610fc8578063715018a614610f6f5780637be1bb1b14610d1b5780638da5cb5b14610cf25780639f464e3014610aa5578063ad0d1f3c1461099c578063b13e52cf14610739578063ce8ef7a614610680578063ced2393f146105c0578063ea19c706146101865763f2fde38b146100f857600080fd5b3461018157602036600319011261018157610111612668565b610119612886565b6001600160a01b0390811690811561016857600054826001600160601b0360a01b821617600055167f8be0079c531659141344cd1fd0a4f28419497f9722a3daafe3b4186f6b6457e0600080a3005b604051631e4fbdf760e01b815260006004820152602490fd5b600080fd5b34610181576020366003190112610181576004356001600160401b0380821161018157366023830112156101815781600401356101c28161286f565b926101d0604051948561254d565b8184526024602085019260051b820101913683116101815760248201905b838210610598578580516102018161286f565b9161020f604051938461254d565b818352601f1961021e8361286f565b0136602085013761022e8261286f565b9161023c604051938461254d565b8083526102488161286f565b602084019190601f190136833761025e8161286f565b9261026c604051948561254d565b818452601f1961027b8361286f565b0160005b81811061058557505060005b828110610380575050506040519384936060850160608652825180915260206080870193019060005b8181106103575750505060209085830382870152519182815201919060005b81811061033e575050508281036040840152815180825260208201916020808360051b8301019401926000915b83831061030d5786860387f35b91939550919360208061032c600193601f19868203018752895161274e565b97019301930190928695949293610300565b82518452869550602093840193909201916001016102d3565b919495965091926020808261036f600194895161282e565b0195019101918796959493926102b4565b61039861039282849996979899612a4a565b51612642565b546103b1575b6103a7906129c2565b959493929561028b565b6103f460ff6103d960206103c58587612a4a565b51816040519382858094519384920161261f565b8101600381520301902054166103ef8387612a4a565b61299e565b61040360206103c58385612a4a565b81016005815203019020546104188289612a4a565b526104266103928284612a4a565b9081546104328161286f565b92610440604051948561254d565b81845260208401906000526020600020906000905b8382106104b357505050508151600019810190811161049d5761047d6040916103a794612a4a565b51015161048a8289612a4a565b526104958188612a4a565b50905061039e565b634e487b7160e01b600052601160045260246000fd5b600d60206001926040516104c681612516565b6040516104de816104d7818b6126b8565b038261254d565b8152848060a01b03858801541683820152604051610503816104d78160028c016126b8565b6040820152610514600388016127cc565b606082015261052d60ff6005890154166080830161299e565b600687015460a082015260405161054b816104d78160078c016126b8565b60c082015261055c600888016127ea565b60e0820152600b870154610100820152600c870154610120820152815201930191019091610455565b606060208288018101919091520161027f565b8135858111610181576020916105b58392602436918801016125b4565b8152019101906101ee565b34610181576020366003190112610181576105d9612668565b6105e1612886565b6001600160a01b031660008181526004602052604090205460ff161561064357806000526004602052604060002060ff1981541690557fba6b9d85000e233681fab73707a2bd4aa982a6a8a565fa3c4b0a29df8edb20576020604051428152a2005b60405162461bcd60e51b815260206004820152601560248201527415dbdc9ad95c881b9bdd08185d5d1a1bdc9a5e9959605a1b6044820152606490fd5b34610181576020366003190112610181576001600160a01b036106a1612668565b16600052600460205260406000206040516106bb81612532565b60ff82541615158152610735604051916106e3836106dc81600188016126b8565b038461254d565b6020810192835260405193610706856106ff81600285016126b8565b038661254d565b846040830152600460038201549182606085015201549182608082015251151593519460405195869586612773565b0390f35b3461018157602080600319360112610181576004356001600160401b0381116101815761076a9036906004016125b4565b9061077782511515612952565b8061078b604051938481519384920161261f565b82019181816002948581520301902080546107a58161286f565b936107b3604051958661254d565b81855260009283528383208486019391845b8484106108cd57604080518881528951818a01819052600092600582901b83018101918a918c9085015b8287106107fc5785850386f35b909192938280600192603f1989820301855287519061014061089161084e61082d855161016080875286019061274e565b888060a01b038787015116878601526040860151858203604087015261274e565b856060808701519081519087015201516080908186015285015161087760a0918287019061282e565b85015160c0908186015285015184820360e086015261274e565b926108ab60e082015194610100958582038787015261283b565b93810151906101209182850152015191015296019201960195929190926107ef565b600d8760019260409a999a516108e281612516565b6040516108f3816104d7818b6126b8565b8152848060a01b03858801541683820152604051610917816104d7818a8c016126b8565b6040820152610928600388016127cc565b606082015261094160ff6005890154166080830161299e565b600687015460a082015260405161095f816104d78160078c016126b8565b60c0820152610970600888016127ea565b60e0820152600b870154610100820152600c8701546101208201528152019301930192919695966107c5565b34610181576040366003190112610181576001600160401b03600435818111610181576109cd9036906004016125b4565b90602435908111610181576109e69036906004016125b4565b90336000526004602052610a0160ff60406000205416612906565b610a0d81511515612952565b815115610a6757610a56610a417f8f72c3a6f2d62f16ace0e9833b96cb9c9691e5ce62b87141c2ec664a0b8a0539926129d1565b9260405191829160608352606083019061274e565b4260208301523360408301520390a2005b60405162461bcd60e51b8152602060048201526016602482015275526561736f6e2063616e6e6f7420626520656d70747960501b6044820152606490fd5b3461018157602080600319360112610181576004356001600160401b03811161018157610ad69036906004016125b4565b90610ae382511515612952565b604051918181519181810192610afa81878661261f565b850194828160029788815203019020805490610b158261286f565b96610b23604051988961254d565b8288526000918252848220908589015b848410610c1f57898760ff610b61828c8b610b50875115156129f1565b60405193849283925192839161261f565b8101600381520301902054166006811015610c095760041480600091610bcd575b83519260a0610b9086612a3d565b5101518551600019810190811161049d57610baf60a097918892612a4a565b51015191604051958652850152604084015260608301526080820152f35b90508251600019810190811161049d57610be960a09185612a4a565b51015160a0610bf785612a3d565b510151810390811161049d5790610b82565b634e487b7160e01b600052602160045260246000fd5b6001919293949596600d91604051610c3681612516565b604051610c47816104d7818b6126b8565b8152848060a01b03858801541683820152604051610c6b816104d7818a8c016126b8565b6040820152610c7c600388016127cc565b6060820152610c9560ff6005890154166080830161299e565b600687015460a0820152604051610cb3816104d78160078c016126b8565b60c0820152610cc4600888016127ea565b60e0820152600b870154610100820152600c8701546101208201528152019301930191908795949391610b33565b34610181576000366003190112610181576000546040516001600160a01b039091168152602090f35b3461018157602080600319360112610181576004356001600160401b03811161018157610d4c9036906004016125b4565b90600081604051610d5c816124e0565b8281520152610d6d82511515612952565b6040519180519082810191610d8381868561261f565b840193838160029687815203019020805490610d9e8261286f565b95610dac604051978861254d565b828752600091825285822090868089015b858510610ea457505050505050610dd6845115156129f1565b835160001981019490851161049d57610e7794610df291612a4a565b519060ff60405185818451610e0881838a61261f565b81016003815203019020541693610e87606060408501519401519460405183818651610e3581838761261f565b810160058152030190205493610e536040519283925192839161261f565b81019060068252838160018060a01b0393030190205416936040519788809861282e565b60c08388015260c087019061274e565b938051604087015201516060850152608084015260a08301520390f35b600191600d91604051610eb681612516565b604051610ec7816104d7818b6126b8565b8152848060a01b03858801541683820152604051610eeb816104d7818a8c016126b8565b6040820152610efc600388016127cc565b6060820152610f1560ff6005890154166080830161299e565b600687015460a0820152604051610f33816104d78160078c016126b8565b60c0820152610f44600888016127ea565b60e0820152600b870154610100820152600c8701546101208201528152019301930192918790610dbd565b3461018157600036600319011261018157610f88612886565b600080546001600160a01b0319811682556001600160a01b03167f8be0079c531659141344cd1fd0a4f28419497f9722a3daafe3b4186f6b6457e08280a3005b3461018157606080600319360112610181576004356001600160401b03811161018157610ff99036906004016125b4565b9060243561100983511515612952565b60405191835161101e8185602080980161261f565b8301928481600295868152030190208054916110398361286f565b94611047604051968761254d565b838652600092835286832091878088015b8686106110cc5750878781518110156110875761107b6101209160443593612a4a565b51015114604051908152f35b60405162461bcd60e51b815260048101849052601a60248201527f55706461746520696e646578206f7574206f6620626f756e64730000000000006044820152606490fd5b600191600d916040516110de81612516565b6040516110ef816104d7818c6126b8565b8152848060a01b03858901541683820152604051611113816104d7818b8d016126b8565b6040820152611124600389016127cc565b8682015261113c60ff60058a0154166080830161299e565b600688015460a082015260405161115a816104d78160078d016126b8565b60c082015261116b600889016127ea565b60e0820152600b880154610100820152600c8801546101208201528152019401940193928890611058565b34610181576060366003190112610181576111af612668565b6024356001600160401b038111610181576111ce9036906004016125b4565b6044356001600160401b038111610181576111ed9036906004016125b4565b6111f5612886565b6001600160a01b038316156115bb576001600160a01b03831660009081526004602052604090205460ff166115765781511561153a578051156114fe5760405161123e81612532565b6001815260208101908382528260408201524260608201526000608082015260018060a01b03851660005260046020526040600020918151151560ff80198554169116178355518051906001600160401b0382116113f25781906112b2826112a9600188015461267e565b600188016128b2565b602090601f831160011461148c57600092611481575b50508160011b916000199060031b1c19161760018301555b6002820160408201518051906001600160401b0382116113f25761130e82611308855461267e565b856128b2565b602090601f83116001146114135791806080949260049694600092611408575b50508160011b916000199060031b1c19161790555b60608101516003850155015191015560075491600160401b8310156113f2576113db6113cd9261139a8560017f7ec0761edda390ff15717c4b67f90261a4561c665f080ebe90afe581dfdfb2b197016007556125d2565b81546001600160a01b0389811660039390931b92831b921b1916179055604051606080825290948594909185019061274e565b90838203602085015261274e565b4260408301526001600160a01b03909416930390a2005b634e487b7160e01b600052604160045260246000fd5b015190508a8061132e565b90601f198316918460005260206000209260005b8181106114695750926001928592600498966080989610611450575b505050811b019055611343565b015160001960f88460031b161c191690558a8080611443565b92936020600181928786015181550195019301611427565b0151905087806112c8565b9250600185016000526020600020906000935b601f19841685106114e3576001945083601f198116106114ca575b505050811b0160018301556112e0565b015160001960f88460031b161c191690558780806114ba565b8181015183556020948501946001909301929091019061149f565b60405162461bcd60e51b8152602060048201526014602482015273526f6c652063616e6e6f7420626520656d70747960601b6044820152606490fd5b60405162461bcd60e51b81526020600482015260146024820152734e616d652063616e6e6f7420626520656d70747960601b6044820152606490fd5b60405162461bcd60e51b815260206004820152601960248201527f576f726b657220616c72656164792072656769737465726564000000000000006044820152606490fd5b60405162461bcd60e51b8152602060048201526016602482015275496e76616c696420776f726b6572206164647265737360501b6044820152606490fd5b34610181576020366003190112610181576004356001600160401b0381116101815760ff6116446020611631819436906004016125b4565b816040519382858094519384920161261f565b81016003815203019020541661165d604051809261282e565bf35b34610181576020366003190112610181576004356001600160401b0381116101815761169160209136906004016125b4565b816116a5604051928381519384920161261f565b600690820190815281900382019020546040516001600160a01b039091168152f35b34610181576040366003190112610181576004356001600160401b038111610181576116f79036906004016125b4565b611713602060243592816040519382858094519384920161261f565b8101600281520301902090815481101561018157611730916127b0565b506040518061173f81846126b8565b0361174a908261254d565b60018201546040516001600160a01b0390911692908061176d81600285016126b8565b03611778908261254d565b611784600383016127cc565b6005830154600684015460405160ff9092169290826117a681600789016126b8565b036117b1908461254d565b6117bd600887016127ea565b93600b87015496600c015495604051998a99610160808c528b016117e09161274e565b9060208b015289810360408b01526117f79161274e565b92805160608a015260200151608089015260a088016118159161282e565b60c087015285810360e087015261182b9161274e565b84810361010086015261183d9161283b565b916101208401526101408301520390f35b34610181576020366003190112610181576001600160a01b0361186f612668565b166000526004602052604060002060ff815416610735604051926118a18461189a81600185016126b8565b038561254d565b604051906118bd826118b681600285016126b8565b038361254d565b600460038201549101549160405195869586612773565b34610181576020366003190112610181576004356001600160401b0381116101815761190a6020611631819336906004016125b4565b8101600581520301902054604051908152f35b3461018157602036600319011261018157600435600754811015610181576119466020916125d2565b905460405160039290921b1c6001600160a01b03168152f35b34610181576000366003190112610181576007546000805b828110611a7857506119a161198b8261286f565b91611999604051938461254d565b80835261286f565b6020928383019291601f19013684376000805b828110611a085750505090604051928392818401908285525180915260408401929160005b8281106119e857505050500390f35b83516001600160a01b0316855286955093810193928101926001016119d9565b611a11816125d2565b60018060a01b03809254600392831b1c166000526004885260ff60406000205416611a47575b5050611a42906129c2565b6119b4565b92611a70918394611a5a611a42956125d2565b9054911b1c16611a6a8288612a4a565b526129c2565b919087611a37565b611a81816125d2565b60018060a01b0391549060031b1c16600052600460205260ff60406000205416611ab4575b611aaf906129c2565b611977565b90611ac1611aaf916129c2565b919050611aa6565b346101815760031960e036820112610181576004356001600160401b03811161018157611afa9036906004016125b4565b906024356001600160401b03811161018157611b1a9036906004016125b4565b9060403660431901126101815760405191611b34836124e0565b60443583526064356020840152600660843510156101815760a4356001600160401b038111610181573660238201121561018157611b7c90369060248160040135910161256e565b916001600160401b0360c435116101815760609060c435360301126101815760405191611ba8836124fb565b60c435600401356001600160401b03811161018157611bcf906004369160c43501016125b4565b8352602460c435013560208401526001600160401b03604460c43501351161018157611c063660c4356044810135016004016125b4565b6040840152336000526004602052611c2560ff60406000205416612906565b611c3185511515612952565b6002600154146124ce57600260015581511561248957835163055d4a7f19811215908161247a575b5015612442576020840151630aba94ff198112159081612433575b50156123fa57602082611d1360f4888851858a015190895190878b0151926040519785611cab8a975180928d8a019d8e910161261f565b86013360601b6020820152611cca82518093602060348501910161261f565b01916034830152605482015260843560748201524260948201524360b4820152611cfe82518093602060d48501910161261f565b019060d48201520360d481018452018261254d565b5190209260405191611d2483612516565b868352336020840152836040840152856060840152611d486084356080850161299e565b4260a084015260c083015260e082015243610100820152826101208201526040516020818751611d7b8183858c0161261f565b810160028152030190208054600160401b8110156113f257611da2916001820181556127b0565b9190916123e45780518051906001600160401b0382116113f2578190611dd282611dcc875461267e565b876128b2565b602090601f83116001146123785760009261236d575b50508160011b916000199060031b1c19161782555b6001820160018060a01b036020830151166001600160601b0360a01b82541617905560408101518051906001600160401b0382116113f2578190611e5182611e48600288015461267e565b600288016128b2565b602090601f83116001146122fb576000926122f0575b50508160011b916000199060031b1c19161760028301555b60206060820151805160038501550151600483015560808101516006811015610c0957611eaf90600584016129aa565b60a0810151600683015560c08101518051906001600160401b0382116113f2578190611eeb82611ee2600788015461267e565b600788016128b2565b602090601f831160011461227e57600092612273575b50508160011b916000199060031b1c19161760078301555b60e081015180518051906001600160401b0382116113f257611f4b82611f42600888015461267e565b600888016128b2565b602090601f8311600114612200576040939291600091836121f5575b50508160011b916000199060031b1c19161760088501555b6020810151600985015501518051906001600160401b0382116113f257611fb682611fad600a87015461267e565b600a87016128b2565b602090601f8311600114612158577f461af8de2adbddd3d52440d6997792096470a1cf76d41e0cdcd00d27c6d91a25979593836060989694600c946101209460009261214d575b50508160011b916000199060031b1c191617600a8501555b610100810151600b8501550151910155612052604051875161203b818360208c0161261f565b8101906003825260208160843593030190206129aa565b6040518651612065818360208b0161261f565b8101906005825260208142930301902055604051602081885161208b8183858d0161261f565b81016006815203019020336001600160601b0360a01b82541617905533600052600460205260046040600020016120c281546129c2565b90557f63cb386c0881b88fb6038c0528a28e68f2a3d7968eab3acafcbbb8c307e0759b6120ee876129d1565b91612113604051916121028360843561282e565b60806020840152608083019061274e565b93426040830152868201528033940390a361213460208251920151946129d1565b936040519182526020820152426040820152a260018055005b015190508c80611ffd565b90600a850160005260206000209160005b601f19851681106121dd575093600184600c94610120947f461af8de2adbddd3d52440d6997792096470a1cf76d41e0cdcd00d27c6d91a259c9a9860609c9a98601f198116106121c4575b505050811b01600a850155612015565b015160001960f88460031b161c191690558c80806121b4565b91926020600181928685015181550194019201612169565b015190508a80611f67565b906008860160005260206000209160005b601f198516811061225b575091839160019360409695601f19811610612242575b505050811b016008850155611f7f565b015160001960f88460031b161c191690558a8080612232565b91926020600181928685015181550194019201612211565b015190508880611f01565b9250600785016000526020600020906000935b601f19841685106122d5576001945083601f198116106122bc575b505050811b016007830155611f19565b015160001960f88460031b161c191690558880806122ac565b81810151835560209485019460019093019290910190612291565b015190508880611e67565b9250600285016000526020600020906000935b601f1984168510612352576001945083601f19811610612339575b505050811b016002830155611e7f565b015160001960f88460031b161c19169055888080612329565b8181015183556020948501946001909301929091019061230e565b015190508880611de8565b9250846000526020600020906000935b601f19841685106123c9576001945083601f198116106123b0575b505050811b018255611dfd565b015160001960f88460031b161c191690558880806123a3565b81810151835560209485019460019093019290910190612388565b634e487b7160e01b600052600060045260246000fd5b60405162461bcd60e51b8152602060048201526011602482015270496e76616c6964206c6f6e67697475646560781b6044820152606490fd5b630aba95009150131586611c74565b60405162461bcd60e51b815260206004820152601060248201526f496e76616c6964206c6174697475646560801b6044820152606490fd5b63055d4a809150131586611c59565b60405162461bcd60e51b815260206004820152601860248201527f4c6f636174696f6e2063616e6e6f7420626520656d70747900000000000000006044820152606490fd5b604051633ee5aeb560e01b8152600490fd5b604081019081106001600160401b038211176113f257604052565b606081019081106001600160401b038211176113f257604052565b61014081019081106001600160401b038211176113f257604052565b60a081019081106001600160401b038211176113f257604052565b90601f801991011681019081106001600160401b038211176113f257604052565b9291926001600160401b0382116113f25760405191612597601f8201601f19166020018461254d565b829481845281830111610181578281602093846000960137010152565b9080601f83011215610181578160206125cf9335910161256e565b90565b6007548110156126095760076000527fa66cc928b5edb82af9bd49922954155ab7b0942694bea4ce44661d9a8736c6880190600090565b634e487b7160e01b600052603260045260246000fd5b60005b8381106126325750506000910152565b8181015183820152602001612622565b602061265b91816040519382858094519384920161261f565b8101600281520301902090565b600435906001600160a01b038216820361018157565b90600182811c921680156126ae575b602083101461269857565b634e487b7160e01b600052602260045260246000fd5b91607f169161268d565b90600092918054916126c98361267e565b91828252600193848116908160001461272b57506001146126eb575b50505050565b90919394506000526020928360002092846000945b8386106127175750505050010190388080806126e5565b805485870183015294019385908201612700565b9294505050602093945060ff191683830152151560051b010190388080806126e5565b906020916127678151809281855285808601910161261f565b601f01601f1916010190565b91926127986080946127a693989796981515855260a0602086015260a085019061274e565b90838203604085015261274e565b9460608201520152565b805482101561260957600052600d602060002091020190600090565b906040516127d9816124e0565b602060018294805484520154910152565b906002604080516127fa816124fb565b61282a8195835161280f816104d781856126b8565b8352600181015460208401526106dc845180968193016126b8565b0152565b906006821015610c095752565b6125cf916040612854835160608452606084019061274e565b9260208101516020840152015190604081840391015261274e565b6001600160401b0381116113f25760051b60200190565b6000546001600160a01b0316330361289a57565b60405163118cdaa760e01b8152336004820152602490fd5b90601f81116128c057505050565b600091825260208220906020601f850160051c830194106128fc575b601f0160051c01915b8281106128f157505050565b8181556001016128e5565b90925082906128dc565b1561290d57565b60405162461bcd60e51b815260206004820152601860248201527f4e6f7420616e20617574686f72697a656420776f726b657200000000000000006044820152606490fd5b1561295957565b60405162461bcd60e51b815260206004820152601760248201527f496e76616c696420747261636b696e67206e756d6265720000000000000000006044820152606490fd5b6006821015610c095752565b906006811015610c095760ff80198354169116179055565b600019811461049d5760010190565b6129e99060206040519282848094519384920161261f565b810103902090565b156129f857565b60405162461bcd60e51b815260206004820152601960248201527f4e6f20747261636b696e6720686973746f727920666f756e64000000000000006044820152606490fd5b8051156126095760200190565b80518210156126095760209160051b01019056fea26469706673582212207be7171f8c1747b6e11f8ccb1184af8c14e61e1e6967fed9c0cfe250fbc19ac164736f6c63430008140033","opcodes":"PUSH1 0x80 DUP1 PUSH1 0x40 MSTORE CALLVALUE PUSH2 0x7E JUMPI CALLER ISZERO PUSH2 0x68 JUMPI PUSH1 0x0 DUP1 SLOAD CALLER PUSH1 0x1 PUSH1 0x1 PUSH1 0xA0 SHL SUB NOT DUP3 AND DUP2 OR DUP4 SSTORE PUSH1 0x40 MLOAD SWAP3 SWAP1 SWAP2 PUSH1 0x1 PUSH1 0x1 PUSH1 0xA0 SHL SUB AND SWAP1 PUSH32 0x8BE0079C531659141344CD1FD0A4F28419497F9722A3DAAFE3B4186F6B6457E0 SWAP1 DUP1 LOG3 PUSH1 0x1 DUP1 SSTORE PUSH2 0x2A94 SWAP1 DUP2 PUSH2 0x84 DUP3 CODECOPY RETURN JUMPDEST PUSH4 0x1E4FBDF7 PUSH1 0xE0 SHL DUP2 MSTORE PUSH1 0x0 PUSH1 0x4 DUP3 ADD MSTORE PUSH1 0x24 SWAP1 REVERT JUMPDEST PUSH1 0x0 DUP1 REVERT INVALID PUSH1 0x80 PUSH1 0x40 MSTORE PUSH1 0x4 CALLDATASIZE LT ISZERO PUSH2 0x12 JUMPI PUSH1 0x0 DUP1 REVERT JUMPDEST PUSH1 0x0 CALLDATALOAD PUSH1 0xE0 SHR DUP1 PUSH4 0x11B18382 EQ PUSH2 0x1AC9 JUMPI DUP1 PUSH4 0x2877A1B0 EQ PUSH2 0x195F JUMPI DUP1 PUSH4 0x2D46D9EB EQ PUSH2 0x191D JUMPI DUP1 PUSH4 0x3544E430 EQ PUSH2 0x18D4 JUMPI DUP1 PUSH4 0x4048A257 EQ PUSH2 0x184E JUMPI DUP1 PUSH4 0x4202B2AB EQ PUSH2 0x16C7 JUMPI DUP1 PUSH4 0x4444465A EQ PUSH2 0x165F JUMPI DUP1 PUSH4 0x4A61CAA1 EQ PUSH2 0x15F9 JUMPI DUP1 PUSH4 0x53C8ACA8 EQ PUSH2 0x1196 JUMPI DUP1 PUSH4 0x558A5E33 EQ PUSH2 0xFC8 JUMPI DUP1 PUSH4 0x715018A6 EQ PUSH2 0xF6F JUMPI DUP1 PUSH4 0x7BE1BB1B EQ PUSH2 0xD1B JUMPI DUP1 PUSH4 0x8DA5CB5B EQ PUSH2 0xCF2 JUMPI DUP1 PUSH4 0x9F464E30 EQ PUSH2 0xAA5 JUMPI DUP1 PUSH4 0xAD0D1F3C EQ PUSH2 0x99C JUMPI DUP1 PUSH4 0xB13E52CF EQ PUSH2 0x739 JUMPI DUP1 PUSH4 0xCE8EF7A6 EQ PUSH2 0x680 JUMPI DUP1 PUSH4 0xCED2393F EQ PUSH2 0x5C0 JUMPI DUP1 PUSH4 0xEA19C706 EQ PUSH2 0x186 JUMPI PUSH4 0xF2FDE38B EQ PUSH2 0xF8 JUMPI PUSH1 0x0 DUP1 REVERT JUMPDEST CALLVALUE PUSH2 0x181 JUMPI PUSH1 0x20 CALLDATASIZE PUSH1 0x3 NOT ADD SLT PUSH2 0x181 JUMPI PUSH2 0x111 PUSH2 0x2668 JUMP JUMPDEST PUSH2 0x119 PUSH2 0x2886 JUMP JUMPDEST PUSH1 0x1 PUSH1 0x1 PUSH1 0xA0 SHL SUB SWAP1 DUP2 AND SWAP1 DUP2 ISZERO PUSH2 0x168 JUMPI PUSH1 0x0 SLOAD DUP3 PUSH1 0x1 PUSH1 0x1 PUSH1 0x60 SHL SUB PUSH1 0xA0 SHL DUP3 AND OR PUSH1 0x0 SSTORE AND PUSH32 0x8BE0079C531659141344CD1FD0A4F28419497F9722A3DAAFE3B4186F6B6457E0 PUSH1 0x0 DUP1 LOG3 STOP JUMPDEST PUSH1 0x40 MLOAD PUSH4 0x1E4FBDF7 PUSH1 0xE0 SHL DUP2 MSTORE PUSH1 0x0 PUSH1 0x4 DUP3 ADD MSTORE PUSH1 0x24 SWAP1 REVERT JUMPDEST PUSH1 0x0 DUP1 REVERT JUMPDEST CALLVALUE PUSH2 0x181 JUMPI PUSH1 0x20 CALLDATASIZE PUSH1 0x3 NOT ADD SLT PUSH2 0x181 JUMPI PUSH1 0x4 CALLDATALOAD PUSH1 0x1 PUSH1 0x1 PUSH1 0x40 SHL SUB DUP1 DUP3 GT PUSH2 0x181 JUMPI CALLDATASIZE PUSH1 0x23 DUP4 ADD SLT ISZERO PUSH2 0x181 JUMPI DUP2 PUSH1 0x4 ADD CALLDATALOAD PUSH2 0x1C2 DUP2 PUSH2 0x286F JUMP JUMPDEST SWAP3 PUSH2 0x1D0 PUSH1 0x40 MLOAD SWAP5 DUP6 PUSH2 0x254D JUMP JUMPDEST DUP2 DUP5 MSTORE PUSH1 0x24 PUSH1 0x20 DUP6 ADD SWAP3 PUSH1 0x5 SHL DUP3 ADD ADD SWAP2 CALLDATASIZE DUP4 GT PUSH2 0x181 JUMPI PUSH1 0x24 DUP3 ADD SWAP1 JUMPDEST DUP4 DUP3 LT PUSH2 0x598 JUMPI DUP6 DUP1 MLOAD PUSH2 0x201 DUP2 PUSH2 0x286F JUMP JUMPDEST SWAP2 PUSH2 0x20F PUSH1 0x40 MLOAD SWAP4 DUP5 PUSH2 0x254D JUMP JUMPDEST DUP2 DUP4 MSTORE PUSH1 0x1F NOT PUSH2 0x21E DUP4 PUSH2 0x286F JUMP JUMPDEST ADD CALLDATASIZE PUSH1 0x20 DUP6 ADD CALLDATACOPY PUSH2 0x22E DUP3 PUSH2 0x286F JUMP JUMPDEST SWAP2 PUSH2 0x23C PUSH1 0x40 MLOAD SWAP4 DUP5 PUSH2 0x254D JUMP JUMPDEST DUP1 DUP4 MSTORE PUSH2 0x248 DUP2 PUSH2 0x286F JUMP JUMPDEST PUSH1 0x20 DUP5 ADD SWAP2 SWAP1 PUSH1 0x1F NOT ADD CALLDATASIZE DUP4 CALLDATACOPY PUSH2 0x25E DUP2 PUSH2 0x286F JUMP JUMPDEST SWAP3 PUSH2 0x26C PUSH1 0x40 MLOAD SWAP5 DUP6 PUSH2 0x254D JUMP JUMPDEST DUP2 DUP5 MSTORE PUSH1 0x1F NOT PUSH2 0x27B DUP4 PUSH2 0x286F JUMP JUMPDEST ADD PUSH1 0x0 JUMPDEST DUP2 DUP2 LT PUSH2 0x585 JUMPI POP POP PUSH1 0x0 JUMPDEST DUP3 DUP2 LT PUSH2 0x380 JUMPI POP POP POP PUSH1 0x40 MLOAD SWAP4 DUP5 SWAP4 PUSH1 0x60 DUP6 ADD PUSH1 0x60 DUP7 MSTORE DUP3 MLOAD DUP1 SWAP2 MSTORE PUSH1 0x20 PUSH1 0x80 DUP8 ADD SWAP4 ADD SWAP1 PUSH1 0x0 JUMPDEST DUP2 DUP2 LT PUSH2 0x357 JUMPI POP POP POP PUSH1 0x20 SWAP1 DUP6 DUP4 SUB DUP3 DUP8 ADD MSTORE MLOAD SWAP2 DUP3 DUP2 MSTORE ADD SWAP2 SWAP1 PUSH1 0x0 JUMPDEST DUP2 DUP2 LT PUSH2 0x33E JUMPI POP POP POP DUP3 DUP2 SUB PUSH1 0x40 DUP5 ADD MSTORE DUP2 MLOAD DUP1 DUP3 MSTORE PUSH1 0x20 DUP3 ADD SWAP2 PUSH1 0x20 DUP1 DUP4 PUSH1 0x5 SHL DUP4 ADD ADD SWAP5 ADD SWAP3 PUSH1 0x0 SWAP2 JUMPDEST DUP4 DUP4 LT PUSH2 0x30D JUMPI DUP7 DUP7 SUB DUP8 RETURN JUMPDEST SWAP2 SWAP4 SWAP6 POP SWAP2 SWAP4 PUSH1 0x20 DUP1 PUSH2 0x32C PUSH1 0x1 SWAP4 PUSH1 0x1F NOT DUP7 DUP3 SUB ADD DUP8 MSTORE DUP10 MLOAD PUSH2 0x274E JUMP JUMPDEST SWAP8 ADD SWAP4 ADD SWAP4 ADD SWAP1 SWAP3 DUP7 SWAP6 SWAP5 SWAP3 SWAP4 PUSH2 0x300 JUMP JUMPDEST DUP3 MLOAD DUP5 MSTORE DUP7 SWAP6 POP PUSH1 0x20 SWAP4 DUP5 ADD SWAP4 SWAP1 SWAP3 ADD SWAP2 PUSH1 0x1 ADD PUSH2 0x2D3 JUMP JUMPDEST SWAP2 SWAP5 SWAP6 SWAP7 POP SWAP2 SWAP3 PUSH1 0x20 DUP1 DUP3 PUSH2 0x36F PUSH1 0x1 SWAP5 DUP10 MLOAD PUSH2 0x282E JUMP JUMPDEST ADD SWAP6 ADD SWAP2 ADD SWAP2 DUP8 SWAP7 SWAP6 SWAP5 SWAP4 SWAP3 PUSH2 0x2B4 JUMP JUMPDEST PUSH2 0x398 PUSH2 0x392 DUP3 DUP5 SWAP10 SWAP7 SWAP8 SWAP9 SWAP10 PUSH2 0x2A4A JUMP JUMPDEST MLOAD PUSH2 0x2642 JUMP JUMPDEST SLOAD PUSH2 0x3B1 JUMPI JUMPDEST PUSH2 0x3A7 SWAP1 PUSH2 0x29C2 JUMP JUMPDEST SWAP6 SWAP5 SWAP4 SWAP3 SWAP6 PUSH2 0x28B JUMP JUMPDEST PUSH2 0x3F4 PUSH1 0xFF PUSH2 0x3D9 PUSH1 0x20 PUSH2 0x3C5 DUP6 DUP8 PUSH2 0x2A4A JUMP JUMPDEST MLOAD DUP2 PUSH1 0x40 MLOAD SWAP4 DUP3 DUP6 DUP1 SWAP5 MLOAD SWAP4 DUP5 SWAP3 ADD PUSH2 0x261F JUMP JUMPDEST DUP2 ADD PUSH1 0x3 DUP2 MSTORE SUB ADD SWAP1 KECCAK256 SLOAD AND PUSH2 0x3EF DUP4 DUP8 PUSH2 0x2A4A JUMP JUMPDEST PUSH2 0x299E JUMP JUMPDEST PUSH2 0x403 PUSH1 0x20 PUSH2 0x3C5 DUP4 DUP6 PUSH2 0x2A4A JUMP JUMPDEST DUP2 ADD PUSH1 0x5 DUP2 MSTORE SUB ADD SWAP1 KECCAK256 SLOAD PUSH2 0x418 DUP3 DUP10 PUSH2 0x2A4A JUMP JUMPDEST MSTORE PUSH2 0x426 PUSH2 0x392 DUP3 DUP5 PUSH2 0x2A4A JUMP JUMPDEST SWAP1 DUP2 SLOAD PUSH2 0x432 DUP2 PUSH2 0x286F JUMP JUMPDEST SWAP3 PUSH2 0x440 PUSH1 0x40 MLOAD SWAP5 DUP6 PUSH2 0x254D JUMP JUMPDEST DUP2 DUP5 MSTORE PUSH1 0x20 DUP5 ADD SWAP1 PUSH1 0x0 MSTORE PUSH1 0x20 PUSH1 0x0 KECCAK256 SWAP1 PUSH1 0x0 SWAP1 JUMPDEST DUP4 DUP3 LT PUSH2 0x4B3 JUMPI POP POP POP POP DUP2 MLOAD PUSH1 0x0 NOT DUP2 ADD SWAP1 DUP2 GT PUSH2 0x49D JUMPI PUSH2 0x47D PUSH1 0x40 SWAP2 PUSH2 0x3A7 SWAP5 PUSH2 0x2A4A JUMP JUMPDEST MLOAD ADD MLOAD PUSH2 0x48A DUP3 DUP10 PUSH2 0x2A4A JUMP JUMPDEST MSTORE PUSH2 0x495 DUP2 DUP9 PUSH2 0x2A4A JUMP JUMPDEST POP SWAP1 POP PUSH2 0x39E JUMP JUMPDEST PUSH4 0x4E487B71 PUSH1 0xE0 SHL PUSH1 0x0 MSTORE PUSH1 0x11 PUSH1 0x4 MSTORE PUSH1 0x24 PUSH1 0x0 REVERT JUMPDEST PUSH1 0xD PUSH1 0x20 PUSH1 0x1 SWAP3 PUSH1 0x40 MLOAD PUSH2 0x4C6 DUP2 PUSH2 0x2516 JUMP JUMPDEST PUSH1 0x40 MLOAD PUSH2 0x4DE DUP2 PUSH2 0x4D7 DUP2 DUP12 PUSH2 0x26B8 JUMP JUMPDEST SUB DUP3 PUSH2 0x254D JUMP JUMPDEST DUP2 MSTORE DUP5 DUP1 PUSH1 0xA0 SHL SUB DUP6 DUP9 ADD SLOAD AND DUP4 DUP3 ADD MSTORE PUSH1 0x40 MLOAD PUSH2 0x503 DUP2 PUSH2 0x4D7 DUP2 PUSH1 0x2 DUP13 ADD PUSH2 0x26B8 JUMP JUMPDEST PUSH1 0x40 DUP3 ADD MSTORE PUSH2 0x514 PUSH1 0x3 DUP9 ADD PUSH2 0x27CC JUMP JUMPDEST PUSH1 0x60 DUP3 ADD MSTORE PUSH2 0x52D PUSH1 0xFF PUSH1 0x5 DUP10 ADD SLOAD AND PUSH1 0x80 DUP4 ADD PUSH2 0x299E JUMP JUMPDEST PUSH1 0x6 DUP8 ADD SLOAD PUSH1 0xA0 DUP3 ADD MSTORE PUSH1 0x40 MLOAD PUSH2 0x54B DUP2 PUSH2 0x4D7 DUP2 PUSH1 0x7 DUP13 ADD PUSH2 0x26B8 JUMP JUMPDEST PUSH1 0xC0 DUP3 ADD MSTORE PUSH2 0x55C PUSH1 0x8 DUP9 ADD PUSH2 0x27EA JUMP JUMPDEST PUSH1 0xE0 DUP3 ADD MSTORE PUSH1 0xB DUP8 ADD SLOAD PUSH2 0x100 DUP3 ADD MSTORE PUSH1 0xC DUP8 ADD SLOAD PUSH2 0x120 DUP3 ADD MSTORE DUP2 MSTORE ADD SWAP4 ADD SWAP2 ADD SWAP1 SWAP2 PUSH2 0x455 JUMP JUMPDEST PUSH1 0x60 PUSH1 0x20 DUP3 DUP9 ADD DUP2 ADD SWAP2 SWAP1 SWAP2 MSTORE ADD PUSH2 0x27F JUMP JUMPDEST DUP2 CALLDATALOAD DUP6 DUP2 GT PUSH2 0x181 JUMPI PUSH1 0x20 SWAP2 PUSH2 0x5B5 DUP4 SWAP3 PUSH1 0x24 CALLDATASIZE SWAP2 DUP9 ADD ADD PUSH2 0x25B4 JUMP JUMPDEST DUP2 MSTORE ADD SWAP2 ADD SWAP1 PUSH2 0x1EE JUMP JUMPDEST CALLVALUE PUSH2 0x181 JUMPI PUSH1 0x20 CALLDATASIZE PUSH1 0x3 NOT ADD SLT PUSH2 0x181 JUMPI PUSH2 0x5D9 PUSH2 0x2668 JUMP JUMPDEST PUSH2 0x5E1 PUSH2 0x2886 JUMP JUMPDEST PUSH1 0x1 PUSH1 0x1 PUSH1 0xA0 SHL SUB AND PUSH1 0x0 DUP2 DUP2 MSTORE PUSH1 0x4 PUSH1 0x20 MSTORE PUSH1 0x40 SWAP1 KECCAK256 SLOAD PUSH1 0xFF AND ISZERO PUSH2 0x643 JUMPI DUP1 PUSH1 0x0 MSTORE PUSH1 0x4 PUSH1 0x20 MSTORE PUSH1 0x40 PUSH1 0x0 KECCAK256 PUSH1 0xFF NOT DUP2 SLOAD AND SWAP1 SSTORE PUSH32 0xBA6B9D85000E233681FAB73707A2BD4AA982A6A8A565FA3C4B0A29DF8EDB2057 PUSH1 0x20 PUSH1 0x40 MLOAD TIMESTAMP DUP2 MSTORE LOG2 STOP JUMPDEST PUSH1 0x40 MLOAD PUSH3 0x461BCD PUSH1 0xE5 SHL DUP2 MSTORE PUSH1 0x20 PUSH1 0x4 DUP3 ADD MSTORE PUSH1 0x15 PUSH1 0x24 DUP3 ADD MSTORE PUSH21 0x15DBDC9AD95C881B9BDD08185D5D1A1BDC9A5E9959 PUSH1 0x5A SHL PUSH1 0x44 DUP3 ADD MSTORE PUSH1 0x64 SWAP1 REVERT JUMPDEST CALLVALUE PUSH2 0x181 JUMPI PUSH1 0x20 CALLDATASIZE PUSH1 0x3 NOT ADD SLT PUSH2 0x181 JUMPI PUSH1 0x1 PUSH1 0x1 PUSH1 0xA0 SHL SUB PUSH2 0x6A1 PUSH2 0x2668 JUMP JUMPDEST AND PUSH1 0x0 MSTORE PUSH1 0x4 PUSH1 0x20 MSTORE PUSH1 0x40 PUSH1 0x0 KECCAK256 PUSH1 0x40 MLOAD PUSH2 0x6BB DUP2 PUSH2 0x2532 JUMP JUMPDEST PUSH1 0xFF DUP3 SLOAD AND ISZERO ISZERO DUP2 MSTORE PUSH2 0x735 PUSH1 0x40 MLOAD SWAP2 PUSH2 0x6E3 DUP4 PUSH2 0x6DC DUP2 PUSH1 0x1 DUP9 ADD PUSH2 0x26B8 JUMP JUMPDEST SUB DUP5 PUSH2 0x254D JUMP JUMPDEST PUSH1 0x20 DUP2 ADD SWAP3 DUP4 MSTORE PUSH1 0x40 MLOAD SWAP4 PUSH2 0x706 DUP6 PUSH2 0x6FF DUP2 PUSH1 0x2 DUP6 ADD PUSH2 0x26B8 JUMP JUMPDEST SUB DUP7 PUSH2 0x254D JUMP JUMPDEST DUP5 PUSH1 0x40 DUP4 ADD MSTORE PUSH1 0x4 PUSH1 0x3 DUP3 ADD SLOAD SWAP2 DUP3 PUSH1 0x60 DUP6 ADD MSTORE ADD SLOAD SWAP2 DUP3 PUSH1 0x80 DUP3 ADD MSTORE MLOAD ISZERO ISZERO SWAP4 MLOAD SWAP5 PUSH1 0x40 MLOAD SWAP6 DUP7 SWAP6 DUP7 PUSH2 0x2773 JUMP JUMPDEST SUB SWAP1 RETURN JUMPDEST CALLVALUE PUSH2 0x181 JUMPI PUSH1 0x20 DUP1 PUSH1 0x3 NOT CALLDATASIZE ADD SLT PUSH2 0x181 JUMPI PUSH1 0x4 CALLDATALOAD PUSH1 0x1 PUSH1 0x1 PUSH1 0x40 SHL SUB DUP2 GT PUSH2 0x181 JUMPI PUSH2 0x76A SWAP1 CALLDATASIZE SWAP1 PUSH1 0x4 ADD PUSH2 0x25B4 JUMP JUMPDEST SWAP1 PUSH2 0x777 DUP3 MLOAD ISZERO ISZERO PUSH2 0x2952 JUMP JUMPDEST DUP1 PUSH2 0x78B PUSH1 0x40 MLOAD SWAP4 DUP5 DUP2 MLOAD SWAP4 DUP5 SWAP3 ADD PUSH2 0x261F JUMP JUMPDEST DUP3 ADD SWAP2 DUP2 DUP2 PUSH1 0x2 SWAP5 DUP6 DUP2 MSTORE SUB ADD SWAP1 KECCAK256 DUP1 SLOAD PUSH2 0x7A5 DUP2 PUSH2 0x286F JUMP JUMPDEST SWAP4 PUSH2 0x7B3 PUSH1 0x40 MLOAD SWAP6 DUP7 PUSH2 0x254D JUMP JUMPDEST DUP2 DUP6 MSTORE PUSH1 0x0 SWAP3 DUP4 MSTORE DUP4 DUP4 KECCAK256 DUP5 DUP7 ADD SWAP4 SWAP2 DUP5 JUMPDEST DUP5 DUP5 LT PUSH2 0x8CD JUMPI PUSH1 0x40 DUP1 MLOAD DUP9 DUP2 MSTORE DUP10 MLOAD DUP2 DUP11 ADD DUP2 SWAP1 MSTORE PUSH1 0x0 SWAP3 PUSH1 0x5 DUP3 SWAP1 SHL DUP4 ADD DUP2 ADD SWAP2 DUP11 SWAP2 DUP13 SWAP1 DUP6 ADD JUMPDEST DUP3 DUP8 LT PUSH2 0x7FC JUMPI DUP6 DUP6 SUB DUP7 RETURN JUMPDEST SWAP1 SWAP2 SWAP3 SWAP4 DUP3 DUP1 PUSH1 0x1 SWAP3 PUSH1 0x3F NOT DUP10 DUP3 SUB ADD DUP6 MSTORE DUP8 MLOAD SWAP1 PUSH2 0x140 PUSH2 0x891 PUSH2 0x84E PUSH2 0x82D DUP6 MLOAD PUSH2 0x160 DUP1 DUP8 MSTORE DUP7 ADD SWAP1 PUSH2 0x274E JUMP JUMPDEST DUP9 DUP1 PUSH1 0xA0 SHL SUB DUP8 DUP8 ADD MLOAD AND DUP8 DUP7 ADD MSTORE PUSH1 0x40 DUP7 ADD MLOAD DUP6 DUP3 SUB PUSH1 0x40 DUP8 ADD MSTORE PUSH2 0x274E JUMP JUMPDEST DUP6 PUSH1 0x60 DUP1 DUP8 ADD MLOAD SWAP1 DUP2 MLOAD SWAP1 DUP8 ADD MSTORE ADD MLOAD PUSH1 0x80 SWAP1 DUP2 DUP7 ADD MSTORE DUP6 ADD MLOAD PUSH2 0x877 PUSH1 0xA0 SWAP2 DUP3 DUP8 ADD SWAP1 PUSH2 0x282E JUMP JUMPDEST DUP6 ADD MLOAD PUSH1 0xC0 SWAP1 DUP2 DUP7 ADD MSTORE DUP6 ADD MLOAD DUP5 DUP3 SUB PUSH1 0xE0 DUP7 ADD MSTORE PUSH2 0x274E JUMP JUMPDEST SWAP3 PUSH2 0x8AB PUSH1 0xE0 DUP3 ADD MLOAD SWAP5 PUSH2 0x100 SWAP6 DUP6 DUP3 SUB DUP8 DUP8 ADD MSTORE PUSH2 0x283B JUMP JUMPDEST SWAP4 DUP2 ADD MLOAD SWAP1 PUSH2 0x120 SWAP2 DUP3 DUP6 ADD MSTORE ADD MLOAD SWAP2 ADD MSTORE SWAP7 ADD SWAP3 ADD SWAP7 ADD SWAP6 SWAP3 SWAP2 SWAP1 SWAP3 PUSH2 0x7EF JUMP JUMPDEST PUSH1 0xD DUP8 PUSH1 0x1 SWAP3 PUSH1 0x40 SWAP11 SWAP10 SWAP11 MLOAD PUSH2 0x8E2 DUP2 PUSH2 0x2516 JUMP JUMPDEST PUSH1 0x40 MLOAD PUSH2 0x8F3 DUP2 PUSH2 0x4D7 DUP2 DUP12 PUSH2 0x26B8 JUMP JUMPDEST DUP2 MSTORE DUP5 DUP1 PUSH1 0xA0 SHL SUB DUP6 DUP9 ADD SLOAD AND DUP4 DUP3 ADD MSTORE PUSH1 0x40 MLOAD PUSH2 0x917 DUP2 PUSH2 0x4D7 DUP2 DUP11 DUP13 ADD PUSH2 0x26B8 JUMP JUMPDEST PUSH1 0x40 DUP3 ADD MSTORE PUSH2 0x928 PUSH1 0x3 DUP9 ADD PUSH2 0x27CC JUMP JUMPDEST PUSH1 0x60 DUP3 ADD MSTORE PUSH2 0x941 PUSH1 0xFF PUSH1 0x5 DUP10 ADD SLOAD AND PUSH1 0x80 DUP4 ADD PUSH2 0x299E JUMP JUMPDEST PUSH1 0x6 DUP8 ADD SLOAD PUSH1 0xA0 DUP3 ADD MSTORE PUSH1 0x40 MLOAD PUSH2 0x95F DUP2 PUSH2 0x4D7 DUP2 PUSH1 0x7 DUP13 ADD PUSH2 0x26B8 JUMP JUMPDEST PUSH1 0xC0 DUP3 ADD MSTORE PUSH2 0x970 PUSH1 0x8 DUP9 ADD PUSH2 0x27EA JUMP JUMPDEST PUSH1 0xE0 DUP3 ADD MSTORE PUSH1 0xB DUP8 ADD SLOAD PUSH2 0x100 DUP3 ADD MSTORE PUSH1 0xC DUP8 ADD SLOAD PUSH2 0x120 DUP3 ADD MSTORE DUP2 MSTORE ADD SWAP4 ADD SWAP4 ADD SWAP3 SWAP2 SWAP7 SWAP6 SWAP7 PUSH2 0x7C5 JUMP JUMPDEST CALLVALUE PUSH2 0x181 JUMPI PUSH1 0x40 CALLDATASIZE PUSH1 0x3 NOT ADD SLT PUSH2 0x181 JUMPI PUSH1 0x1 PUSH1 0x1 PUSH1 0x40 SHL SUB PUSH1 0x4 CALLDATALOAD DUP2 DUP2 GT PUSH2 0x181 JUMPI PUSH2 0x9CD SWAP1 CALLDATASIZE SWAP1 PUSH1 0x4 ADD PUSH2 0x25B4 JUMP JUMPDEST SWAP1 PUSH1 0x24 CALLDATALOAD SWAP1 DUP2 GT PUSH2 0x181 JUMPI PUSH2 0x9E6 SWAP1 CALLDATASIZE SWAP1 PUSH1 0x4 ADD PUSH2 0x25B4 JUMP JUMPDEST SWAP1 CALLER PUSH1 0x0 MSTORE PUSH1 0x4 PUSH1 0x20 MSTORE PUSH2 0xA01 PUSH1 0xFF PUSH1 0x40 PUSH1 0x0 KECCAK256 SLOAD AND PUSH2 0x2906 JUMP JUMPDEST PUSH2 0xA0D DUP2 MLOAD ISZERO ISZERO PUSH2 0x2952 JUMP JUMPDEST DUP2 MLOAD ISZERO PUSH2 0xA67 JUMPI PUSH2 0xA56 PUSH2 0xA41 PUSH32 0x8F72C3A6F2D62F16ACE0E9833B96CB9C9691E5CE62B87141C2EC664A0B8A0539 SWAP3 PUSH2 0x29D1 JUMP JUMPDEST SWAP3 PUSH1 0x40 MLOAD SWAP2 DUP3 SWAP2 PUSH1 0x60 DUP4 MSTORE PUSH1 0x60 DUP4 ADD SWAP1 PUSH2 0x274E JUMP JUMPDEST TIMESTAMP PUSH1 0x20 DUP4 ADD MSTORE CALLER PUSH1 0x40 DUP4 ADD MSTORE SUB SWAP1 LOG2 STOP JUMPDEST PUSH1 0x40 MLOAD PUSH3 0x461BCD PUSH1 0xE5 SHL DUP2 MSTORE PUSH1 0x20 PUSH1 0x4 DUP3 ADD MSTORE PUSH1 0x16 PUSH1 0x24 DUP3 ADD MSTORE PUSH22 0x526561736F6E2063616E6E6F7420626520656D707479 PUSH1 0x50 SHL PUSH1 0x44 DUP3 ADD MSTORE PUSH1 0x64 SWAP1 REVERT JUMPDEST CALLVALUE PUSH2 0x181 JUMPI PUSH1 0x20 DUP1 PUSH1 0x3 NOT CALLDATASIZE ADD SLT PUSH2 0x181 JUMPI PUSH1 0x4 CALLDATALOAD PUSH1 0x1 PUSH1 0x1 PUSH1 0x40 SHL SUB DUP2 GT PUSH2 0x181 JUMPI PUSH2 0xAD6 SWAP1 CALLDATASIZE SWAP1 PUSH1 0x4 ADD PUSH2 0x25B4 JUMP JUMPDEST SWAP1 PUSH2 0xAE3 DUP3 MLOAD ISZERO ISZERO PUSH2 0x2952 JUMP JUMPDEST PUSH1 0x40 MLOAD SWAP2 DUP2 DUP2 MLOAD SWAP2 DUP2 DUP2 ADD SWAP3 PUSH2 0xAFA DUP2 DUP8 DUP7 PUSH2 0x261F JUMP JUMPDEST DUP6 ADD SWAP5 DUP3 DUP2 PUSH1 0x2 SWAP8 DUP9 DUP2 MSTORE SUB ADD SWAP1 KECCAK256 DUP1 SLOAD SWAP1 PUSH2 0xB15 DUP3 PUSH2 0x286F JUMP JUMPDEST SWAP7 PUSH2 0xB23 PUSH1 0x40 MLOAD SWAP9 DUP10 PUSH2 0x254D JUMP JUMPDEST DUP3 DUP9 MSTORE PUSH1 0x0 SWAP2 DUP3 MSTORE DUP5 DUP3 KECCAK256 SWAP1 DUP6 DUP10 ADD JUMPDEST DUP5 DUP5 LT PUSH2 0xC1F JUMPI DUP10 DUP8 PUSH1 0xFF PUSH2 0xB61 DUP3 DUP13 DUP12 PUSH2 0xB50 DUP8 MLOAD ISZERO ISZERO PUSH2 0x29F1 JUMP JUMPDEST PUSH1 0x40 MLOAD SWAP4 DUP5 SWAP3 DUP4 SWAP3 MLOAD SWAP3 DUP4 SWAP2 PUSH2 0x261F JUMP JUMPDEST DUP2 ADD PUSH1 0x3 DUP2 MSTORE SUB ADD SWAP1 KECCAK256 SLOAD AND PUSH1 0x6 DUP2 LT ISZERO PUSH2 0xC09 JUMPI PUSH1 0x4 EQ DUP1 PUSH1 0x0 SWAP2 PUSH2 0xBCD JUMPI JUMPDEST DUP4 MLOAD SWAP3 PUSH1 0xA0 PUSH2 0xB90 DUP7 PUSH2 0x2A3D JUMP JUMPDEST MLOAD ADD MLOAD DUP6 MLOAD PUSH1 0x0 NOT DUP2 ADD SWAP1 DUP2 GT PUSH2 0x49D JUMPI PUSH2 0xBAF PUSH1 0xA0 SWAP8 SWAP2 DUP9 SWAP3 PUSH2 0x2A4A JUMP JUMPDEST MLOAD ADD MLOAD SWAP2 PUSH1 0x40 MLOAD SWAP6 DUP7 MSTORE DUP6 ADD MSTORE PUSH1 0x40 DUP5 ADD MSTORE PUSH1 0x60 DUP4 ADD MSTORE PUSH1 0x80 DUP3 ADD MSTORE RETURN JUMPDEST SWAP1 POP DUP3 MLOAD PUSH1 0x0 NOT DUP2 ADD SWAP1 DUP2 GT PUSH2 0x49D JUMPI PUSH2 0xBE9 PUSH1 0xA0 SWAP2 DUP6 PUSH2 0x2A4A JUMP JUMPDEST MLOAD ADD MLOAD PUSH1 0xA0 PUSH2 0xBF7 DUP6 PUSH2 0x2A3D JUMP JUMPDEST MLOAD ADD MLOAD DUP2 SUB SWAP1 DUP2 GT PUSH2 0x49D JUMPI SWAP1 PUSH2 0xB82 JUMP JUMPDEST PUSH4 0x4E487B71 PUSH1 0xE0 SHL PUSH1 0x0 MSTORE PUSH1 0x21 PUSH1 0x4 MSTORE PUSH1 0x24 PUSH1 0x0 REVERT JUMPDEST PUSH1 0x1 SWAP2 SWAP3 SWAP4 SWAP5 SWAP6 SWAP7 PUSH1 0xD SWAP2 PUSH1 0x40 MLOAD PUSH2 0xC36 DUP2 PUSH2 0x2516 JUMP JUMPDEST PUSH1 0x40 MLOAD PUSH2 0xC47 DUP2 PUSH2 0x4D7 DUP2 DUP12 PUSH2 0x26B8 JUMP JUMPDEST DUP2 MSTORE DUP5 DUP1 PUSH1 0xA0 SHL SUB DUP6 DUP9 ADD SLOAD AND DUP4 DUP3 ADD MSTORE PUSH1 0x40 MLOAD PUSH2 0xC6B DUP2 PUSH2 0x4D7 DUP2 DUP11 DUP13 ADD PUSH2 0x26B8 JUMP JUMPDEST PUSH1 0x40 DUP3 ADD MSTORE PUSH2 0xC7C PUSH1 0x3 DUP9 ADD PUSH2 0x27CC JUMP JUMPDEST PUSH1 0x60 DUP3 ADD MSTORE PUSH2 0xC95 PUSH1 0xFF PUSH1 0x5 DUP10 ADD SLOAD AND PUSH1 0x80 DUP4 ADD PUSH2 0x299E JUMP JUMPDEST PUSH1 0x6 DUP8 ADD SLOAD PUSH1 0xA0 DUP3 ADD MSTORE PUSH1 0x40 MLOAD PUSH2 0xCB3 DUP2 PUSH2 0x4D7 DUP2 PUSH1 0x7 DUP13 ADD PUSH2 0x26B8 JUMP JUMPDEST PUSH1 0xC0 DUP3 ADD MSTORE PUSH2 0xCC4 PUSH1 0x8 DUP9 ADD PUSH2 0x27EA JUMP JUMPDEST PUSH1 0xE0 DUP3 ADD MSTORE PUSH1 0xB DUP8 ADD SLOAD PUSH2 0x100 DUP3 ADD MSTORE PUSH1 0xC DUP8 ADD SLOAD PUSH2 0x120 DUP3 ADD MSTORE DUP2 MSTORE ADD SWAP4 ADD SWAP4 ADD SWAP2 SWAP1 DUP8 SWAP6 SWAP5 SWAP4 SWAP2 PUSH2 0xB33 JUMP JUMPDEST CALLVALUE PUSH2 0x181 JUMPI PUSH1 0x0 CALLDATASIZE PUSH1 0x3 NOT ADD SLT PUSH2 0x181 JUMPI PUSH1 0x0 SLOAD PUSH1 0x40 MLOAD PUSH1 0x1 PUSH1 0x1 PUSH1 0xA0 SHL SUB SWAP1 SWAP2 AND DUP2 MSTORE PUSH1 0x20 SWAP1 RETURN JUMPDEST CALLVALUE PUSH2 0x181 JUMPI PUSH1 0x20 DUP1 PUSH1 0x3 NOT CALLDATASIZE ADD SLT PUSH2 0x181 JUMPI PUSH1 0x4 CALLDATALOAD PUSH1 0x1 PUSH1 0x1 PUSH1 0x40 SHL SUB DUP2 GT PUSH2 0x181 JUMPI PUSH2 0xD4C SWAP1 CALLDATASIZE SWAP1 PUSH1 0x4 ADD PUSH2 0x25B4 JUMP JUMPDEST SWAP1 PUSH1 0x0 DUP2 PUSH1 0x40 MLOAD PUSH2 0xD5C DUP2 PUSH2 0x24E0 JUMP JUMPDEST DUP3 DUP2 MSTORE ADD MSTORE PUSH2 0xD6D DUP3 MLOAD ISZERO ISZERO PUSH2 0x2952 JUMP JUMPDEST PUSH1 0x40 MLOAD SWAP2 DUP1 MLOAD SWAP1 DUP3 DUP2 ADD SWAP2 PUSH2 0xD83 DUP2 DUP7 DUP6 PUSH2 0x261F JUMP JUMPDEST DUP5 ADD SWAP4 DUP4 DUP2 PUSH1 0x2 SWAP7 DUP8 DUP2 MSTORE SUB ADD SWAP1 KECCAK256 DUP1 SLOAD SWAP1 PUSH2 0xD9E DUP3 PUSH2 0x286F JUMP JUMPDEST SWAP6 PUSH2 0xDAC PUSH1 0x40 MLOAD SWAP8 DUP9 PUSH2 0x254D JUMP JUMPDEST DUP3 DUP8 MSTORE PUSH1 0x0 SWAP2 DUP3 MSTORE DUP6 DUP3 KECCAK256 SWAP1 DUP7 DUP1 DUP10 ADD JUMPDEST DUP6 DUP6 LT PUSH2 0xEA4 JUMPI POP POP POP POP POP POP PUSH2 0xDD6 DUP5 MLOAD ISZERO ISZERO PUSH2 0x29F1 JUMP JUMPDEST DUP4 MLOAD PUSH1 0x0 NOT DUP2 ADD SWAP5 SWAP1 DUP6 GT PUSH2 0x49D JUMPI PUSH2 0xE77 SWAP5 PUSH2 0xDF2 SWAP2 PUSH2 0x2A4A JUMP JUMPDEST MLOAD SWAP1 PUSH1 0xFF PUSH1 0x40 MLOAD DUP6 DUP2 DUP5 MLOAD PUSH2 0xE08 DUP2 DUP4 DUP11 PUSH2 0x261F JUMP JUMPDEST DUP2 ADD PUSH1 0x3 DUP2 MSTORE SUB ADD SWAP1 KECCAK256 SLOAD AND SWAP4 PUSH2 0xE87 PUSH1 0x60 PUSH1 0x40 DUP6 ADD MLOAD SWAP5 ADD MLOAD SWAP5 PUSH1 0x40 MLOAD DUP4 DUP2 DUP7 MLOAD PUSH2 0xE35 DUP2 DUP4 DUP8 PUSH2 0x261F JUMP JUMPDEST DUP2 ADD PUSH1 0x5 DUP2 MSTORE SUB ADD SWAP1 KECCAK256 SLOAD SWAP4 PUSH2 0xE53 PUSH1 0x40 MLOAD SWAP3 DUP4 SWAP3 MLOAD SWAP3 DUP4 SWAP2 PUSH2 0x261F JUMP JUMPDEST DUP2 ADD SWAP1 PUSH1 0x6 DUP3 MSTORE DUP4 DUP2 PUSH1 0x1 DUP1 PUSH1 0xA0 SHL SUB SWAP4 SUB ADD SWAP1 KECCAK256 SLOAD AND SWAP4 PUSH1 0x40 MLOAD SWAP8 DUP9 DUP1 SWAP9 PUSH2 0x282E JUMP JUMPDEST PUSH1 0xC0 DUP4 DUP9 ADD MSTORE PUSH1 0xC0 DUP8 ADD SWAP1 PUSH2 0x274E JUMP JUMPDEST SWAP4 DUP1 MLOAD PUSH1 0x40 DUP8 ADD MSTORE ADD MLOAD PUSH1 0x60 DUP6 ADD MSTORE PUSH1 0x80 DUP5 ADD MSTORE PUSH1 0xA0 DUP4 ADD MSTORE SUB SWAP1 RETURN JUMPDEST PUSH1 0x1 SWAP2 PUSH1 0xD SWAP2 PUSH1 0x40 MLOAD PUSH2 0xEB6 DUP2 PUSH2 0x2516 JUMP JUMPDEST PUSH1 0x40 MLOAD PUSH2 0xEC7 DUP2 PUSH2 0x4D7 DUP2 DUP12 PUSH2 0x26B8 JUMP JUMPDEST DUP2 MSTORE DUP5 DUP1 PUSH1 0xA0 SHL SUB DUP6 DUP9 ADD SLOAD AND DUP4 DUP3 ADD MSTORE PUSH1 0x40 MLOAD PUSH2 0xEEB DUP2 PUSH2 0x4D7 DUP2 DUP11 DUP13 ADD PUSH2 0x26B8 JUMP JUMPDEST PUSH1 0x40 DUP3 ADD MSTORE PUSH2 0xEFC PUSH1 0x3 DUP9 ADD PUSH2 0x27CC JUMP JUMPDEST PUSH1 0x60 DUP3 ADD MSTORE PUSH2 0xF15 PUSH1 0xFF PUSH1 0x5 DUP10 ADD SLOAD AND PUSH1 0x80 DUP4 ADD PUSH2 0x299E JUMP JUMPDEST PUSH1 0x6 DUP8 ADD SLOAD PUSH1 0xA0 DUP3 ADD MSTORE PUSH1 0x40 MLOAD PUSH2 0xF33 DUP2 PUSH2 0x4D7 DUP2 PUSH1 0x7 DUP13 ADD PUSH2 0x26B8 JUMP JUMPDEST PUSH1 0xC0 DUP3 ADD MSTORE PUSH2 0xF44 PUSH1 0x8 DUP9 ADD PUSH2 0x27EA JUMP JUMPDEST PUSH1 0xE0 DUP3 ADD MSTORE PUSH1 0xB DUP8 ADD SLOAD PUSH2 0x100 DUP3 ADD MSTORE PUSH1 0xC DUP8 ADD SLOAD PUSH2 0x120 DUP3 ADD MSTORE DUP2 MSTORE ADD SWAP4 ADD SWAP4 ADD SWAP3 SWAP2 DUP8 SWAP1 PUSH2 0xDBD JUMP JUMPDEST CALLVALUE PUSH2 0x181 JUMPI PUSH1 0x0 CALLDATASIZE PUSH1 0x3 NOT ADD SLT PUSH2 0x181 JUMPI PUSH2 0xF88 PUSH2 0x2886 JUMP JUMPDEST PUSH1 0x0 DUP1 SLOAD PUSH1 0x1 PUSH1 0x1 PUSH1 0xA0 SHL SUB NOT DUP2 AND DUP3 SSTORE PUSH1 0x1 PUSH1 0x1 PUSH1 0xA0 SHL SUB AND PUSH32 0x8BE0079C531659141344CD1FD0A4F28419497F9722A3DAAFE3B4186F6B6457E0 DUP3 DUP1 LOG3 STOP JUMPDEST CALLVALUE PUSH2 0x181 JUMPI PUSH1 0x60 DUP1 PUSH1 0x3 NOT CALLDATASIZE ADD SLT PUSH2 0x181 JUMPI PUSH1 0x4 CALLDATALOAD PUSH1 0x1 PUSH1 0x1 PUSH1 0x40 SHL SUB DUP2 GT PUSH2 0x181 JUMPI PUSH2 0xFF9 SWAP1 CALLDATASIZE SWAP1 PUSH1 0x4 ADD PUSH2 0x25B4 JUMP JUMPDEST SWAP1 PUSH1 0x24 CALLDATALOAD PUSH2 0x1009 DUP4 MLOAD ISZERO ISZERO PUSH2 0x2952 JUMP JUMPDEST PUSH1 0x40 MLOAD SWAP2 DUP4 MLOAD PUSH2 0x101E DUP2 DUP6 PUSH1 0x20 DUP1 SWAP9 ADD PUSH2 0x261F JUMP JUMPDEST DUP4 ADD SWAP3 DUP5 DUP2 PUSH1 0x2 SWAP6 DUP7 DUP2 MSTORE SUB ADD SWAP1 KECCAK256 DUP1 SLOAD SWAP2 PUSH2 0x1039 DUP4 PUSH2 0x286F JUMP JUMPDEST SWAP5 PUSH2 0x1047 PUSH1 0x40 MLOAD SWAP7 DUP8 PUSH2 0x254D JUMP JUMPDEST DUP4 DUP7 MSTORE PUSH1 0x0 SWAP3 DUP4 MSTORE DUP7 DUP4 KECCAK256 SWAP2 DUP8 DUP1 DUP9 ADD JUMPDEST DUP7 DUP7 LT PUSH2 0x10CC JUMPI POP DUP8 DUP8 DUP2 MLOAD DUP2 LT ISZERO PUSH2 0x1087 JUMPI PUSH2 0x107B PUSH2 0x120 SWAP2 PUSH1 0x44 CALLDATALOAD SWAP4 PUSH2 0x2A4A JUMP JUMPDEST MLOAD ADD MLOAD EQ PUSH1 0x40 MLOAD SWAP1 DUP2 MSTORE RETURN JUMPDEST PUSH1 0x40 MLOAD PUSH3 0x461BCD PUSH1 0xE5 SHL DUP2 MSTORE PUSH1 0x4 DUP2 ADD DUP5 SWAP1 MSTORE PUSH1 0x1A PUSH1 0x24 DUP3 ADD MSTORE PUSH32 0x55706461746520696E646578206F7574206F6620626F756E6473000000000000 PUSH1 0x44 DUP3 ADD MSTORE PUSH1 0x64 SWAP1 REVERT JUMPDEST PUSH1 0x1 SWAP2 PUSH1 0xD SWAP2 PUSH1 0x40 MLOAD PUSH2 0x10DE DUP2 PUSH2 0x2516 JUMP JUMPDEST PUSH1 0x40 MLOAD PUSH2 0x10EF DUP2 PUSH2 0x4D7 DUP2 DUP13 PUSH2 0x26B8 JUMP JUMPDEST DUP2 MSTORE DUP5 DUP1 PUSH1 0xA0 SHL SUB DUP6 DUP10 ADD SLOAD AND DUP4 DUP3 ADD MSTORE PUSH1 0x40 MLOAD PUSH2 0x1113 DUP2 PUSH2 0x4D7 DUP2 DUP12 DUP14 ADD PUSH2 0x26B8 JUMP JUMPDEST PUSH1 0x40 DUP3 ADD MSTORE PUSH2 0x1124 PUSH1 0x3 DUP10 ADD PUSH2 0x27CC JUMP JUMPDEST DUP7 DUP3 ADD MSTORE PUSH2 0x113C PUSH1 0xFF PUSH1 0x5 DUP11 ADD SLOAD AND PUSH1 0x80 DUP4 ADD PUSH2 0x299E JUMP JUMPDEST PUSH1 0x6 DUP9 ADD SLOAD PUSH1 0xA0 DUP3 ADD MSTORE PUSH1 0x40 MLOAD PUSH2 0x115A DUP2 PUSH2 0x4D7 DUP2 PUSH1 0x7 DUP14 ADD PUSH2 0x26B8 JUMP JUMPDEST PUSH1 0xC0 DUP3 ADD MSTORE PUSH2 0x116B PUSH1 0x8 DUP10 ADD PUSH2 0x27EA JUMP JUMPDEST PUSH1 0xE0 DUP3 ADD MSTORE PUSH1 0xB DUP9 ADD SLOAD PUSH2 0x100 DUP3 ADD MSTORE PUSH1 0xC DUP9 ADD SLOAD PUSH2 0x120 DUP3 ADD MSTORE DUP2 MSTORE ADD SWAP5 ADD SWAP5 ADD SWAP4 SWAP3 DUP9 SWAP1 PUSH2 0x1058 JUMP JUMPDEST CALLVALUE PUSH2 0x181 JUMPI PUSH1 0x60 CALLDATASIZE PUSH1 0x3 NOT ADD SLT PUSH2 0x181 JUMPI PUSH2 0x11AF PUSH2 0x2668 JUMP JUMPDEST PUSH1 0x24 CALLDATALOAD PUSH1 0x1 PUSH1 0x1 PUSH1 0x40 SHL SUB DUP2 GT PUSH2 0x181 JUMPI PUSH2 0x11CE SWAP1 CALLDATASIZE SWAP1 PUSH1 0x4 ADD PUSH2 0x25B4 JUMP JUMPDEST PUSH1 0x44 CALLDATALOAD PUSH1 0x1 PUSH1 0x1 PUSH1 0x40 SHL SUB DUP2 GT PUSH2 0x181 JUMPI PUSH2 0x11ED SWAP1 CALLDATASIZE SWAP1 PUSH1 0x4 ADD PUSH2 0x25B4 JUMP JUMPDEST PUSH2 0x11F5 PUSH2 0x2886 JUMP JUMPDEST PUSH1 0x1 PUSH1 0x1 PUSH1 0xA0 SHL SUB DUP4 AND ISZERO PUSH2 0x15BB JUMPI PUSH1 0x1 PUSH1 0x1 PUSH1 0xA0 SHL SUB DUP4 AND PUSH1 0x0 SWAP1 DUP2 MSTORE PUSH1 0x4 PUSH1 0x20 MSTORE PUSH1 0x40 SWAP1 KECCAK256 SLOAD PUSH1 0xFF AND PUSH2 0x1576 JUMPI DUP2 MLOAD ISZERO PUSH2 0x153A JUMPI DUP1 MLOAD ISZERO PUSH2 0x14FE JUMPI PUSH1 0x40 MLOAD PUSH2 0x123E DUP2 PUSH2 0x2532 JUMP JUMPDEST PUSH1 0x1 DUP2 MSTORE PUSH1 0x20 DUP2 ADD SWAP1 DUP4 DUP3 MSTORE DUP3 PUSH1 0x40 DUP3 ADD MSTORE TIMESTAMP PUSH1 0x60 DUP3 ADD MSTORE PUSH1 0x0 PUSH1 0x80 DUP3 ADD MSTORE PUSH1 0x1 DUP1 PUSH1 0xA0 SHL SUB DUP6 AND PUSH1 0x0 MSTORE PUSH1 0x4 PUSH1 0x20 MSTORE PUSH1 0x40 PUSH1 0x0 KECCAK256 SWAP2 DUP2 MLOAD ISZERO ISZERO PUSH1 0xFF DUP1 NOT DUP6 SLOAD AND SWAP2 AND OR DUP4 SSTORE MLOAD DUP1 MLOAD SWAP1 PUSH1 0x1 PUSH1 0x1 PUSH1 0x40 SHL SUB DUP3 GT PUSH2 0x13F2 JUMPI DUP2 SWAP1 PUSH2 0x12B2 DUP3 PUSH2 0x12A9 PUSH1 0x1 DUP9 ADD SLOAD PUSH2 0x267E JUMP JUMPDEST PUSH1 0x1 DUP9 ADD PUSH2 0x28B2 JUMP JUMPDEST PUSH1 0x20 SWAP1 PUSH1 0x1F DUP4 GT PUSH1 0x1 EQ PUSH2 0x148C JUMPI PUSH1 0x0 SWAP3 PUSH2 0x1481 JUMPI JUMPDEST POP POP DUP2 PUSH1 0x1 SHL SWAP2 PUSH1 0x0 NOT SWAP1 PUSH1 0x3 SHL SHR NOT AND OR PUSH1 0x1 DUP4 ADD SSTORE JUMPDEST PUSH1 0x2 DUP3 ADD PUSH1 0x40 DUP3 ADD MLOAD DUP1 MLOAD SWAP1 PUSH1 0x1 PUSH1 0x1 PUSH1 0x40 SHL SUB DUP3 GT PUSH2 0x13F2 JUMPI PUSH2 0x130E DUP3 PUSH2 0x1308 DUP6 SLOAD PUSH2 0x267E JUMP JUMPDEST DUP6 PUSH2 0x28B2 JUMP JUMPDEST PUSH1 0x20 SWAP1 PUSH1 0x1F DUP4 GT PUSH1 0x1 EQ PUSH2 0x1413 JUMPI SWAP2 DUP1 PUSH1 0x80 SWAP5 SWAP3 PUSH1 0x4 SWAP7 SWAP5 PUSH1 0x0 SWAP3 PUSH2 0x1408 JUMPI JUMPDEST POP POP DUP2 PUSH1 0x1 SHL SWAP2 PUSH1 0x0 NOT SWAP1 PUSH1 0x3 SHL SHR NOT AND OR SWAP1 SSTORE JUMPDEST PUSH1 0x60 DUP2 ADD MLOAD PUSH1 0x3 DUP6 ADD SSTORE ADD MLOAD SWAP2 ADD SSTORE PUSH1 0x7 SLOAD SWAP2 PUSH1 0x1 PUSH1 0x40 SHL DUP4 LT ISZERO PUSH2 0x13F2 JUMPI PUSH2 0x13DB PUSH2 0x13CD SWAP3 PUSH2 0x139A DUP6 PUSH1 0x1 PUSH32 0x7EC0761EDDA390FF15717C4B67F90261A4561C665F080EBE90AFE581DFDFB2B1 SWAP8 ADD PUSH1 0x7 SSTORE PUSH2 0x25D2 JUMP JUMPDEST DUP2 SLOAD PUSH1 0x1 PUSH1 0x1 PUSH1 0xA0 SHL SUB DUP10 DUP2 AND PUSH1 0x3 SWAP4 SWAP1 SWAP4 SHL SWAP3 DUP4 SHL SWAP3 SHL NOT AND OR SWAP1 SSTORE PUSH1 0x40 MLOAD PUSH1 0x60 DUP1 DUP3 MSTORE SWAP1 SWAP5 DUP6 SWAP5 SWAP1 SWAP2 DUP6 ADD SWAP1 PUSH2 0x274E JUMP JUMPDEST SWAP1 DUP4 DUP3 SUB PUSH1 0x20 DUP6 ADD MSTORE PUSH2 0x274E JUMP JUMPDEST TIMESTAMP PUSH1 0x40 DUP4 ADD MSTORE PUSH1 0x1 PUSH1 0x1 PUSH1 0xA0 SHL SUB SWAP1 SWAP5 AND SWAP4 SUB SWAP1 LOG2 STOP JUMPDEST PUSH4 0x4E487B71 PUSH1 0xE0 SHL PUSH1 0x0 MSTORE PUSH1 0x41 PUSH1 0x4 MSTORE PUSH1 0x24 PUSH1 0x0 REVERT JUMPDEST ADD MLOAD SWAP1 POP DUP11 DUP1 PUSH2 0x132E JUMP JUMPDEST SWAP1 PUSH1 0x1F NOT DUP4 AND SWAP2 DUP5 PUSH1 0x0 MSTORE PUSH1 0x20 PUSH1 0x0 KECCAK256 SWAP3 PUSH1 0x0 JUMPDEST DUP2 DUP2 LT PUSH2 0x1469 JUMPI POP SWAP3 PUSH1 0x1 SWAP3 DUP6 SWAP3 PUSH1 0x4 SWAP9 SWAP7 PUSH1 0x80 SWAP9 SWAP7 LT PUSH2 0x1450 JUMPI JUMPDEST POP POP POP DUP2 SHL ADD SWAP1 SSTORE PUSH2 0x1343 JUMP JUMPDEST ADD MLOAD PUSH1 0x0 NOT PUSH1 0xF8 DUP5 PUSH1 0x3 SHL AND SHR NOT AND SWAP1 SSTORE DUP11 DUP1 DUP1 PUSH2 0x1443 JUMP JUMPDEST SWAP3 SWAP4 PUSH1 0x20 PUSH1 0x1 DUP2 SWAP3 DUP8 DUP7 ADD MLOAD DUP2 SSTORE ADD SWAP6 ADD SWAP4 ADD PUSH2 0x1427 JUMP JUMPDEST ADD MLOAD SWAP1 POP DUP8 DUP1 PUSH2 0x12C8 JUMP JUMPDEST SWAP3 POP PUSH1 0x1 DUP6 ADD PUSH1 0x0 MSTORE PUSH1 0x20 PUSH1 0x0 KECCAK256 SWAP1 PUSH1 0x0 SWAP4 JUMPDEST PUSH1 0x1F NOT DUP5 AND DUP6 LT PUSH2 0x14E3 JUMPI PUSH1 0x1 SWAP5 POP DUP4 PUSH1 0x1F NOT DUP2 AND LT PUSH2 0x14CA JUMPI JUMPDEST POP POP POP DUP2 SHL ADD PUSH1 0x1 DUP4 ADD SSTORE PUSH2 0x12E0 JUMP JUMPDEST ADD MLOAD PUSH1 0x0 NOT PUSH1 0xF8 DUP5 PUSH1 0x3 SHL AND SHR NOT AND SWAP1 SSTORE DUP8 DUP1 DUP1 PUSH2 0x14BA JUMP JUMPDEST DUP2 DUP2 ADD MLOAD DUP4 SSTORE PUSH1 0x20 SWAP5 DUP6 ADD SWAP5 PUSH1 0x1 SWAP1 SWAP4 ADD SWAP3 SWAP1 SWAP2 ADD SWAP1 PUSH2 0x149F JUMP JUMPDEST PUSH1 0x40 MLOAD PUSH3 0x461BCD PUSH1 0xE5 SHL DUP2 MSTORE PUSH1 0x20 PUSH1 0x4 DUP3 ADD MSTORE PUSH1 0x14 PUSH1 0x24 DUP3 ADD MSTORE PUSH20 0x526F6C652063616E6E6F7420626520656D707479 PUSH1 0x60 SHL PUSH1 0x44 DUP3 ADD MSTORE PUSH1 0x64 SWAP1 REVERT JUMPDEST PUSH1 0x40 MLOAD PUSH3 0x461BCD PUSH1 0xE5 SHL DUP2 MSTORE PUSH1 0x20 PUSH1 0x4 DUP3 ADD MSTORE PUSH1 0x14 PUSH1 0x24 DUP3 ADD MSTORE PUSH20 0x4E616D652063616E6E6F7420626520656D707479 PUSH1 0x60 SHL PUSH1 0x44 DUP3 ADD MSTORE PUSH1 0x64 SWAP1 REVERT JUMPDEST PUSH1 0x40 MLOAD PUSH3 0x461BCD PUSH1 0xE5 SHL DUP2 MSTORE PUSH1 0x20 PUSH1 0x4 DUP3 ADD MSTORE PUSH1 0x19 PUSH1 0x24 DUP3 ADD MSTORE PUSH32 0x576F726B657220616C7265616479207265676973746572656400000000000000 PUSH1 0x44 DUP3 ADD MSTORE PUSH1 0x64 SWAP1 REVERT JUMPDEST PUSH1 0x40 MLOAD PUSH3 0x461BCD PUSH1 0xE5 SHL DUP2 MSTORE PUSH1 0x20 PUSH1 0x4 DUP3 ADD MSTORE PUSH1 0x16 PUSH1 0x24 DUP3 ADD MSTORE PUSH22 0x496E76616C696420776F726B65722061646472657373 PUSH1 0x50 SHL PUSH1 0x44 DUP3 ADD MSTORE PUSH1 0x64 SWAP1 REVERT JUMPDEST CALLVALUE PUSH2 0x181 JUMPI PUSH1 0x20 CALLDATASIZE PUSH1 0x3 NOT ADD SLT PUSH2 0x181 JUMPI PUSH1 0x4 CALLDATALOAD PUSH1 0x1 PUSH1 0x1 PUSH1 0x40 SHL SUB DUP2 GT PUSH2 0x181 JUMPI PUSH1 0xFF PUSH2 0x1644 PUSH1 0x20 PUSH2 0x1631 DUP2 SWAP5 CALLDATASIZE SWAP1 PUSH1 0x4 ADD PUSH2 0x25B4 JUMP JUMPDEST DUP2 PUSH1 0x40 MLOAD SWAP4 DUP3 DUP6 DUP1 SWAP5 MLOAD SWAP4 DUP5 SWAP3 ADD PUSH2 0x261F JUMP JUMPDEST DUP2 ADD PUSH1 0x3 DUP2 MSTORE SUB ADD SWAP1 KECCAK256 SLOAD AND PUSH2 0x165D PUSH1 0x40 MLOAD DUP1 SWAP3 PUSH2 0x282E JUMP JUMPDEST RETURN JUMPDEST CALLVALUE PUSH2 0x181 JUMPI PUSH1 0x20 CALLDATASIZE PUSH1 0x3 NOT ADD SLT PUSH2 0x181 JUMPI PUSH1 0x4 CALLDATALOAD PUSH1 0x1 PUSH1 0x1 PUSH1 0x40 SHL SUB DUP2 GT PUSH2 0x181 JUMPI PUSH2 0x1691 PUSH1 0x20 SWAP2 CALLDATASIZE SWAP1 PUSH1 0x4 ADD PUSH2 0x25B4 JUMP JUMPDEST DUP2 PUSH2 0x16A5 PUSH1 0x40 MLOAD SWAP3 DUP4 DUP2 MLOAD SWAP4 DUP5 SWAP3 ADD PUSH2 0x261F JUMP JUMPDEST PUSH1 0x6 SWAP1 DUP3 ADD SWAP1 DUP2 MSTORE DUP2 SWAP1 SUB DUP3 ADD SWAP1 KECCAK256 SLOAD PUSH1 0x40 MLOAD PUSH1 0x1 PUSH1 0x1 PUSH1 0xA0 SHL SUB SWAP1 SWAP2 AND DUP2 MSTORE RETURN JUMPDEST CALLVALUE PUSH2 0x181 JUMPI PUSH1 0x40 CALLDATASIZE PUSH1 0x3 NOT ADD SLT PUSH2 0x181 JUMPI PUSH1 0x4 CALLDATALOAD PUSH1 0x1 PUSH1 0x1 PUSH1 0x40 SHL SUB DUP2 GT PUSH2 0x181 JUMPI PUSH2 0x16F7 SWAP1 CALLDATASIZE SWAP1 PUSH1 0x4 ADD PUSH2 0x25B4 JUMP JUMPDEST PUSH2 0x1713 PUSH1 0x20 PUSH1 0x24 CALLDATALOAD SWAP3 DUP2 PUSH1 0x40 MLOAD SWAP4 DUP3 DUP6 DUP1 SWAP5 MLOAD SWAP4 DUP5 SWAP3 ADD PUSH2 0x261F JUMP JUMPDEST DUP2 ADD PUSH1 0x2 DUP2 MSTORE SUB ADD SWAP1 KECCAK256 SWAP1 DUP2 SLOAD DUP2 LT ISZERO PUSH2 0x181 JUMPI PUSH2 0x1730 SWAP2 PUSH2 0x27B0 JUMP JUMPDEST POP PUSH1 0x40 MLOAD DUP1 PUSH2 0x173F DUP2 DUP5 PUSH2 0x26B8 JUMP JUMPDEST SUB PUSH2 0x174A SWAP1 DUP3 PUSH2 0x254D JUMP JUMPDEST PUSH1 0x1 DUP3 ADD SLOAD PUSH1 0x40 MLOAD PUSH1 0x1 PUSH1 0x1 PUSH1 0xA0 SHL SUB SWAP1 SWAP2 AND SWAP3 SWAP1 DUP1 PUSH2 0x176D DUP2 PUSH1 0x2 DUP6 ADD PUSH2 0x26B8 JUMP JUMPDEST SUB PUSH2 0x1778 SWAP1 DUP3 PUSH2 0x254D JUMP JUMPDEST PUSH2 0x1784 PUSH1 0x3 DUP4 ADD PUSH2 0x27CC JUMP JUMPDEST PUSH1 0x5 DUP4 ADD SLOAD PUSH1 0x6 DUP5 ADD SLOAD PUSH1 0x40 MLOAD PUSH1 0xFF SWAP1 SWAP3 AND SWAP3 SWAP1 DUP3 PUSH2 0x17A6 DUP2 PUSH1 0x7 DUP10 ADD PUSH2 0x26B8 JUMP JUMPDEST SUB PUSH2 0x17B1 SWAP1 DUP5 PUSH2 0x254D JUMP JUMPDEST PUSH2 0x17BD PUSH1 0x8 DUP8 ADD PUSH2 0x27EA JUMP JUMPDEST SWAP4 PUSH1 0xB DUP8 ADD SLOAD SWAP7 PUSH1 0xC ADD SLOAD SWAP6 PUSH1 0x40 MLOAD SWAP10 DUP11 SWAP10 PUSH2 0x160 DUP1 DUP13 MSTORE DUP12 ADD PUSH2 0x17E0 SWAP2 PUSH2 0x274E JUMP JUMPDEST SWAP1 PUSH1 0x20 DUP12 ADD MSTORE DUP10 DUP2 SUB PUSH1 0x40 DUP12 ADD MSTORE PUSH2 0x17F7 SWAP2 PUSH2 0x274E JUMP JUMPDEST SWAP3 DUP1 MLOAD PUSH1 0x60 DUP11 ADD MSTORE PUSH1 0x20 ADD MLOAD PUSH1 0x80 DUP10 ADD MSTORE PUSH1 0xA0 DUP9 ADD PUSH2 0x1815 SWAP2 PUSH2 0x282E JUMP JUMPDEST PUSH1 0xC0 DUP8 ADD MSTORE DUP6 DUP2 SUB PUSH1 0xE0 DUP8 ADD MSTORE PUSH2 0x182B SWAP2 PUSH2 0x274E JUMP JUMPDEST DUP5 DUP2 SUB PUSH2 0x100 DUP7 ADD MSTORE PUSH2 0x183D SWAP2 PUSH2 0x283B JUMP JUMPDEST SWAP2 PUSH2 0x120 DUP5 ADD MSTORE PUSH2 0x140 DUP4 ADD MSTORE SUB SWAP1 RETURN JUMPDEST CALLVALUE PUSH2 0x181 JUMPI PUSH1 0x20 CALLDATASIZE PUSH1 0x3 NOT ADD SLT PUSH2 0x181 JUMPI PUSH1 0x1 PUSH1 0x1 PUSH1 0xA0 SHL SUB PUSH2 0x186F PUSH2 0x2668 JUMP JUMPDEST AND PUSH1 0x0 MSTORE PUSH1 0x4 PUSH1 0x20 MSTORE PUSH1 0x40 PUSH1 0x0 KECCAK256 PUSH1 0xFF DUP2 SLOAD AND PUSH2 0x735 PUSH1 0x40 MLOAD SWAP3 PUSH2 0x18A1 DUP5 PUSH2 0x189A DUP2 PUSH1 0x1 DUP6 ADD PUSH2 0x26B8 JUMP JUMPDEST SUB DUP6 PUSH2 0x254D JUMP JUMPDEST PUSH1 0x40 MLOAD SWAP1 PUSH2 0x18BD DUP3 PUSH2 0x18B6 DUP2 PUSH1 0x2 DUP6 ADD PUSH2 0x26B8 JUMP JUMPDEST SUB DUP4 PUSH2 0x254D JUMP JUMPDEST PUSH1 0x4 PUSH1 0x3 DUP3 ADD SLOAD SWAP2 ADD SLOAD SWAP2 PUSH1 0x40 MLOAD SWAP6 DUP7 SWAP6 DUP7 PUSH2 0x2773 JUMP JUMPDEST CALLVALUE PUSH2 0x181 JUMPI PUSH1 0x20 CALLDATASIZE PUSH1 0x3 NOT ADD SLT PUSH2 0x181 JUMPI PUSH1 0x4 CALLDATALOAD PUSH1 0x1 PUSH1 0x1 PUSH1 0x40 SHL SUB DUP2 GT PUSH2 0x181 JUMPI PUSH2 0x190A PUSH1 0x20 PUSH2 0x1631 DUP2 SWAP4 CALLDATASIZE SWAP1 PUSH1 0x4 ADD PUSH2 0x25B4 JUMP JUMPDEST DUP2 ADD PUSH1 0x5 DUP2 MSTORE SUB ADD SWAP1 KECCAK256 SLOAD PUSH1 0x40 MLOAD SWAP1 DUP2 MSTORE RETURN JUMPDEST CALLVALUE PUSH2 0x181 JUMPI PUSH1 0x20 CALLDATASIZE PUSH1 0x3 NOT ADD SLT PUSH2 0x181 JUMPI PUSH1 0x4 CALLDATALOAD PUSH1 0x7 SLOAD DUP2 LT ISZERO PUSH2 0x181 JUMPI PUSH2 0x1946 PUSH1 0x20 SWAP2 PUSH2 0x25D2 JUMP JUMPDEST SWAP1 SLOAD PUSH1 0x40 MLOAD PUSH1 0x3 SWAP3 SWAP1 SWAP3 SHL SHR PUSH1 0x1 PUSH1 0x1 PUSH1 0xA0 SHL SUB AND DUP2 MSTORE RETURN JUMPDEST CALLVALUE PUSH2 0x181 JUMPI PUSH1 0x0 CALLDATASIZE PUSH1 0x3 NOT ADD SLT PUSH2 0x181 JUMPI PUSH1 0x7 SLOAD PUSH1 0x0 DUP1 JUMPDEST DUP3 DUP2 LT PUSH2 0x1A78 JUMPI POP PUSH2 0x19A1 PUSH2 0x198B DUP3 PUSH2 0x286F JUMP JUMPDEST SWAP2 PUSH2 0x1999 PUSH1 0x40 MLOAD SWAP4 DUP5 PUSH2 0x254D JUMP JUMPDEST DUP1 DUP4 MSTORE PUSH2 0x286F JUMP JUMPDEST PUSH1 0x20 SWAP3 DUP4 DUP4 ADD SWAP3 SWAP2 PUSH1 0x1F NOT ADD CALLDATASIZE DUP5 CALLDATACOPY PUSH1 0x0 DUP1 JUMPDEST DUP3 DUP2 LT PUSH2 0x1A08 JUMPI POP POP POP SWAP1 PUSH1 0x40 MLOAD SWAP3 DUP4 SWAP3 DUP2 DUP5 ADD SWAP1 DUP3 DUP6 MSTORE MLOAD DUP1 SWAP2 MSTORE PUSH1 0x40 DUP5 ADD SWAP3 SWAP2 PUSH1 0x0 JUMPDEST DUP3 DUP2 LT PUSH2 0x19E8 JUMPI POP POP POP POP SUB SWAP1 RETURN JUMPDEST DUP4 MLOAD PUSH1 0x1 PUSH1 0x1 PUSH1 0xA0 SHL SUB AND DUP6 MSTORE DUP7 SWAP6 POP SWAP4 DUP2 ADD SWAP4 SWAP3 DUP2 ADD SWAP3 PUSH1 0x1 ADD PUSH2 0x19D9 JUMP JUMPDEST PUSH2 0x1A11 DUP2 PUSH2 0x25D2 JUMP JUMPDEST PUSH1 0x1 DUP1 PUSH1 0xA0 SHL SUB DUP1 SWAP3 SLOAD PUSH1 0x3 SWAP3 DUP4 SHL SHR AND PUSH1 0x0 MSTORE PUSH1 0x4 DUP9 MSTORE PUSH1 0xFF PUSH1 0x40 PUSH1 0x0 KECCAK256 SLOAD AND PUSH2 0x1A47 JUMPI JUMPDEST POP POP PUSH2 0x1A42 SWAP1 PUSH2 0x29C2 JUMP JUMPDEST PUSH2 0x19B4 JUMP JUMPDEST SWAP3 PUSH2 0x1A70 SWAP2 DUP4 SWAP5 PUSH2 0x1A5A PUSH2 0x1A42 SWAP6 PUSH2 0x25D2 JUMP JUMPDEST SWAP1 SLOAD SWAP2 SHL SHR AND PUSH2 0x1A6A DUP3 DUP9 PUSH2 0x2A4A JUMP JUMPDEST MSTORE PUSH2 0x29C2 JUMP JUMPDEST SWAP2 SWAP1 DUP8 PUSH2 0x1A37 JUMP JUMPDEST PUSH2 0x1A81 DUP2 PUSH2 0x25D2 JUMP JUMPDEST PUSH1 0x1 DUP1 PUSH1 0xA0 SHL SUB SWAP2 SLOAD SWAP1 PUSH1 0x3 SHL SHR AND PUSH1 0x0 MSTORE PUSH1 0x4 PUSH1 0x20 MSTORE PUSH1 0xFF PUSH1 0x40 PUSH1 0x0 KECCAK256 SLOAD AND PUSH2 0x1AB4 JUMPI JUMPDEST PUSH2 0x1AAF SWAP1 PUSH2 0x29C2 JUMP JUMPDEST PUSH2 0x1977 JUMP JUMPDEST SWAP1 PUSH2 0x1AC1 PUSH2 0x1AAF SWAP2 PUSH2 0x29C2 JUMP JUMPDEST SWAP2 SWAP1 POP PUSH2 0x1AA6 JUMP JUMPDEST CALLVALUE PUSH2 0x181 JUMPI PUSH1 0x3 NOT PUSH1 0xE0 CALLDATASIZE DUP3 ADD SLT PUSH2 0x181 JUMPI PUSH1 0x4 CALLDATALOAD PUSH1 0x1 PUSH1 0x1 PUSH1 0x40 SHL SUB DUP2 GT PUSH2 0x181 JUMPI PUSH2 0x1AFA SWAP1 CALLDATASIZE SWAP1 PUSH1 0x4 ADD PUSH2 0x25B4 JUMP JUMPDEST SWAP1 PUSH1 0x24 CALLDATALOAD PUSH1 0x1 PUSH1 0x1 PUSH1 0x40 SHL SUB DUP2 GT PUSH2 0x181 JUMPI PUSH2 0x1B1A SWAP1 CALLDATASIZE SWAP1 PUSH1 0x4 ADD PUSH2 0x25B4 JUMP JUMPDEST SWAP1 PUSH1 0x40 CALLDATASIZE PUSH1 0x43 NOT ADD SLT PUSH2 0x181 JUMPI PUSH1 0x40 MLOAD SWAP2 PUSH2 0x1B34 DUP4 PUSH2 0x24E0 JUMP JUMPDEST PUSH1 0x44 CALLDATALOAD DUP4 MSTORE PUSH1 0x64 CALLDATALOAD PUSH1 0x20 DUP5 ADD MSTORE PUSH1 0x6 PUSH1 0x84 CALLDATALOAD LT ISZERO PUSH2 0x181 JUMPI PUSH1 0xA4 CALLDATALOAD PUSH1 0x1 PUSH1 0x1 PUSH1 0x40 SHL SUB DUP2 GT PUSH2 0x181 JUMPI CALLDATASIZE PUSH1 0x23 DUP3 ADD SLT ISZERO PUSH2 0x181 JUMPI PUSH2 0x1B7C SWAP1 CALLDATASIZE SWAP1 PUSH1 0x24 DUP2 PUSH1 0x4 ADD CALLDATALOAD SWAP2 ADD PUSH2 0x256E JUMP JUMPDEST SWAP2 PUSH1 0x1 PUSH1 0x1 PUSH1 0x40 SHL SUB PUSH1 0xC4 CALLDATALOAD GT PUSH2 0x181 JUMPI PUSH1 0x60 SWAP1 PUSH1 0xC4 CALLDATALOAD CALLDATASIZE SUB ADD SLT PUSH2 0x181 JUMPI PUSH1 0x40 MLOAD SWAP2 PUSH2 0x1BA8 DUP4 PUSH2 0x24FB JUMP JUMPDEST PUSH1 0xC4 CALLDATALOAD PUSH1 0x4 ADD CALLDATALOAD PUSH1 0x1 PUSH1 0x1 PUSH1 0x40 SHL SUB DUP2 GT PUSH2 0x181 JUMPI PUSH2 0x1BCF SWAP1 PUSH1 0x4 CALLDATASIZE SWAP2 PUSH1 0xC4 CALLDATALOAD ADD ADD PUSH2 0x25B4 JUMP JUMPDEST DUP4 MSTORE PUSH1 0x24 PUSH1 0xC4 CALLDATALOAD ADD CALLDATALOAD PUSH1 0x20 DUP5 ADD MSTORE PUSH1 0x1 PUSH1 0x1 PUSH1 0x40 SHL SUB PUSH1 0x44 PUSH1 0xC4 CALLDATALOAD ADD CALLDATALOAD GT PUSH2 0x181 JUMPI PUSH2 0x1C06 CALLDATASIZE PUSH1 0xC4 CALLDATALOAD PUSH1 0x44 DUP2 ADD CALLDATALOAD ADD PUSH1 0x4 ADD PUSH2 0x25B4 JUMP JUMPDEST PUSH1 0x40 DUP5 ADD MSTORE CALLER PUSH1 0x0 MSTORE PUSH1 0x4 PUSH1 0x20 MSTORE PUSH2 0x1C25 PUSH1 0xFF PUSH1 0x40 PUSH1 0x0 KECCAK256 SLOAD AND PUSH2 0x2906 JUMP JUMPDEST PUSH2 0x1C31 DUP6 MLOAD ISZERO ISZERO PUSH2 0x2952 JUMP JUMPDEST PUSH1 0x2 PUSH1 0x1 SLOAD EQ PUSH2 0x24CE JUMPI PUSH1 0x2 PUSH1 0x1 SSTORE DUP2 MLOAD ISZERO PUSH2 0x2489 JUMPI DUP4 MLOAD PUSH4 0x55D4A7F NOT DUP2 SLT ISZERO SWAP1 DUP2 PUSH2 0x247A JUMPI JUMPDEST POP ISZERO PUSH2 0x2442 JUMPI PUSH1 0x20 DUP5 ADD MLOAD PUSH4 0xABA94FF NOT DUP2 SLT ISZERO SWAP1 DUP2 PUSH2 0x2433 JUMPI JUMPDEST POP ISZERO PUSH2 0x23FA JUMPI PUSH1 0x20 DUP3 PUSH2 0x1D13 PUSH1 0xF4 DUP9 DUP9 MLOAD DUP6 DUP11 ADD MLOAD SWAP1 DUP10 MLOAD SWAP1 DUP8 DUP12 ADD MLOAD SWAP3 PUSH1 0x40 MLOAD SWAP8 DUP6 PUSH2 0x1CAB DUP11 SWAP8 MLOAD DUP1 SWAP3 DUP14 DUP11 ADD SWAP14 DUP15 SWAP2 ADD PUSH2 0x261F JUMP JUMPDEST DUP7 ADD CALLER PUSH1 0x60 SHL PUSH1 0x20 DUP3 ADD MSTORE PUSH2 0x1CCA DUP3 MLOAD DUP1 SWAP4 PUSH1 0x20 PUSH1 0x34 DUP6 ADD SWAP2 ADD PUSH2 0x261F JUMP JUMPDEST ADD SWAP2 PUSH1 0x34 DUP4 ADD MSTORE PUSH1 0x54 DUP3 ADD MSTORE PUSH1 0x84 CALLDATALOAD PUSH1 0x74 DUP3 ADD MSTORE TIMESTAMP PUSH1 0x94 DUP3 ADD MSTORE NUMBER PUSH1 0xB4 DUP3 ADD MSTORE PUSH2 0x1CFE DUP3 MLOAD DUP1 SWAP4 PUSH1 0x20 PUSH1 0xD4 DUP6 ADD SWAP2 ADD PUSH2 0x261F JUMP JUMPDEST ADD SWAP1 PUSH1 0xD4 DUP3 ADD MSTORE SUB PUSH1 0xD4 DUP2 ADD DUP5 MSTORE ADD DUP3 PUSH2 0x254D JUMP JUMPDEST MLOAD SWAP1 KECCAK256 SWAP3 PUSH1 0x40 MLOAD SWAP2 PUSH2 0x1D24 DUP4 PUSH2 0x2516 JUMP JUMPDEST DUP7 DUP4 MSTORE CALLER PUSH1 0x20 DUP5 ADD MSTORE DUP4 PUSH1 0x40 DUP5 ADD MSTORE DUP6 PUSH1 0x60 DUP5 ADD MSTORE PUSH2 0x1D48 PUSH1 0x84 CALLDATALOAD PUSH1 0x80 DUP6 ADD PUSH2 0x299E JUMP JUMPDEST TIMESTAMP PUSH1 0xA0 DUP5 ADD MSTORE PUSH1 0xC0 DUP4 ADD MSTORE PUSH1 0xE0 DUP3 ADD MSTORE NUMBER PUSH2 0x100 DUP3 ADD MSTORE DUP3 PUSH2 0x120 DUP3 ADD MSTORE PUSH1 0x40 MLOAD PUSH1 0x20 DUP2 DUP8 MLOAD PUSH2 0x1D7B DUP2 DUP4 DUP6 DUP13 ADD PUSH2 0x261F JUMP JUMPDEST DUP2 ADD PUSH1 0x2 DUP2 MSTORE SUB ADD SWAP1 KECCAK256 DUP1 SLOAD PUSH1 0x1 PUSH1 0x40 SHL DUP2 LT ISZERO PUSH2 0x13F2 JUMPI PUSH2 0x1DA2 SWAP2 PUSH1 0x1 DUP3 ADD DUP2 SSTORE PUSH2 0x27B0 JUMP JUMPDEST SWAP2 SWAP1 SWAP2 PUSH2 0x23E4 JUMPI DUP1 MLOAD DUP1 MLOAD SWAP1 PUSH1 0x1 PUSH1 0x1 PUSH1 0x40 SHL SUB DUP3 GT PUSH2 0x13F2 JUMPI DUP2 SWAP1 PUSH2 0x1DD2 DUP3 PUSH2 0x1DCC DUP8 SLOAD PUSH2 0x267E JUMP JUMPDEST DUP8 PUSH2 0x28B2 JUMP JUMPDEST PUSH1 0x20 SWAP1 PUSH1 0x1F DUP4 GT PUSH1 0x1 EQ PUSH2 0x2378 JUMPI PUSH1 0x0 SWAP3 PUSH2 0x236D JUMPI JUMPDEST POP POP DUP2 PUSH1 0x1 SHL SWAP2 PUSH1 0x0 NOT SWAP1 PUSH1 0x3 SHL SHR NOT AND OR DUP3 SSTORE JUMPDEST PUSH1 0x1 DUP3 ADD PUSH1 0x1 DUP1 PUSH1 0xA0 SHL SUB PUSH1 0x20 DUP4 ADD MLOAD AND PUSH1 0x1 PUSH1 0x1 PUSH1 0x60 SHL SUB PUSH1 0xA0 SHL DUP3 SLOAD AND OR SWAP1 SSTORE PUSH1 0x40 DUP2 ADD MLOAD DUP1 MLOAD SWAP1 PUSH1 0x1 PUSH1 0x1 PUSH1 0x40 SHL SUB DUP3 GT PUSH2 0x13F2 JUMPI DUP2 SWAP1 PUSH2 0x1E51 DUP3 PUSH2 0x1E48 PUSH1 0x2 DUP9 ADD SLOAD PUSH2 0x267E JUMP JUMPDEST PUSH1 0x2 DUP9 ADD PUSH2 0x28B2 JUMP JUMPDEST PUSH1 0x20 SWAP1 PUSH1 0x1F DUP4 GT PUSH1 0x1 EQ PUSH2 0x22FB JUMPI PUSH1 0x0 SWAP3 PUSH2 0x22F0 JUMPI JUMPDEST POP POP DUP2 PUSH1 0x1 SHL SWAP2 PUSH1 0x0 NOT SWAP1 PUSH1 0x3 SHL SHR NOT AND OR PUSH1 0x2 DUP4 ADD SSTORE JUMPDEST PUSH1 0x20 PUSH1 0x60 DUP3 ADD MLOAD DUP1 MLOAD PUSH1 0x3 DUP6 ADD SSTORE ADD MLOAD PUSH1 0x4 DUP4 ADD SSTORE PUSH1 0x80 DUP2 ADD MLOAD PUSH1 0x6 DUP2 LT ISZERO PUSH2 0xC09 JUMPI PUSH2 0x1EAF SWAP1 PUSH1 0x5 DUP5 ADD PUSH2 0x29AA JUMP JUMPDEST PUSH1 0xA0 DUP2 ADD MLOAD PUSH1 0x6 DUP4 ADD SSTORE PUSH1 0xC0 DUP2 ADD MLOAD DUP1 MLOAD SWAP1 PUSH1 0x1 PUSH1 0x1 PUSH1 0x40 SHL SUB DUP3 GT PUSH2 0x13F2 JUMPI DUP2 SWAP1 PUSH2 0x1EEB DUP3 PUSH2 0x1EE2 PUSH1 0x7 DUP9 ADD SLOAD PUSH2 0x267E JUMP JUMPDEST PUSH1 0x7 DUP9 ADD PUSH2 0x28B2 JUMP JUMPDEST PUSH1 0x20 SWAP1 PUSH1 0x1F DUP4 GT PUSH1 0x1 EQ PUSH2 0x227E JUMPI PUSH1 0x0 SWAP3 PUSH2 0x2273 JUMPI JUMPDEST POP POP DUP2 PUSH1 0x1 SHL SWAP2 PUSH1 0x0 NOT SWAP1 PUSH1 0x3 SHL SHR NOT AND OR PUSH1 0x7 DUP4 ADD SSTORE JUMPDEST PUSH1 0xE0 DUP2 ADD MLOAD DUP1 MLOAD DUP1 MLOAD SWAP1 PUSH1 0x1 PUSH1 0x1 PUSH1 0x40 SHL SUB DUP3 GT PUSH2 0x13F2 JUMPI PUSH2 0x1F4B DUP3 PUSH2 0x1F42 PUSH1 0x8 DUP9 ADD SLOAD PUSH2 0x267E JUMP JUMPDEST PUSH1 0x8 DUP9 ADD PUSH2 0x28B2 JUMP JUMPDEST PUSH1 0x20 SWAP1 PUSH1 0x1F DUP4 GT PUSH1 0x1 EQ PUSH2 0x2200 JUMPI PUSH1 0x40 SWAP4 SWAP3 SWAP2 PUSH1 0x0 SWAP2 DUP4 PUSH2 0x21F5 JUMPI JUMPDEST POP POP DUP2 PUSH1 0x1 SHL SWAP2 PUSH1 0x0 NOT SWAP1 PUSH1 0x3 SHL SHR NOT AND OR PUSH1 0x8 DUP6 ADD SSTORE JUMPDEST PUSH1 0x20 DUP2 ADD MLOAD PUSH1 0x9 DUP6 ADD SSTORE ADD MLOAD DUP1 MLOAD SWAP1 PUSH1 0x1 PUSH1 0x1 PUSH1 0x40 SHL SUB DUP3 GT PUSH2 0x13F2 JUMPI PUSH2 0x1FB6 DUP3 PUSH2 0x1FAD PUSH1 0xA DUP8 ADD SLOAD PUSH2 0x267E JUMP JUMPDEST PUSH1 0xA DUP8 ADD PUSH2 0x28B2 JUMP JUMPDEST PUSH1 0x20 SWAP1 PUSH1 0x1F DUP4 GT PUSH1 0x1 EQ PUSH2 0x2158 JUMPI PUSH32 0x461AF8DE2ADBDDD3D52440D6997792096470A1CF76D41E0CDCD00D27C6D91A25 SWAP8 SWAP6 SWAP4 DUP4 PUSH1 0x60 SWAP9 SWAP7 SWAP5 PUSH1 0xC SWAP5 PUSH2 0x120 SWAP5 PUSH1 0x0 SWAP3 PUSH2 0x214D JUMPI JUMPDEST POP POP DUP2 PUSH1 0x1 SHL SWAP2 PUSH1 0x0 NOT SWAP1 PUSH1 0x3 SHL SHR NOT AND OR PUSH1 0xA DUP6 ADD SSTORE JUMPDEST PUSH2 0x100 DUP2 ADD MLOAD PUSH1 0xB DUP6 ADD SSTORE ADD MLOAD SWAP2 ADD SSTORE PUSH2 0x2052 PUSH1 0x40 MLOAD DUP8 MLOAD PUSH2 0x203B DUP2 DUP4 PUSH1 0x20 DUP13 ADD PUSH2 0x261F JUMP JUMPDEST DUP2 ADD SWAP1 PUSH1 0x3 DUP3 MSTORE PUSH1 0x20 DUP2 PUSH1 0x84 CALLDATALOAD SWAP4 SUB ADD SWAP1 KECCAK256 PUSH2 0x29AA JUMP JUMPDEST PUSH1 0x40 MLOAD DUP7 MLOAD PUSH2 0x2065 DUP2 DUP4 PUSH1 0x20 DUP12 ADD PUSH2 0x261F JUMP JUMPDEST DUP2 ADD SWAP1 PUSH1 0x5 DUP3 MSTORE PUSH1 0x20 DUP2 TIMESTAMP SWAP4 SUB ADD SWAP1 KECCAK256 SSTORE PUSH1 0x40 MLOAD PUSH1 0x20 DUP2 DUP9 MLOAD PUSH2 0x208B DUP2 DUP4 DUP6 DUP14 ADD PUSH2 0x261F JUMP JUMPDEST DUP2 ADD PUSH1 0x6 DUP2 MSTORE SUB ADD SWAP1 KECCAK256 CALLER PUSH1 0x1 PUSH1 0x1 PUSH1 0x60 SHL SUB PUSH1 0xA0 SHL DUP3 SLOAD AND OR SWAP1 SSTORE CALLER PUSH1 0x0 MSTORE PUSH1 0x4 PUSH1 0x20 MSTORE PUSH1 0x4 PUSH1 0x40 PUSH1 0x0 KECCAK256 ADD PUSH2 0x20C2 DUP2 SLOAD PUSH2 0x29C2 JUMP JUMPDEST SWAP1 SSTORE PUSH32 0x63CB386C0881B88FB6038C0528A28E68F2A3D7968EAB3ACAFCBBB8C307E0759B PUSH2 0x20EE DUP8 PUSH2 0x29D1 JUMP JUMPDEST SWAP2 PUSH2 0x2113 PUSH1 0x40 MLOAD SWAP2 PUSH2 0x2102 DUP4 PUSH1 0x84 CALLDATALOAD PUSH2 0x282E JUMP JUMPDEST PUSH1 0x80 PUSH1 0x20 DUP5 ADD MSTORE PUSH1 0x80 DUP4 ADD SWAP1 PUSH2 0x274E JUMP JUMPDEST SWAP4 TIMESTAMP PUSH1 0x40 DUP4 ADD MSTORE DUP7 DUP3 ADD MSTORE DUP1 CALLER SWAP5 SUB SWAP1 LOG3 PUSH2 0x2134 PUSH1 0x20 DUP3 MLOAD SWAP3 ADD MLOAD SWAP5 PUSH2 0x29D1 JUMP JUMPDEST SWAP4 PUSH1 0x40 MLOAD SWAP2 DUP3 MSTORE PUSH1 0x20 DUP3 ADD MSTORE TIMESTAMP PUSH1 0x40 DUP3 ADD MSTORE LOG2 PUSH1 0x1 DUP1 SSTORE STOP JUMPDEST ADD MLOAD SWAP1 POP DUP13 DUP1 PUSH2 0x1FFD JUMP JUMPDEST SWAP1 PUSH1 0xA DUP6 ADD PUSH1 0x0 MSTORE PUSH1 0x20 PUSH1 0x0 KECCAK256 SWAP2 PUSH1 0x0 JUMPDEST PUSH1 0x1F NOT DUP6 AND DUP2 LT PUSH2 0x21DD JUMPI POP SWAP4 PUSH1 0x1 DUP5 PUSH1 0xC SWAP5 PUSH2 0x120 SWAP5 PUSH32 0x461AF8DE2ADBDDD3D52440D6997792096470A1CF76D41E0CDCD00D27C6D91A25 SWAP13 SWAP11 SWAP9 PUSH1 0x60 SWAP13 SWAP11 SWAP9 PUSH1 0x1F NOT DUP2 AND LT PUSH2 0x21C4 JUMPI JUMPDEST POP POP POP DUP2 SHL ADD PUSH1 0xA DUP6 ADD SSTORE PUSH2 0x2015 JUMP JUMPDEST ADD MLOAD PUSH1 0x0 NOT PUSH1 0xF8 DUP5 PUSH1 0x3 SHL AND SHR NOT AND SWAP1 SSTORE DUP13 DUP1 DUP1 PUSH2 0x21B4 JUMP JUMPDEST SWAP2 SWAP3 PUSH1 0x20 PUSH1 0x1 DUP2 SWAP3 DUP7 DUP6 ADD MLOAD DUP2 SSTORE ADD SWAP5 ADD SWAP3 ADD PUSH2 0x2169 JUMP JUMPDEST ADD MLOAD SWAP1 POP DUP11 DUP1 PUSH2 0x1F67 JUMP JUMPDEST SWAP1 PUSH1 0x8 DUP7 ADD PUSH1 0x0 MSTORE PUSH1 0x20 PUSH1 0x0 KECCAK256 SWAP2 PUSH1 0x0 JUMPDEST PUSH1 0x1F NOT DUP6 AND DUP2 LT PUSH2 0x225B JUMPI POP SWAP2 DUP4 SWAP2 PUSH1 0x1 SWAP4 PUSH1 0x40 SWAP7 SWAP6 PUSH1 0x1F NOT DUP2 AND LT PUSH2 0x2242 JUMPI JUMPDEST POP POP POP DUP2 SHL ADD PUSH1 0x8 DUP6 ADD SSTORE PUSH2 0x1F7F JUMP JUMPDEST ADD MLOAD PUSH1 0x0 NOT PUSH1 0xF8 DUP5 PUSH1 0x3 SHL AND SHR NOT AND SWAP1 SSTORE DUP11 DUP1 DUP1 PUSH2 0x2232 JUMP JUMPDEST SWAP2 SWAP3 PUSH1 0x20 PUSH1 0x1 DUP2 SWAP3 DUP7 DUP6 ADD MLOAD DUP2 SSTORE ADD SWAP5 ADD SWAP3 ADD PUSH2 0x2211 JUMP JUMPDEST ADD MLOAD SWAP1 POP DUP9 DUP1 PUSH2 0x1F01 JUMP JUMPDEST SWAP3 POP PUSH1 0x7 DUP6 ADD PUSH1 0x0 MSTORE PUSH1 0x20 PUSH1 0x0 KECCAK256 SWAP1 PUSH1 0x0 SWAP4 JUMPDEST PUSH1 0x1F NOT DUP5 AND DUP6 LT PUSH2 0x22D5 JUMPI PUSH1 0x1 SWAP5 POP DUP4 PUSH1 0x1F NOT DUP2 AND LT PUSH2 0x22BC JUMPI JUMPDEST POP POP POP DUP2 SHL ADD PUSH1 0x7 DUP4 ADD SSTORE PUSH2 0x1F19 JUMP JUMPDEST ADD MLOAD PUSH1 0x0 NOT PUSH1 0xF8 DUP5 PUSH1 0x3 SHL AND SHR NOT AND SWAP1 SSTORE DUP9 DUP1 DUP1 PUSH2 0x22AC JUMP JUMPDEST DUP2 DUP2 ADD MLOAD DUP4 SSTORE PUSH1 0x20 SWAP5 DUP6 ADD SWAP5 PUSH1 0x1 SWAP1 SWAP4 ADD SWAP3 SWAP1 SWAP2 ADD SWAP1 PUSH2 0x2291 JUMP JUMPDEST ADD MLOAD SWAP1 POP DUP9 DUP1 PUSH2 0x1E67 JUMP JUMPDEST SWAP3 POP PUSH1 0x2 DUP6 ADD PUSH1 0x0 MSTORE PUSH1 0x20 PUSH1 0x0 KECCAK256 SWAP1 PUSH1 0x0 SWAP4 JUMPDEST PUSH1 0x1F NOT DUP5 AND DUP6 LT PUSH2 0x2352 JUMPI PUSH1 0x1 SWAP5 POP DUP4 PUSH1 0x1F NOT DUP2 AND LT PUSH2 0x2339 JUMPI JUMPDEST POP POP POP DUP2 SHL ADD PUSH1 0x2 DUP4 ADD SSTORE PUSH2 0x1E7F JUMP JUMPDEST ADD MLOAD PUSH1 0x0 NOT PUSH1 0xF8 DUP5 PUSH1 0x3 SHL AND SHR NOT AND SWAP1 SSTORE DUP9 DUP1 DUP1 PUSH2 0x2329 JUMP JUMPDEST DUP2 DUP2 ADD MLOAD DUP4 SSTORE PUSH1 0x20 SWAP5 DUP6 ADD SWAP5 PUSH1 0x1 SWAP1 SWAP4 ADD SWAP3 SWAP1 SWAP2 ADD SWAP1 PUSH2 0x230E JUMP JUMPDEST ADD MLOAD SWAP1 POP DUP9 DUP1 PUSH2 0x1DE8 JUMP JUMPDEST SWAP3 POP DUP5 PUSH1 0x0 MSTORE PUSH1 0x20 PUSH1 0x0 KECCAK256 SWAP1 PUSH1 0x0 SWAP4 JUMPDEST PUSH1 0x1F NOT DUP5 AND DUP6 LT PUSH2 0x23C9 JUMPI PUSH1 0x1 SWAP5 POP DUP4 PUSH1 0x1F NOT DUP2 AND LT PUSH2 0x23B0 JUMPI JUMPDEST POP POP POP DUP2 SHL ADD DUP3 SSTORE PUSH2 0x1DFD JUMP JUMPDEST ADD MLOAD PUSH1 0x0 NOT PUSH1 0xF8 DUP5 PUSH1 0x3 SHL AND SHR NOT AND SWAP1 SSTORE DUP9 DUP1 DUP1 PUSH2 0x23A3 JUMP JUMPDEST DUP2 DUP2 ADD MLOAD DUP4 SSTORE PUSH1 0x20 SWAP5 DUP6 ADD SWAP5 PUSH1 0x1 SWAP1 SWAP4 ADD SWAP3 SWAP1 SWAP2 ADD SWAP1 PUSH2 0x2388 JUMP JUMPDEST PUSH4 0x4E487B71 PUSH1 0xE0 SHL PUSH1 0x0 MSTORE PUSH1 0x0 PUSH1 0x4 MSTORE PUSH1 0x24 PUSH1 0x0 REVERT JUMPDEST PUSH1 0x40 MLOAD PUSH3 0x461BCD PUSH1 0xE5 SHL DUP2 MSTORE PUSH1 0x20 PUSH1 0x4 DUP3 ADD MSTORE PUSH1 0x11 PUSH1 0x24 DUP3 ADD MSTORE PUSH17 0x496E76616C6964206C6F6E676974756465 PUSH1 0x78 SHL PUSH1 0x44 DUP3 ADD MSTORE PUSH1 0x64 SWAP1 REVERT JUMPDEST PUSH4 0xABA9500 SWAP2 POP SGT ISZERO DUP7 PUSH2 0x1C74 JUMP JUMPDEST PUSH1 0x40 MLOAD PUSH3 0x461BCD PUSH1 0xE5 SHL DUP2 MSTORE PUSH1 0x20 PUSH1 0x4 DUP3 ADD MSTORE PUSH1 0x10 PUSH1 0x24 DUP3 ADD MSTORE PUSH16 0x496E76616C6964206C61746974756465 PUSH1 0x80 SHL PUSH1 0x44 DUP3 ADD MSTORE PUSH1 0x64 SWAP1 REVERT JUMPDEST PUSH4 0x55D4A80 SWAP2 POP SGT ISZERO DUP7 PUSH2 0x1C59 JUMP JUMPDEST PUSH1 0x40 MLOAD PUSH3 0x461BCD PUSH1 0xE5 SHL DUP2 MSTORE PUSH1 0x20 PUSH1 0x4 DUP3 ADD MSTORE PUSH1 0x18 PUSH1 0x24 DUP3 ADD MSTORE PUSH32 0x4C6F636174696F6E2063616E6E6F7420626520656D7074790000000000000000 PUSH1 0x44 DUP3 ADD MSTORE PUSH1 0x64 SWAP1 REVERT JUMPDEST PUSH1 0x40 MLOAD PUSH4 0x3EE5AEB5 PUSH1 0xE0 SHL DUP2 MSTORE PUSH1 0x4 SWAP1 REVERT JUMPDEST PUSH1 0x40 DUP2 ADD SWAP1 DUP2 LT PUSH1 0x1 PUSH1 0x1 PUSH1 0x40 SHL SUB DUP3 GT OR PUSH2 0x13F2 JUMPI PUSH1 0x40 MSTORE JUMP JUMPDEST PUSH1 0x60 DUP2 ADD SWAP1 DUP2 LT PUSH1 0x1 PUSH1 0x1 PUSH1 0x40 SHL SUB DUP3 GT OR PUSH2 0x13F2 JUMPI PUSH1 0x40 MSTORE JUMP JUMPDEST PUSH2 0x140 DUP2 ADD SWAP1 DUP2 LT PUSH1 0x1 PUSH1 0x1 PUSH1 0x40 SHL SUB DUP3 GT OR PUSH2 0x13F2 JUMPI PUSH1 0x40 MSTORE JUMP JUMPDEST PUSH1 0xA0 DUP2 ADD SWAP1 DUP2 LT PUSH1 0x1 PUSH1 0x1 PUSH1 0x40 SHL SUB DUP3 GT OR PUSH2 0x13F2 JUMPI PUSH1 0x40 MSTORE JUMP JUMPDEST SWAP1 PUSH1 0x1F DUP1 NOT SWAP2 ADD AND DUP2 ADD SWAP1 DUP2 LT PUSH1 0x1 PUSH1 0x1 PUSH1 0x40 SHL SUB DUP3 GT OR PUSH2 0x13F2 JUMPI PUSH1 0x40 MSTORE JUMP JUMPDEST SWAP3 SWAP2 SWAP3 PUSH1 0x1 PUSH1 0x1 PUSH1 0x40 SHL SUB DUP3 GT PUSH2 0x13F2 JUMPI PUSH1 0x40 MLOAD SWAP2 PUSH2 0x2597 PUSH1 0x1F DUP3 ADD PUSH1 0x1F NOT AND PUSH1 0x20 ADD DUP5 PUSH2 0x254D JUMP JUMPDEST DUP3 SWAP5 DUP2 DUP5 MSTORE DUP2 DUP4 ADD GT PUSH2 0x181 JUMPI DUP3 DUP2 PUSH1 0x20 SWAP4 DUP5 PUSH1 0x0 SWAP7 ADD CALLDATACOPY ADD ADD MSTORE JUMP JUMPDEST SWAP1 DUP1 PUSH1 0x1F DUP4 ADD SLT ISZERO PUSH2 0x181 JUMPI DUP2 PUSH1 0x20 PUSH2 0x25CF SWAP4 CALLDATALOAD SWAP2 ADD PUSH2 0x256E JUMP JUMPDEST SWAP1 JUMP JUMPDEST PUSH1 0x7 SLOAD DUP2 LT ISZERO PUSH2 0x2609 JUMPI PUSH1 0x7 PUSH1 0x0 MSTORE PUSH32 0xA66CC928B5EDB82AF9BD49922954155AB7B0942694BEA4CE44661D9A8736C688 ADD SWAP1 PUSH1 0x0 SWAP1 JUMP JUMPDEST PUSH4 0x4E487B71 PUSH1 0xE0 SHL PUSH1 0x0 MSTORE PUSH1 0x32 PUSH1 0x4 MSTORE PUSH1 0x24 PUSH1 0x0 REVERT JUMPDEST PUSH1 0x0 JUMPDEST DUP4 DUP2 LT PUSH2 0x2632 JUMPI POP POP PUSH1 0x0 SWAP2 ADD MSTORE JUMP JUMPDEST DUP2 DUP2 ADD MLOAD DUP4 DUP3 ADD MSTORE PUSH1 0x20 ADD PUSH2 0x2622 JUMP JUMPDEST PUSH1 0x20 PUSH2 0x265B SWAP2 DUP2 PUSH1 0x40 MLOAD SWAP4 DUP3 DUP6 DUP1 SWAP5 MLOAD SWAP4 DUP5 SWAP3 ADD PUSH2 0x261F JUMP JUMPDEST DUP2 ADD PUSH1 0x2 DUP2 MSTORE SUB ADD SWAP1 KECCAK256 SWAP1 JUMP JUMPDEST PUSH1 0x4 CALLDATALOAD SWAP1 PUSH1 0x1 PUSH1 0x1 PUSH1 0xA0 SHL SUB DUP3 AND DUP3 SUB PUSH2 0x181 JUMPI JUMP JUMPDEST SWAP1 PUSH1 0x1 DUP3 DUP2 SHR SWAP3 AND DUP1 ISZERO PUSH2 0x26AE JUMPI JUMPDEST PUSH1 0x20 DUP4 LT EQ PUSH2 0x2698 JUMPI JUMP JUMPDEST PUSH4 0x4E487B71 PUSH1 0xE0 SHL PUSH1 0x0 MSTORE PUSH1 0x22 PUSH1 0x4 MSTORE PUSH1 0x24 PUSH1 0x0 REVERT JUMPDEST SWAP2 PUSH1 0x7F AND SWAP2 PUSH2 0x268D JUMP JUMPDEST SWAP1 PUSH1 0x0 SWAP3 SWAP2 DUP1 SLOAD SWAP2 PUSH2 0x26C9 DUP4 PUSH2 0x267E JUMP JUMPDEST SWAP2 DUP3 DUP3 MSTORE PUSH1 0x1 SWAP4 DUP5 DUP2 AND SWAP1 DUP2 PUSH1 0x0 EQ PUSH2 0x272B JUMPI POP PUSH1 0x1 EQ PUSH2 0x26EB JUMPI JUMPDEST POP POP POP POP JUMP JUMPDEST SWAP1 SWAP2 SWAP4 SWAP5 POP PUSH1 0x0 MSTORE PUSH1 0x20 SWAP3 DUP4 PUSH1 0x0 KECCAK256 SWAP3 DUP5 PUSH1 0x0 SWAP5 JUMPDEST DUP4 DUP7 LT PUSH2 0x2717 JUMPI POP POP POP POP ADD ADD SWAP1 CODESIZE DUP1 DUP1 DUP1 PUSH2 0x26E5 JUMP JUMPDEST DUP1 SLOAD DUP6 DUP8 ADD DUP4 ADD MSTORE SWAP5 ADD SWAP4 DUP6 SWAP1 DUP3 ADD PUSH2 0x2700 JUMP JUMPDEST SWAP3 SWAP5 POP POP POP PUSH1 0x20 SWAP4 SWAP5 POP PUSH1 0xFF NOT AND DUP4 DUP4 ADD MSTORE ISZERO ISZERO PUSH1 0x5 SHL ADD ADD SWAP1 CODESIZE DUP1 DUP1 DUP1 PUSH2 0x26E5 JUMP JUMPDEST SWAP1 PUSH1 0x20 SWAP2 PUSH2 0x2767 DUP2 MLOAD DUP1 SWAP3 DUP2 DUP6 MSTORE DUP6 DUP1 DUP7 ADD SWAP2 ADD PUSH2 0x261F JUMP JUMPDEST PUSH1 0x1F ADD PUSH1 0x1F NOT AND ADD ADD SWAP1 JUMP JUMPDEST SWAP2 SWAP3 PUSH2 0x2798 PUSH1 0x80 SWAP5 PUSH2 0x27A6 SWAP4 SWAP9 SWAP8 SWAP7 SWAP9 ISZERO ISZERO DUP6 MSTORE PUSH1 0xA0 PUSH1 0x20 DUP7 ADD MSTORE PUSH1 0xA0 DUP6 ADD SWAP1 PUSH2 0x274E JUMP JUMPDEST SWAP1 DUP4 DUP3 SUB PUSH1 0x40 DUP6 ADD MSTORE PUSH2 0x274E JUMP JUMPDEST SWAP5 PUSH1 0x60 DUP3 ADD MSTORE ADD MSTORE JUMP JUMPDEST DUP1 SLOAD DUP3 LT ISZERO PUSH2 0x2609 JUMPI PUSH1 0x0 MSTORE PUSH1 0xD PUSH1 0x20 PUSH1 0x0 KECCAK256 SWAP2 MUL ADD SWAP1 PUSH1 0x0 SWAP1 JUMP JUMPDEST SWAP1 PUSH1 0x40 MLOAD PUSH2 0x27D9 DUP2 PUSH2 0x24E0 JUMP JUMPDEST PUSH1 0x20 PUSH1 0x1 DUP3 SWAP5 DUP1 SLOAD DUP5 MSTORE ADD SLOAD SWAP2 ADD MSTORE JUMP JUMPDEST SWAP1 PUSH1 0x2 PUSH1 0x40 DUP1 MLOAD PUSH2 0x27FA DUP2 PUSH2 0x24FB JUMP JUMPDEST PUSH2 0x282A DUP2 SWAP6 DUP4 MLOAD PUSH2 0x280F DUP2 PUSH2 0x4D7 DUP2 DUP6 PUSH2 0x26B8 JUMP JUMPDEST DUP4 MSTORE PUSH1 0x1 DUP2 ADD SLOAD PUSH1 0x20 DUP5 ADD MSTORE PUSH2 0x6DC DUP5 MLOAD DUP1 SWAP7 DUP2 SWAP4 ADD PUSH2 0x26B8 JUMP JUMPDEST ADD MSTORE JUMP JUMPDEST SWAP1 PUSH1 0x6 DUP3 LT ISZERO PUSH2 0xC09 JUMPI MSTORE JUMP JUMPDEST PUSH2 0x25CF SWAP2 PUSH1 0x40 PUSH2 0x2854 DUP4 MLOAD PUSH1 0x60 DUP5 MSTORE PUSH1 0x60 DUP5 ADD SWAP1 PUSH2 0x274E JUMP JUMPDEST SWAP3 PUSH1 0x20 DUP2 ADD MLOAD PUSH1 0x20 DUP5 ADD MSTORE ADD MLOAD SWAP1 PUSH1 0x40 DUP2 DUP5 SUB SWAP2 ADD MSTORE PUSH2 0x274E JUMP JUMPDEST PUSH1 0x1 PUSH1 0x1 PUSH1 0x40 SHL SUB DUP2 GT PUSH2 0x13F2 JUMPI PUSH1 0x5 SHL PUSH1 0x20 ADD SWAP1 JUMP JUMPDEST PUSH1 0x0 SLOAD PUSH1 0x1 PUSH1 0x1 PUSH1 0xA0 SHL SUB AND CALLER SUB PUSH2 0x289A JUMPI JUMP JUMPDEST PUSH1 0x40 MLOAD PUSH4 0x118CDAA7 PUSH1 0xE0 SHL DUP2 MSTORE CALLER PUSH1 0x4 DUP3 ADD MSTORE PUSH1 0x24 SWAP1 REVERT JUMPDEST SWAP1 PUSH1 0x1F DUP2 GT PUSH2 0x28C0 JUMPI POP POP POP JUMP JUMPDEST PUSH1 0x0 SWAP2 DUP3 MSTORE PUSH1 0x20 DUP3 KECCAK256 SWAP1 PUSH1 0x20 PUSH1 0x1F DUP6 ADD PUSH1 0x5 SHR DUP4 ADD SWAP5 LT PUSH2 0x28FC JUMPI JUMPDEST PUSH1 0x1F ADD PUSH1 0x5 SHR ADD SWAP2 JUMPDEST DUP3 DUP2 LT PUSH2 0x28F1 JUMPI POP POP POP JUMP JUMPDEST DUP2 DUP2 SSTORE PUSH1 0x1 ADD PUSH2 0x28E5 JUMP JUMPDEST SWAP1 SWAP3 POP DUP3 SWAP1 PUSH2 0x28DC JUMP JUMPDEST ISZERO PUSH2 0x290D JUMPI JUMP JUMPDEST PUSH1 0x40 MLOAD PUSH3 0x461BCD PUSH1 0xE5 SHL DUP2 MSTORE PUSH1 0x20 PUSH1 0x4 DUP3 ADD MSTORE PUSH1 0x18 PUSH1 0x24 DUP3 ADD MSTORE PUSH32 0x4E6F7420616E20617574686F72697A656420776F726B65720000000000000000 PUSH1 0x44 DUP3 ADD MSTORE PUSH1 0x64 SWAP1 REVERT JUMPDEST ISZERO PUSH2 0x2959 JUMPI JUMP JUMPDEST PUSH1 0x40 MLOAD PUSH3 0x461BCD PUSH1 0xE5 SHL DUP2 MSTORE PUSH1 0x20 PUSH1 0x4 DUP3 ADD MSTORE PUSH1 0x17 PUSH1 0x24 DUP3 ADD MSTORE PUSH32 0x496E76616C696420747261636B696E67206E756D626572000000000000000000 PUSH1 0x44 DUP3 ADD MSTORE PUSH1 0x64 SWAP1 REVERT JUMPDEST PUSH1 0x6 DUP3 LT ISZERO PUSH2 0xC09 JUMPI MSTORE JUMP JUMPDEST SWAP1 PUSH1 0x6 DUP2 LT ISZERO PUSH2 0xC09 JUMPI PUSH1 0xFF DUP1 NOT DUP4 SLOAD AND SWAP2 AND OR SWAP1 SSTORE JUMP JUMPDEST PUSH1 0x0 NOT DUP2 EQ PUSH2 0x49D JUMPI PUSH1 0x1 ADD SWAP1 JUMP JUMPDEST PUSH2 0x29E9 SWAP1 PUSH1 0x20 PUSH1 0x40 MLOAD SWAP3 DUP3 DUP5 DUP1 SWAP5 MLOAD SWAP4 DUP5 SWAP3 ADD PUSH2 0x261F JUMP JUMPDEST DUP2 ADD SUB SWAP1 KECCAK256 SWAP1 JUMP JUMPDEST ISZERO PUSH2 0x29F8 JUMPI JUMP JUMPDEST PUSH1 0x40 MLOAD PUSH3 0x461BCD PUSH1 0xE5 SHL DUP2 MSTORE PUSH1 0x20 PUSH1 0x4 DUP3 ADD MSTORE PUSH1 0x19 PUSH1 0x24 DUP3 ADD MSTORE PUSH32 0x4E6F20747261636B696E6720686973746F727920666F756E6400000000000000 PUSH1 0x44 DUP3 ADD MSTORE PUSH1 0x64 SWAP1 REVERT JUMPDEST DUP1 MLOAD ISZERO PUSH2 0x2609 JUMPI PUSH1 0x20 ADD SWAP1 JUMP JUMPDEST DUP1 MLOAD DUP3 LT ISZERO PUSH2 0x2609 JUMPI PUSH1 0x20 SWAP2 PUSH1 0x5 SHL ADD ADD SWAP1 JUMP INVALID LOG2 PUSH5 0x6970667358 0x22 SLT KECCAK256 PUSH28 0xE7171F8C1747B6E11F8CCB1184AF8C14E61E1E6967FED9C0CFE250FB 0xC1 SWAP11 0xC1 PUSH5 0x736F6C6343 STOP ADDMOD EQ STOP CALLER "},"methodIdentifiers":{"authorizedWorkers(uint256)":"2d46d9eb","currentStatus(string)":"4a61caa1","deauthorizeWorker(address)":"ced2393f","generateEmergencyAlert(string,string)":"ad0d1f3c","getAuthorizedWorkers()":"2877a1b0","getBulkStatus(string[])":"ea19c706","getCurrentStatus(string)":"7be1bb1b","getDeliveryPerformance(string)":"9f464e30","getTrackingHistory(string)":"b13e52cf","getWorkerInfo(address)":"ce8ef7a6","lastUpdateTime(string)":"3544e430","lastUpdatedBy(string)":"4444465a","owner()":"8da5cb5b","registerWorker(address,string,string)":"53c8aca8","renounceOwnership()":"715018a6","trackingHistory(string,uint256)":"4202b2ab","transferOwnership(address)":"f2fde38b","updateStatus(string,string,(int256,int256),uint8,bytes,(string,uint256,string))":"11b18382","verifyTimeProof(string,uint256,bytes32)":"558a5e33","workers(address)":"4048a257"}}}}}