{
  "_format": "hh-sol-artifact-1",
  "contractName": "DeliveryGuarantee",
  "sourceName": "contracts/DeliveryGuarantee.sol",
  "abi": [
    {
      "inputs": [],
      "stateMutability": "nonpayable",
      "type": "constructor"
    },
    {
      "inputs": [
        {
          "internalType": "address",
          "name": "owner",
          "type": "address"
        }
      ],
      "name": "OwnableInvalidOwner",
      "type": "error"
    },
    {
      "inputs": [
        {
          "internalType": "address",
          "name": "account",
          "type": "address"
        }
      ],
      "name": "OwnableUnauthorizedAccount",
      "type": "error"
    },
    {
      "inputs": [],
      "name": "ReentrancyGuardReentrantCall",
      "type": "error"
    },
    {
      "anonymous": false,
      "inputs": [
        {
          "indexed": true,
          "internalType": "string",
          "name": "guaranteeId",
          "type": "string"
        },
        {
          "indexed": false,
          "internalType": "string",
          "name": "reason",
          "type": "string"
        },
        {
          "indexed": false,
          "internalType": "uint256",
          "name": "timestamp",
          "type": "uint256"
        },
        {
          "indexed": false,
          "internalType": "address[]",
          "name": "notifiedContacts",
          "type": "address[]"
        }
      ],
      "name": "EmergencyAlertTriggered",
      "type": "event"
    },
    {
      "anonymous": false,
      "inputs": [
        {
          "indexed": true,
          "internalType": "string",
          "name": "guaranteeId",
          "type": "string"
        },
        {
          "indexed": false,
          "internalType": "uint256",
          "name": "amount",
          "type": "uint256"
        },
        {
          "indexed": false,
          "internalType": "address",
          "name": "token",
          "type": "address"
        },
        {
          "indexed": false,
          "internalType": "address",
          "name": "depositor",
          "type": "address"
        }
      ],
      "name": "EscrowDeposited",
      "type": "event"
    },
    {
      "anonymous": false,
      "inputs": [
        {
          "indexed": true,
          "internalType": "string",
          "name": "guaranteeId",
          "type": "string"
        },
        {
          "indexed": false,
          "internalType": "address",
          "name": "recipient",
          "type": "address"
        },
        {
          "indexed": false,
          "internalType": "uint256",
          "name": "amount",
          "type": "uint256"
        },
        {
          "indexed": false,
          "internalType": "bool",
          "name": "isPenalty",
          "type": "bool"
        }
      ],
      "name": "EscrowReleased",
      "type": "event"
    },
    {
      "anonymous": false,
      "inputs": [
        {
          "indexed": true,
          "internalType": "string",
          "name": "guaranteeId",
          "type": "string"
        },
        {
          "indexed": true,
          "internalType": "string",
          "name": "mailId",
          "type": "string"
        },
        {
          "indexed": true,
          "internalType": "address",
          "name": "customer",
          "type": "address"
        },
        {
          "indexed": false,
          "internalType": "uint256",
          "name": "guaranteedTime",
          "type": "uint256"
        },
        {
          "indexed": false,
          "internalType": "uint256",
          "name": "penaltyAmount",
          "type": "uint256"
        },
        {
          "indexed": false,
          "internalType": "uint256",
          "name": "escrowAmount",
          "type": "uint256"
        }
      ],
      "name": "GuaranteeCreated",
      "type": "event"
    },
    {
      "anonymous": false,
      "inputs": [
        {
          "indexed": true,
          "internalType": "string",
          "name": "guaranteeId",
          "type": "string"
        },
        {
          "indexed": false,
          "internalType": "enum DeliveryGuarantee.GuaranteeStatus",
          "name": "newStatus",
          "type": "uint8"
        },
        {
          "indexed": false,
          "internalType": "uint256",
          "name": "timestamp",
          "type": "uint256"
        }
      ],
      "name": "GuaranteeUpdated",
      "type": "event"
    },
    {
      "anonymous": false,
      "inputs": [
        {
          "indexed": true,
          "internalType": "address",
          "name": "previousOwner",
          "type": "address"
        },
        {
          "indexed": true,
          "internalType": "address",
          "name": "newOwner",
          "type": "address"
        }
      ],
      "name": "OwnershipTransferred",
      "type": "event"
    },
    {
      "anonymous": false,
      "inputs": [
        {
          "indexed": true,
          "internalType": "string",
          "name": "guaranteeId",
          "type": "string"
        },
        {
          "indexed": false,
          "internalType": "address",
          "name": "recipient",
          "type": "address"
        },
        {
          "indexed": false,
          "internalType": "uint256",
          "name": "amount",
          "type": "uint256"
        },
        {
          "indexed": false,
          "internalType": "uint256",
          "name": "timestamp",
          "type": "uint256"
        }
      ],
      "name": "PenaltyPaid",
      "type": "event"
    },
    {
      "anonymous": false,
      "inputs": [
        {
          "indexed": true,
          "internalType": "string",
          "name": "mailId",
          "type": "string"
        },
        {
          "indexed": false,
          "internalType": "enum DeliveryGuarantee.SLAStatus",
          "name": "newStatus",
          "type": "uint8"
        },
        {
          "indexed": false,
          "internalType": "uint256",
          "name": "timestamp",
          "type": "uint256"
        }
      ],
      "name": "SLAStatusUpdated",
      "type": "event"
    },
    {
      "inputs": [
        {
          "internalType": "uint256",
          "name": "",
          "type": "uint256"
        }
      ],
      "name": "allGuaranteeIds",
      "outputs": [
        {
          "internalType": "string",
          "name": "",
          "type": "string"
        }
      ],
      "stateMutability": "view",
      "type": "function"
    },
    {
      "inputs": [
        {
          "internalType": "string",
          "name": "guaranteeId",
          "type": "string"
        }
      ],
      "name": "cancelGuarantee",
      "outputs": [],
      "stateMutability": "nonpayable",
      "type": "function"
    },
    {
      "inputs": [
        {
          "internalType": "string",
          "name": "guaranteeId",
          "type": "string"
        },
        {
          "internalType": "string",
          "name": "mailId",
          "type": "string"
        },
        {
          "internalType": "uint256",
          "name": "guaranteedTime",
          "type": "uint256"
        },
        {
          "internalType": "uint256",
          "name": "penaltyAmount",
          "type": "uint256"
        },
        {
          "internalType": "uint256",
          "name": "insuranceAmount",
          "type": "uint256"
        },
        {
          "internalType": "string[]",
          "name": "escalationContacts",
          "type": "string[]"
        },
        {
          "internalType": "bool",
          "name": "requiresProofOfTime",
          "type": "bool"
        },
        {
          "internalType": "bytes32",
          "name": "contractTermsHash",
          "type": "bytes32"
        }
      ],
      "name": "createGuarantee",
      "outputs": [],
      "stateMutability": "payable",
      "type": "function"
    },
    {
      "inputs": [
        {
          "internalType": "address",
          "name": "",
          "type": "address"
        },
        {
          "internalType": "uint256",
          "name": "",
          "type": "uint256"
        }
      ],
      "name": "customerGuarantees",
      "outputs": [
        {
          "internalType": "string",
          "name": "",
          "type": "string"
        }
      ],
      "stateMutability": "view",
      "type": "function"
    },
    {
      "inputs": [
        {
          "internalType": "string",
          "name": "guaranteeId",
          "type": "string"
        },
        {
          "internalType": "string",
          "name": "reason",
          "type": "string"
        }
      ],
      "name": "disputeGuarantee",
      "outputs": [],
      "stateMutability": "nonpayable",
      "type": "function"
    },
    {
      "inputs": [
        {
          "internalType": "string",
          "name": "",
          "type": "string"
        },
        {
          "internalType": "uint256",
          "name": "",
          "type": "uint256"
        }
      ],
      "name": "emergencyContacts",
      "outputs": [
        {
          "internalType": "address",
          "name": "",
          "type": "address"
        }
      ],
      "stateMutability": "view",
      "type": "function"
    },
    {
      "inputs": [],
      "name": "emergencyWithdraw",
      "outputs": [],
      "stateMutability": "nonpayable",
      "type": "function"
    },
    {
      "inputs": [
        {
          "internalType": "string",
          "name": "",
          "type": "string"
        }
      ],
      "name": "escrowDetails",
      "outputs": [
        {
          "internalType": "uint256",
          "name": "amount",
          "type": "uint256"
        },
        {
          "internalType": "address",
          "name": "token",
          "type": "address"
        },
        {
          "internalType": "bool",
          "name": "isReleased",
          "type": "bool"
        },
        {
          "internalType": "uint256",
          "name": "releaseTime",
          "type": "uint256"
        },
        {
          "internalType": "address",
          "name": "releaseAuthority",
          "type": "address"
        }
      ],
      "stateMutability": "view",
      "type": "function"
    },
    {
      "inputs": [
        {
          "internalType": "string",
          "name": "guaranteeId",
          "type": "string"
        },
        {
          "internalType": "string",
          "name": "mailId",
          "type": "string"
        },
        {
          "internalType": "uint256",
          "name": "guaranteedTime",
          "type": "uint256"
        },
        {
          "internalType": "uint256",
          "name": "penaltyAmount",
          "type": "uint256"
        },
        {
          "internalType": "uint256",
          "name": "insuranceAmount",
          "type": "uint256"
        },
        {
          "internalType": "string[]",
          "name": "escalationContacts",
          "type": "string[]"
        },
        {
          "internalType": "bool",
          "name": "requiresProofOfTime",
          "type": "bool"
        },
        {
          "internalType": "bytes32",
          "name": "contractTermsHash",
          "type": "bytes32"
        }
      ],
      "name": "estimateGuaranteeCreation",
      "outputs": [
        {
          "internalType": "uint256",
          "name": "",
          "type": "uint256"
        }
      ],
      "stateMutability": "view",
      "type": "function"
    },
    {
      "inputs": [
        {
          "internalType": "address",
          "name": "customer",
          "type": "address"
        }
      ],
      "name": "getCustomerGuarantees",
      "outputs": [
        {
          "internalType": "string[]",
          "name": "",
          "type": "string[]"
        }
      ],
      "stateMutability": "view",
      "type": "function"
    },
    {
      "inputs": [
        {
          "internalType": "string",
          "name": "mailId",
          "type": "string"
        }
      ],
      "name": "getDeliveryPerformance",
      "outputs": [
        {
          "internalType": "uint256",
          "name": "guaranteedTime",
          "type": "uint256"
        },
        {
          "internalType": "uint256",
          "name": "actualDeliveryTime",
          "type": "uint256"
        },
        {
          "internalType": "enum DeliveryGuarantee.SLAStatus",
          "name": "slaCompliance",
          "type": "uint8"
        },
        {
          "internalType": "bool",
          "name": "deliveredOnTime",
          "type": "bool"
        },
        {
          "internalType": "uint256",
          "name": "timeAheadOrBehind",
          "type": "uint256"
        }
      ],
      "stateMutability": "view",
      "type": "function"
    },
    {
      "inputs": [
        {
          "internalType": "string",
          "name": "guaranteeId",
          "type": "string"
        }
      ],
      "name": "getEscrowDetails",
      "outputs": [
        {
          "internalType": "uint256",
          "name": "amount",
          "type": "uint256"
        },
        {
          "internalType": "address",
          "name": "token",
          "type": "address"
        },
        {
          "internalType": "bool",
          "name": "isReleased",
          "type": "bool"
        },
        {
          "internalType": "uint256",
          "name": "releaseTime",
          "type": "uint256"
        },
        {
          "internalType": "address",
          "name": "releaseAuthority",
          "type": "address"
        }
      ],
      "stateMutability": "view",
      "type": "function"
    },
    {
      "inputs": [
        {
          "internalType": "string",
          "name": "guaranteeId",
          "type": "string"
        }
      ],
      "name": "getGuarantee",
      "outputs": [
        {
          "internalType": "string",
          "name": "mailId",
          "type": "string"
        },
        {
          "internalType": "uint256",
          "name": "guaranteedTime",
          "type": "uint256"
        },
        {
          "internalType": "uint256",
          "name": "penaltyAmount",
          "type": "uint256"
        },
        {
          "internalType": "address",
          "name": "customer",
          "type": "address"
        },
        {
          "internalType": "enum DeliveryGuarantee.GuaranteeStatus",
          "name": "status",
          "type": "uint8"
        },
        {
          "internalType": "uint256",
          "name": "creationTime",
          "type": "uint256"
        },
        {
          "internalType": "uint256",
          "name": "actualDeliveryTime",
          "type": "uint256"
        },
        {
          "internalType": "bool",
          "name": "penaltyPaid",
          "type": "bool"
        }
      ],
      "stateMutability": "view",
      "type": "function"
    },
    {
      "inputs": [],
      "name": "getPerformanceMetrics",
      "outputs": [
        {
          "internalType": "uint256",
          "name": "total",
          "type": "uint256"
        },
        {
          "internalType": "uint256",
          "name": "onTimeDeliveries",
          "type": "uint256"
        },
        {
          "internalType": "uint256",
          "name": "delayedDeliveries",
          "type": "uint256"
        },
        {
          "internalType": "uint256",
          "name": "totalPenaltiesPaid",
          "type": "uint256"
        },
        {
          "internalType": "uint256",
          "name": "successRate",
          "type": "uint256"
        }
      ],
      "stateMutability": "view",
      "type": "function"
    },
    {
      "inputs": [
        {
          "internalType": "string",
          "name": "",
          "type": "string"
        }
      ],
      "name": "guaranteeExists",
      "outputs": [
        {
          "internalType": "bool",
          "name": "",
          "type": "bool"
        }
      ],
      "stateMutability": "view",
      "type": "function"
    },
    {
      "inputs": [
        {
          "internalType": "string",
          "name": "",
          "type": "string"
        }
      ],
      "name": "guarantees",
      "outputs": [
        {
          "internalType": "string",
          "name": "guaranteeId",
          "type": "string"
        },
        {
          "internalType": "string",
          "name": "mailId",
          "type": "string"
        },
        {
          "internalType": "uint256",
          "name": "guaranteedTime",
          "type": "uint256"
        },
        {
          "internalType": "uint256",
          "name": "penaltyAmount",
          "type": "uint256"
        },
        {
          "internalType": "uint256",
          "name": "insuranceAmount",
          "type": "uint256"
        },
        {
          "internalType": "address",
          "name": "customer",
          "type": "address"
        },
        {
          "internalType": "address",
          "name": "escrowAddress",
          "type": "address"
        },
        {
          "internalType": "enum DeliveryGuarantee.GuaranteeStatus",
          "name": "status",
          "type": "uint8"
        },
        {
          "internalType": "uint256",
          "name": "creationTime",
          "type": "uint256"
        },
        {
          "internalType": "uint256",
          "name": "escrowAmount",
          "type": "uint256"
        },
        {
          "internalType": "bytes32",
          "name": "contractTermsHash",
          "type": "bytes32"
        },
        {
          "internalType": "bool",
          "name": "requiresProofOfTime",
          "type": "bool"
        },
        {
          "internalType": "uint256",
          "name": "actualDeliveryTime",
          "type": "uint256"
        },
        {
          "internalType": "bool",
          "name": "penaltyPaid",
          "type": "bool"
        }
      ],
      "stateMutability": "view",
      "type": "function"
    },
    {
      "inputs": [
        {
          "internalType": "string",
          "name": "mailId",
          "type": "string"
        },
        {
          "internalType": "uint256",
          "name": "currentTime",
          "type": "uint256"
        }
      ],
      "name": "monitorSLA",
      "outputs": [],
      "stateMutability": "nonpayable",
      "type": "function"
    },
    {
      "inputs": [],
      "name": "owner",
      "outputs": [
        {
          "internalType": "address",
          "name": "",
          "type": "address"
        }
      ],
      "stateMutability": "view",
      "type": "function"
    },
    {
      "inputs": [
        {
          "internalType": "address",
          "name": "",
          "type": "address"
        }
      ],
      "name": "performanceMetrics",
      "outputs": [
        {
          "internalType": "uint256",
          "name": "totalGuarantees",
          "type": "uint256"
        },
        {
          "internalType": "uint256",
          "name": "onTimeDeliveries",
          "type": "uint256"
        },
        {
          "internalType": "uint256",
          "name": "delayedDeliveries",
          "type": "uint256"
        },
        {
          "internalType": "uint256",
          "name": "totalPenaltiesPaid",
          "type": "uint256"
        },
        {
          "internalType": "uint256",
          "name": "averageDeliveryTime",
          "type": "uint256"
        },
        {
          "internalType": "uint256",
          "name": "customerSatisfactionScore",
          "type": "uint256"
        }
      ],
      "stateMutability": "view",
      "type": "function"
    },
    {
      "inputs": [],
      "name": "renounceOwnership",
      "outputs": [],
      "stateMutability": "nonpayable",
      "type": "function"
    },
    {
      "inputs": [
        {
          "internalType": "string",
          "name": "",
          "type": "string"
        }
      ],
      "name": "slaStatus",
      "outputs": [
        {
          "internalType": "enum DeliveryGuarantee.SLAStatus",
          "name": "",
          "type": "uint8"
        }
      ],
      "stateMutability": "view",
      "type": "function"
    },
    {
      "inputs": [],
      "name": "totalEscrowAmount",
      "outputs": [
        {
          "internalType": "uint256",
          "name": "",
          "type": "uint256"
        }
      ],
      "stateMutability": "view",
      "type": "function"
    },
    {
      "inputs": [],
      "name": "totalGuarantees",
      "outputs": [
        {
          "internalType": "uint256",
          "name": "",
          "type": "uint256"
        }
      ],
      "stateMutability": "view",
      "type": "function"
    },
    {
      "inputs": [
        {
          "internalType": "address",
          "name": "newOwner",
          "type": "address"
        }
      ],
      "name": "transferOwnership",
      "outputs": [],
      "stateMutability": "nonpayable",
      "type": "function"
    },
    {
      "inputs": [
        {
          "internalType": "string",
          "name": "guaranteeId",
          "type": "string"
        },
        {
          "internalType": "uint256",
          "name": "actualDeliveryTime",
          "type": "uint256"
        },
        {
          "internalType": "bool",
          "name": "wasDeliveredOnTime",
          "type": "bool"
        }
      ],
      "name": "updateGuaranteeStatus",
      "outputs": [],
      "stateMutability": "nonpayable",
      "type": "function"
    }
  ],
  "bytecode": "0x6080806040523461007e5733156100685760008054336001600160a01b03198216811783556040519290916001600160a01b0316907f8be0079c531659141344cd1fd0a4f28419497f9722a3daafe3b4186f6b6457e09080a360018055612a3990816100848239f35b631e4fbdf760e01b815260006004820152602490fd5b600080fdfe6080604052600436101561001257600080fd5b60003560e01c80630992302214611e2c57806310a1287514611e0e57806313ed17c114611c5757806315716c61146116a057806319b0a08a1461160a5780632f43f3d3146115dd578063341100921461157d57806358d56e3f14611418578063715018a6146113bf5780637ed23dfb146111f95780638aabc967146111ab5780638da5cb5b146111825780639bdf9c091461111b5780639f464e3014610e94578063ae91639714610e76578063b56630b314610c2f578063b685473214610bbe578063d64d8f0814610727578063d7af0ba4146106b2578063db2e21bc146105fb578063dc9061821461053e578063e32ad839146104d8578063f2fde38b1461044a578063fda9a3261461024d5763ff083a971461012f57600080fd5b346102485760003660031901126102485730600052600660205260406000206040519060c082018281106001600160401b038211176102325760405280549182815260018201549260208201928484526002810154916040840192835260056003830154926060860193845260048101546080870152015460a085015215156000146102265760648502948086046064149015171561021057825180156101fa5760a09504925b51935191519051916040519485526020850152604084015260608301526080820152f35b634e487b7160e01b600052601260045260246000fd5b634e487b7160e01b600052601160045260246000fd5b60a094506000926101d6565b634e487b7160e01b600052604160045260246000fd5b600080fd5b3461024857602080600319360112610248576004356001600160401b03811161024857816102826102c1923690600401611f69565b604051906102b060ff82519385818186019661029f81838a611fb0565b81016005815203019020541661258f565b604051938492839251928391611fb0565b81016002815203019020604051916102d883611ec0565b6040516102f0816102e981866121af565b0382611f2d565b83526040519161030e8361030781600185016121af565b0384611f2d565b81840192835260028101549360408101948552600382015491606082019283526004810154608083015260018060a01b038060058301541660a08401908152600683015482811660c086015261036e60ff60e087019260a01c1682612414565b60078401549261010098898701948552600886015461012088015260098601546101408801526103a0600a87016126f8565b61016088015260ff600b8701541615156101808801526101c060ff600d600c890154986101a08b01998a520154169701961515875251995196519251169051916005831015610434576104219351945195511515966104096040519b8b8d9c8d528c01906120eb565b988a0152604089015260608801526080870190612291565b60a085015260c084015260e08301520390f35b634e487b7160e01b600052602160045260246000fd5b34610248576020366003190112610248576104636120d5565b61046b6122ab565b6001600160a01b039081169081156104bf57600054826bffffffffffffffffffffffff60a01b821617600055167f8be0079c531659141344cd1fd0a4f28419497f9722a3daafe3b4186f6b6457e0600080a3005b604051631e4fbdf760e01b815260006004820152602490fd5b34610248576020366003190112610248576004356001600160401b0381116102485760ff610523602061051081943690600401611f69565b8160405193828580945193849201611fb0565b81016007815203019020541661053c604051809261229e565bf35b34610248576020366003190112610248576004356001600160401b038111610248576020610282610573923690600401611f69565b810160038152030190206040519061058a82611edc565b805480835260018201546001600160a01b03808216602080870182905260ff60a094851c161515604080890182905260028801546060808b018290526003909901549095166080998a01819052815197885292870193909352918501919091529383015292810191909152f35b0390f35b34610248576000366003190112610248576106146122ab565b4780156106765760008080809360018060a01b038254165af161063561275d565b501561063d57005b60405162461bcd60e51b815260206004820152601160248201527015da5d1a191c985dd85b0819985a5b1959607a1b6044820152606490fd5b60405162461bcd60e51b81526020600482015260146024820152734e6f2066756e647320746f20776974686472617760601b6044820152606490fd5b346102485761071a60ff6107126106f161070b60206107036106d336611fea565b50509a94919893969250508160405193828580945193849201611fb0565b810160058152030190205416156122d7565b511515612323565b151561236f565b5115156123c9565b602060405162061a808152f35b34610248576060366003190112610248576004356001600160401b03811161024857610757903690600401611f69565b60243590604435908115158203610248576107706122ab565b60405161078d60ff8351926020818187019561029f818389611fb0565b60405160208184516107a0818387611fb0565b810160028152030190209260068401549060ff8260a01c166005811015610434576107cb90156125db565b85600c86015560001461093757505060068201805460ff60a01b1916600160a01b1790556002820154610e0f19810190811161021057600193101561092d5761082f60035b6040516020816108228189890161261e565b6007815203019020612557565b610844838060a01b036005840154168261278d565b3060005260066020528260406000200161085e815461253b565b90555b3060005260066020526040600020610879815461253b565b90557fc485d156d731634eab4b6d8982f66db8d849d40725adbc3ca035841c3460bdc260406108b260ff600686015460a01c169361256f565b926108bf82518092612291565b426020820152a2017f2d947c4938648bb4c77d9e3c996f735c451f1e3d631682fdd282dc1f47aba121604061091460ff82516020816108fe818961261e565b600781520301902054169382519182809261261e565b039020926109248251809261229e565b426020820152a2005b61082f6000610810565b60ff60a01b1916600160a11b17600684015560405190935060208161095f816001870161261e565b600781520301902060ff1990600282825416179055604051602081845161098781838a611fb0565b8101600281520301902090600d82019081549060ff8216610b8257600191161790556109cd602060018060a01b0360058401541695604051809381928751928391611fb0565b81016003815203019020600181015460ff8160a01c16610b3d5760ff60a01b1916600160a01b17600182015542600282015554600a54610a0e9082906126a0565b600a55600080808084895af1610a2261275d565b5015610b00577fdee38d1d18e0244ed4529d0ae9178041d0b343ec485c45d696aab5a2c7bb82876060600196610a578661256f565b936040519182526020820152876040820152a27f26cd7b917f3fea280dad550ebcc65f19fde13d0c307b765ac7f014092f2717c260606003868060a01b0360058501541693015492610aa88561256f565b936040519182526020820152426040820152a23060005260066020526002604060002001610ad6815461253b565b90556003820154306000526006602052610af9600360406000200191825461254a565b9055610861565b60405162461bcd60e51b8152602060048201526015602482015274115cd8dc9bddc81c995b19585cd94819985a5b1959605a1b6044820152606490fd5b60405162461bcd60e51b815260206004820152601760248201527f457363726f7720616c72656164792072656c65617365640000000000000000006044820152606490fd5b60405162461bcd60e51b815260206004820152601460248201527314195b985b1d1e48185b1c9958591e481c185a5960621b6044820152606490fd5b34610248576020366003190112610248576001600160a01b03610bdf6120d5565b16600052600660205260c0604060002080549060018101549060028101546003820154906005600484015493015493604051958652602086015260408501526060840152608083015260a0820152f35b3461024857610c3d36612260565b604051610c4981611ef7565b60008152916000600854905b818110610df2575b5050610c6b835115156126ad565b6040519182845160209481610c84879383858b01611fb0565b8101600281520301902060ff600682015460a01c1690600582101561043457610caf600292156125db565b01549080821115610de957610cc3916126a0565b80610dd157506002905b6040519060ff815192858181850195610ce7818389611fb0565b8101600781520301902054166004811015610434576004841015610434578303610d0d57005b610d3983610d2a86610d3e95604051809381928851928391611fb0565b81016007815203019020612557565b61256f565b7f2d947c4938648bb4c77d9e3c996f735c451f1e3d631682fdd282dc1f47aba12160408051610d6d818661229e565b4286820152a260018114908115610dc6575b50610d8657005b610dc4917f534c41206174207269736b206f7220627265616368656400000000000000000060405192610db884611f12565b6017845283015261284b565b005b600291501483610d7f565b611c2010610de157600190610ccd565b600090610ccd565b50506000610cc3565b610e136102e9610e2d6001610e0685612110565b506040519485809261261e565b6002815260209586910301902001604051928380926121af565b8181519101209084519085012014610e4d57610e489061253b565b610c55565b6102e9929450610e6e9150610e6190612110565b50604051928380926121af565b918380610c5d565b34610248576000366003190112610248576020600a54604051908152f35b3461024857602080600319360112610248576004356001600160401b03811161024857610ec5903690600401611f69565b90604051610ed281611ef7565b60008152916000600854838301915b8181106110a7575b5050610efe838561051060a0975115156126ad565b810160028152030190209260405190610f1682611ec0565b604051610f27816102e981896121af565b8252604051610f3d816102e98160018a016121af565b81830152600285015493604083019485526003860154606084015260048601546080840152610f9160ff6001808a1b038060058a0154168a870152600689015490811660c0870152891c1660e08501612414565b600786015461010084015260088601546101208401526009860154610140840152610fbe600a87016126f8565b61016084015260ff600b870154161515610180840152600c860154926101c060ff600d6101a0840199878b520154161515910152821515938493849561109b575b600095611058575b5061102a8360ff9261104a96979851995194604051938492839251928391611fb0565b81016007815203019020541691604051968752860152604085019061229e565b151560608301526080820152f35b61104a9495508360ff9261102a9289519081811160001461108d5750506110828a518a51906126a0565b979650925050611007565b611096916126a0565b611082565b86518111159450610fff565b6102e96110de60016110c9886110bc86612110565b506040519283809261261e565b600281520301902001604051928380926121af565b85815191012084518420146110fb576110f69061253b565b610ee1565b60a09550610efe91506102e9611114610e618793612110565b9550610ee9565b34610248576040366003190112610248576111346120d5565b6001600160a01b031660009081526004602052604090208054602435908110156102485761116861116e916105f79361215d565b90612245565b6040519182916020835260208301906120eb565b34610248576000366003190112610248576000546040516001600160a01b039091168152602090f35b34610248576020366003190112610248576004356001600160401b0381116102485760ff6111e3602061051081943690600401611f69565b8101600581520301902054166040519015158152f35b34610248576040366003190112610248576001600160401b036004358181116102485761122a903690600401611f69565b6024359182116102485761124460ff923690600401611f69565b611276604051835161126560209683888095818a019561029f818389611fb0565b604051809381928751928391611fb0565b6002908201908152030190206005810154336001600160a01b03918216149081156113b1575b501561136c57600601805460ff8160a01c1660058110156104345760028114908115611361575b501561131c5760ff60a01b1916600360a01b1790557fc485d156d731634eab4b6d8982f66db8d849d40725adbc3ca035841c3460bdc29160409161130c9190610d39908261284b565b92815190600382524290820152a2005b60405162461bcd60e51b815260048101869052601a60248201527f496e76616c69642073746174757320666f7220646973707574650000000000006044820152606490fd5b6001915014866112c3565b60405162461bcd60e51b815260048101859052601960248201527f4e6f7420617574686f72697a656420746f2064697370757465000000000000006044820152606490fd5b90506000541633148561129c565b34610248576000366003190112610248576113d86122ab565b600080546001600160a01b0319811682556001600160a01b03167f8be0079c531659141344cd1fd0a4f28419497f9722a3daafe3b4186f6b6457e08280a3005b34610248576020366003190112610248576004356001600160401b03811161024857611448903690600401611f69565b604051818180935160208193019161145f92611fb0565b8101600281520360200190206040518061147981846121af565b036114849082611f2d565b604051918261149681600184016121af565b036114a19084611f2d565b6002810154906003810154906004810154600160a01b6001900360058301541660068301546007840154600885015491600986015493600b87015460ff1695600c88015497600d015460ff16986040519c8d9c8d6101c09081815201611506916120eb565b8d810360208f0152611517916120eb565b9a60408d015260608c015260808b015260a08a0152600160a01b60019003811660c08a015260e089019060a01c60ff169061155191612291565b610100880152610120870152610140860152151561016085015261018084015215156101a08301520390f35b346102485760206115a561159036612260565b92908160405193828580945193849201611fb0565b8101600b8152030190208054821015610248576020916115c49161215d565b905460405160039290921b1c6001600160a01b03168152f35b34610248576020366003190112610248576004356008548110156102485761116e6111686105f792612110565b3461024857602080600319360112610248576001600160a01b0361162c6120d5565b166000526004815261164160406000206126f8565b6040519082820192808352815180945260408301938160408260051b8601019301916000955b8287106116745785850386f35b909192938280611690600193603f198a820301865288516120eb565b9601920196019592919092611667565b6116a936611fea565b96959691909142861115611c0457600260015414611bf25760026001556116e260ff604051602081816106f18d83815193849201611fb0565b6116ee88511515612323565b6116f985151561236f565b843410611bad5761170c825115156123c9565b6040519361171985611ec0565b87855288602086015286604086015285606086015260808501523360a08501523060c0850152600060e08501524261010085015234610120850152610140840152610160830152151561018082015260006101a082015260006101c0820152604051602081865161178d8183858b01611fb0565b81016002815203019020906117a3815183612437565b6117b4602082015160018401612437565b60408101516002830155606081015160038301556080810151600483015560a0810151600580840180546001600160a01b0319166001600160a01b0393841617905560c083015160068501805460e086015191949093921691811015610434576001600160a81b03199092161760a09190911b60ff60a01b16179055610100810151600783015561012081015160088301556101408101516009830155610160810151805190600160401b821161023257600a84015482600a860155808310611b34575b50602001600a840160005260206000206000915b838310611b17575050505090600d6101c0836118c16101806118e39601511515600b86019060ff801983541691151516179055565b6101a0810151600c8501550151151591019060ff801983541691151516179055565b60405160208185516118f88183858a01611fb0565b81016005815203019020600160ff1982541617905533600052600460205260406000208054600160401b811015610232576119389160018201815561215d565b611b01578361194691612437565b600854600160401b811015610232578060016119659201600855612110565b949094611b015761197984611ac496612437565b61198460095461253b565b60095561199334600a5461254a565b600a5560018060a01b036000541660036040516119af81611edc565b3481526020810160008152604082019060008252606083019160008352608084019586526119ec60208b8160405193828580945193849201611fb0565b81018881520301902093518455905160018401805492516001600160a81b03199093166001600160a01b039283161792151560a01b60ff60a01b1692909217909155905160028301559251910180546001600160a01b0319169190921617905560405181516020908290611a638183878601611fb0565b8101600781520301902060ff198154169055611a87611a818561256f565b9161256f565b9160405193845260208401523460408401527f8e8a1c7cea96495ca29a500ded69360a5b6eba5039f26ba93dbc7cc48223355060603394a461256f565b7ff6449ee315c2999f587a13ce84b62c99dbe84fa24a3389eba809ab5026d33314606060405134815260006020820152336040820152a260018055005b634e487b7160e01b600052600060045260246000fd5b6001602082611b2883945186612437565b0192019201919061188c565b600a85016000526020600020908382015b8183018110611b55575050611878565b80611b6260019254612175565b80611b6f575b5001611b45565b601f908181118414611b88575050600081555b8c611b68565b611ba460009284845260208420920160051c8201858301612420565b81835555611b82565b60405162461bcd60e51b815260206004820152601a60248201527f496e73756666696369656e7420657363726f7720616d6f756e740000000000006044820152606490fd5b604051633ee5aeb560e01b8152600490fd5b60405162461bcd60e51b815260206004820152602560248201527f47756172616e746565642074696d65206d75737420626520696e207468652066604482015264757475726560d81b6064820152608490fd5b3461024857602080600319360112610248576004356001600160401b03811161024857611c88903690600401611f69565b604051611ca460ff83519285818187019561029f818389611fb0565b604051908251611cb5818484611fb0565b8201600281526005838660018060a01b03958694030190200154163303611dbb5783611cec91604051809381928751928391611fb0565b8101600281520301902060068101805460ff8160a01c16600581101561043457611d1690156125db565b600c830154611d765760ff60a01b1916600160a21b179055600501547fc485d156d731634eab4b6d8982f66db8d849d40725adbc3ca035841c3460bdc292604092611d6692610d3991168261278d565b92815190600482524290820152a2005b60405162461bcd60e51b815260048101879052601c60248201527f43616e6e6f742063616e63656c2061667465722064656c6976657279000000006044820152606490fd5b60405162461bcd60e51b815260048101859052602560248201527f4f6e6c7920637573746f6d65722063616e20706572666f726d2074686973206160448201526431ba34b7b760d91b6064820152608490fd5b34610248576000366003190112610248576020600954604051908152f35b34610248576020366003190112610248576004356001600160401b038111610248576020610510611e61923690600401611f69565b600390820181815291909103919091019091208054600182015460028301549290930154604080519283526001600160a01b03808616602085015260ff60a096871c161515918401919091526060830193909352919091166080820152f35b6101e081019081106001600160401b0382111761023257604052565b60a081019081106001600160401b0382111761023257604052565b602081019081106001600160401b0382111761023257604052565b604081019081106001600160401b0382111761023257604052565b90601f801991011681019081106001600160401b0382111761023257604052565b6001600160401b03811161023257601f01601f191660200190565b81601f8201121561024857803590611f8082611f4e565b92611f8e6040519485611f2d565b8284526020838301011161024857816000926020809301838601378301015290565b60005b838110611fc35750506000910152565b8181015183820152602001611fb3565b6001600160401b0381116102325760051b60200190565b90610100600319830112610248576001600160401b03600435818111610248578361201791600401611f69565b9260248035838111610248578261203091600401611f69565b9360443593606435936084359360a43592808411610248578260238501121561024857836004013561206181611fd3565b9461206f6040519687611f2d565b818652602094848688019360051b8301019481861161024857808301935b8685106120b05750505050505050509060c4358015158103610248579060e43590565b84358681116102485788916120ca85858594890101611f69565b81520194019361208d565b600435906001600160a01b038216820361024857565b9060209161210481518092818552858086019101611fb0565b601f01601f1916010190565b6008548110156121475760086000527ff3f7a9fe364faab93b216da50a3214154f22a0a2b415b23a84c8169e8b636ee30190600090565b634e487b7160e01b600052603260045260246000fd5b80548210156121475760005260206000200190600090565b90600182811c921680156121a5575b602083101461218f57565b634e487b7160e01b600052602260045260246000fd5b91607f1691612184565b90600092918054916121c083612175565b91828252600193848116908160001461222257506001146121e2575b50505050565b90919394506000526020928360002092846000945b83861061220e5750505050010190388080806121dc565b8054858701830152940193859082016121f7565b9294505050602093945060ff191683830152151560051b010190388080806121dc565b90611b015761225d6102e991604051928380926121af565b90565b604060031982011261024857600435906001600160401b0382116102485761228a91600401611f69565b9060243590565b9060058210156104345752565b9060048210156104345752565b6000546001600160a01b031633036122bf57565b60405163118cdaa760e01b8152336004820152602490fd5b156122de57565b60405162461bcd60e51b815260206004820152601b60248201527f47756172616e74656520494420616c72656164792065786973747300000000006044820152606490fd5b1561232a57565b60405162461bcd60e51b815260206004820152601760248201527f4d61696c2049442063616e6e6f7420626520656d7074790000000000000000006044820152606490fd5b1561237657565b60405162461bcd60e51b815260206004820152602560248201527f50656e616c747920616d6f756e74206d75737420626520677265617465722074604482015264068616e20360dc1b6064820152608490fd5b156123d057565b606460405162461bcd60e51b815260206004820152602060248201527f4d7573742070726f7669646520657363616c6174696f6e20636f6e74616374736044820152fd5b60058210156104345752565b81811061242b575050565b60008155600101612420565b91909182516001600160401b038111610232576124548254612175565b601f81116124fe575b50602080601f831160011461249a57508192939460009261248f575b50508160011b916000199060031b1c1916179055565b015190503880612479565b90601f198316958460005282600020926000905b8882106124e6575050836001959697106124cd575b505050811b019055565b015160001960f88460031b161c191690553880806124c3565b806001859682949686015181550195019301906124ae565b61252b90836000526020600020601f840160051c81019160208510612531575b601f0160051c0190612420565b3861245d565b909150819061251e565b60001981146102105760010190565b9190820180921161021057565b9060048110156104345760ff80198354169116179055565b61258790602060405192828480945193849201611fb0565b810103902090565b1561259657565b60405162461bcd60e51b815260206004820152601860248201527f47756172616e74656520646f6573206e6f7420657869737400000000000000006044820152606490fd5b156125e257565b60405162461bcd60e51b815260206004820152601460248201527347756172616e746565206e6f742061637469766560601b6044820152606490fd5b60009291815461262d81612175565b9260019180831690811561268557506001146126495750505050565b90919293945060005260209081600020906000915b85831061267457505050500190388080806121dc565b80548584015291830191810161265e565b60ff19168452505050811515909102019150388080806121dc565b9190820391821161021057565b156126b457565b606460405162461bcd60e51b815260206004820152602060248201527f4e6f2067756172616e74656520666f756e6420666f722074686973206d61696c6044820152fd5b90815461270481611fd3565b9260409361271485519182611f2d565b828152809460208092019260005281600020906000935b85851061273a57505050505050565b6001848192845161274f816102e9818a6121af565b81520193019401939161272b565b3d15612788573d9061276e82611f4e565b9161277c6040519384611f2d565b82523d6000602084013e565b606090565b60405160208183516127a28183858801611fb0565b8101600381520301902060018101805460ff8160a01c16610b3d5760ff60a01b1916600160a01b17905542600282015554600a549092906127e49084906126a0565b600a556001600160a01b031690600080808086865af161280261275d565b5015610b00577fdee38d1d18e0244ed4529d0ae9178041d0b343ec485c45d696aab5a2c7bb82879161283560609261256f565b93604051918252602082015260006040820152a2565b906040805180845160209281612865859383858b01611fb0565b810160028152030190209180519161287c83611ec0565b815161288c816102e981886121af565b83528151926001936128a4816102e981888a016121af565b82820152600285015483820152600385015460608201526004850154608082015260018060a01b03906101c060ff600d8460058a0154169860a08501998a5261290183600683015488811660c089015260a01c1660e08701612414565b60078101546101008601526008810154610120860152600981015461014086015261292e600a82016126f8565b61016086015282600b820154161515610180860152600c8101546101a0860152015416151591015282519661296288611f12565b84885281838901968436893751168851156121475783929594939161298891885261256f565b9761299d84519860608a5260608a01906120eb565b9342838a01528885039089015251928381520194936000905b8382106129ec5750505050505090807f708bac1dcc03ca863cc7cccfe432dd666e353f2b725824211aa360d331b66ac9920390a2565b8551811687529582019594820194908401906129b656fea26469706673582212206e3a63879cc7e73e62637d43177f759dfb1b500e6ef1bfe88d2c734462b8fe3b64736f6c63430008140033",
  "linkReferences": {},
  "deployedLinkReferences": {}
}