{
  "_format": "hh-sol-artifact-1",
  "contractName": "DeliveryTracking",
  "sourceName": "contracts/DeliveryTracking.sol",
  "abi": [
    {
      "inputs": [],
      "stateMutability": "nonpayable",
      "type": "constructor"
    },
    {
      "inputs": [
        {
          "internalType": "address",
          "name": "owner",
          "type": "address"
        }
      ],
      "name": "OwnableInvalidOwner",
      "type": "error"
    },
    {
      "inputs": [
        {
          "internalType": "address",
          "name": "account",
          "type": "address"
        }
      ],
      "name": "OwnableUnauthorizedAccount",
      "type": "error"
    },
    {
      "inputs": [],
      "name": "ReentrancyGuardReentrantCall",
      "type": "error"
    },
    {
      "anonymous": false,
      "inputs": [
        {
          "indexed": true,
          "internalType": "string",
          "name": "trackingNumber",
          "type": "string"
        },
        {
          "indexed": false,
          "internalType": "string",
          "name": "reason",
          "type": "string"
        },
        {
          "indexed": false,
          "internalType": "uint256",
          "name": "timestamp",
          "type": "uint256"
        },
        {
          "indexed": false,
          "internalType": "address",
          "name": "alertedBy",
          "type": "address"
        }
      ],
      "name": "EmergencyAlert",
      "type": "event"
    },
    {
      "anonymous": false,
      "inputs": [
        {
          "indexed": true,
          "internalType": "string",
          "name": "trackingNumber",
          "type": "string"
        },
        {
          "indexed": false,
          "internalType": "int256",
          "name": "latitude",
          "type": "int256"
        },
        {
          "indexed": false,
          "internalType": "int256",
          "name": "longitude",
          "type": "int256"
        },
        {
          "indexed": false,
          "internalType": "uint256",
          "name": "timestamp",
          "type": "uint256"
        }
      ],
      "name": "LocationUpdated",
      "type": "event"
    },
    {
      "anonymous": false,
      "inputs": [
        {
          "indexed": true,
          "internalType": "address",
          "name": "previousOwner",
          "type": "address"
        },
        {
          "indexed": true,
          "internalType": "address",
          "name": "newOwner",
          "type": "address"
        }
      ],
      "name": "OwnershipTransferred",
      "type": "event"
    },
    {
      "anonymous": false,
      "inputs": [
        {
          "indexed": true,
          "internalType": "string",
          "name": "trackingNumber",
          "type": "string"
        },
        {
          "indexed": true,
          "internalType": "address",
          "name": "workerAddress",
          "type": "address"
        },
        {
          "indexed": false,
          "internalType": "enum DeliveryTracking.DeliveryStatus",
          "name": "status",
          "type": "uint8"
        },
        {
          "indexed": false,
          "internalType": "string",
          "name": "location",
          "type": "string"
        },
        {
          "indexed": false,
          "internalType": "uint256",
          "name": "timestamp",
          "type": "uint256"
        },
        {
          "indexed": false,
          "internalType": "bytes32",
          "name": "timeProofHash",
          "type": "bytes32"
        }
      ],
      "name": "StatusUpdated",
      "type": "event"
    },
    {
      "anonymous": false,
      "inputs": [
        {
          "indexed": true,
          "internalType": "address",
          "name": "workerAddress",
          "type": "address"
        },
        {
          "indexed": false,
          "internalType": "uint256",
          "name": "timestamp",
          "type": "uint256"
        }
      ],
      "name": "WorkerDeauthorized",
      "type": "event"
    },
    {
      "anonymous": false,
      "inputs": [
        {
          "indexed": true,
          "internalType": "address",
          "name": "workerAddress",
          "type": "address"
        },
        {
          "indexed": false,
          "internalType": "string",
          "name": "name",
          "type": "string"
        },
        {
          "indexed": false,
          "internalType": "string",
          "name": "role",
          "type": "string"
        },
        {
          "indexed": false,
          "internalType": "uint256",
          "name": "timestamp",
          "type": "uint256"
        }
      ],
      "name": "WorkerRegistered",
      "type": "event"
    },
    {
      "inputs": [
        {
          "internalType": "uint256",
          "name": "",
          "type": "uint256"
        }
      ],
      "name": "authorizedWorkers",
      "outputs": [
        {
          "internalType": "address",
          "name": "",
          "type": "address"
        }
      ],
      "stateMutability": "view",
      "type": "function"
    },
    {
      "inputs": [
        {
          "internalType": "string",
          "name": "",
          "type": "string"
        }
      ],
      "name": "currentStatus",
      "outputs": [
        {
          "internalType": "enum DeliveryTracking.DeliveryStatus",
          "name": "",
          "type": "uint8"
        }
      ],
      "stateMutability": "view",
      "type": "function"
    },
    {
      "inputs": [
        {
          "internalType": "address",
          "name": "workerAddress",
          "type": "address"
        }
      ],
      "name": "deauthorizeWorker",
      "outputs": [],
      "stateMutability": "nonpayable",
      "type": "function"
    },
    {
      "inputs": [
        {
          "internalType": "string",
          "name": "trackingNumber",
          "type": "string"
        },
        {
          "internalType": "string",
          "name": "reason",
          "type": "string"
        }
      ],
      "name": "generateEmergencyAlert",
      "outputs": [],
      "stateMutability": "nonpayable",
      "type": "function"
    },
    {
      "inputs": [],
      "name": "getAuthorizedWorkers",
      "outputs": [
        {
          "internalType": "address[]",
          "name": "",
          "type": "address[]"
        }
      ],
      "stateMutability": "view",
      "type": "function"
    },
    {
      "inputs": [
        {
          "internalType": "string[]",
          "name": "trackingNumbers",
          "type": "string[]"
        }
      ],
      "name": "getBulkStatus",
      "outputs": [
        {
          "internalType": "enum DeliveryTracking.DeliveryStatus[]",
          "name": "statuses",
          "type": "uint8[]"
        },
        {
          "internalType": "uint256[]",
          "name": "lastUpdates",
          "type": "uint256[]"
        },
        {
          "internalType": "string[]",
          "name": "locations",
          "type": "string[]"
        }
      ],
      "stateMutability": "view",
      "type": "function"
    },
    {
      "inputs": [
        {
          "internalType": "string",
          "name": "trackingNumber",
          "type": "string"
        }
      ],
      "name": "getCurrentStatus",
      "outputs": [
        {
          "internalType": "enum DeliveryTracking.DeliveryStatus",
          "name": "status",
          "type": "uint8"
        },
        {
          "internalType": "string",
          "name": "location",
          "type": "string"
        },
        {
          "components": [
            {
              "internalType": "int256",
              "name": "latitude",
              "type": "int256"
            },
            {
              "internalType": "int256",
              "name": "longitude",
              "type": "int256"
            }
          ],
          "internalType": "struct DeliveryTracking.Coordinates",
          "name": "coordinates",
          "type": "tuple"
        },
        {
          "internalType": "uint256",
          "name": "lastUpdate",
          "type": "uint256"
        },
        {
          "internalType": "address",
          "name": "lastUpdatedByAddr",
          "type": "address"
        }
      ],
      "stateMutability": "view",
      "type": "function"
    },
    {
      "inputs": [
        {
          "internalType": "string",
          "name": "trackingNumber",
          "type": "string"
        }
      ],
      "name": "getDeliveryPerformance",
      "outputs": [
        {
          "internalType": "uint256",
          "name": "totalMilestones",
          "type": "uint256"
        },
        {
          "internalType": "uint256",
          "name": "registrationTime",
          "type": "uint256"
        },
        {
          "internalType": "uint256",
          "name": "lastUpdateTimestamp",
          "type": "uint256"
        },
        {
          "internalType": "bool",
          "name": "isDelivered",
          "type": "bool"
        },
        {
          "internalType": "uint256",
          "name": "totalTransitTime",
          "type": "uint256"
        }
      ],
      "stateMutability": "view",
      "type": "function"
    },
    {
      "inputs": [
        {
          "internalType": "string",
          "name": "trackingNumber",
          "type": "string"
        }
      ],
      "name": "getTrackingHistory",
      "outputs": [
        {
          "components": [
            {
              "internalType": "string",
              "name": "trackingNumber",
              "type": "string"
            },
            {
              "internalType": "address",
              "name": "workerAddress",
              "type": "address"
            },
            {
              "internalType": "string",
              "name": "location",
              "type": "string"
            },
            {
              "components": [
                {
                  "internalType": "int256",
                  "name": "latitude",
                  "type": "int256"
                },
                {
                  "internalType": "int256",
                  "name": "longitude",
                  "type": "int256"
                }
              ],
              "internalType": "struct DeliveryTracking.Coordinates",
              "name": "coordinates",
              "type": "tuple"
            },
            {
              "internalType": "enum DeliveryTracking.DeliveryStatus",
              "name": "status",
              "type": "uint8"
            },
            {
              "internalType": "uint256",
              "name": "timestamp",
              "type": "uint256"
            },
            {
              "internalType": "bytes",
              "name": "signature",
              "type": "bytes"
            },
            {
              "components": [
                {
                  "internalType": "string",
                  "name": "ntpServer",
                  "type": "string"
                },
                {
                  "internalType": "uint256",
                  "name": "atomicTime",
                  "type": "uint256"
                },
                {
                  "internalType": "string",
                  "name": "timezone",
                  "type": "string"
                }
              ],
              "internalType": "struct DeliveryTracking.ProofOfTime",
              "name": "proofOfTime",
              "type": "tuple"
            },
            {
              "internalType": "uint256",
              "name": "blockNumber",
              "type": "uint256"
            },
            {
              "internalType": "bytes32",
              "name": "timeProofHash",
              "type": "bytes32"
            }
          ],
          "internalType": "struct DeliveryTracking.StatusUpdate[]",
          "name": "",
          "type": "tuple[]"
        }
      ],
      "stateMutability": "view",
      "type": "function"
    },
    {
      "inputs": [
        {
          "internalType": "address",
          "name": "workerAddress",
          "type": "address"
        }
      ],
      "name": "getWorkerInfo",
      "outputs": [
        {
          "internalType": "bool",
          "name": "isAuthorized",
          "type": "bool"
        },
        {
          "internalType": "string",
          "name": "name",
          "type": "string"
        },
        {
          "internalType": "string",
          "name": "role",
          "type": "string"
        },
        {
          "internalType": "uint256",
          "name": "registrationTime",
          "type": "uint256"
        },
        {
          "internalType": "uint256",
          "name": "totalUpdates",
          "type": "uint256"
        }
      ],
      "stateMutability": "view",
      "type": "function"
    },
    {
      "inputs": [
        {
          "internalType": "string",
          "name": "",
          "type": "string"
        }
      ],
      "name": "lastUpdateTime",
      "outputs": [
        {
          "internalType": "uint256",
          "name": "",
          "type": "uint256"
        }
      ],
      "stateMutability": "view",
      "type": "function"
    },
    {
      "inputs": [
        {
          "internalType": "string",
          "name": "",
          "type": "string"
        }
      ],
      "name": "lastUpdatedBy",
      "outputs": [
        {
          "internalType": "address",
          "name": "",
          "type": "address"
        }
      ],
      "stateMutability": "view",
      "type": "function"
    },
    {
      "inputs": [],
      "name": "owner",
      "outputs": [
        {
          "internalType": "address",
          "name": "",
          "type": "address"
        }
      ],
      "stateMutability": "view",
      "type": "function"
    },
    {
      "inputs": [
        {
          "internalType": "address",
          "name": "workerAddress",
          "type": "address"
        },
        {
          "internalType": "string",
          "name": "name",
          "type": "string"
        },
        {
          "internalType": "string",
          "name": "role",
          "type": "string"
        }
      ],
      "name": "registerWorker",
      "outputs": [],
      "stateMutability": "nonpayable",
      "type": "function"
    },
    {
      "inputs": [],
      "name": "renounceOwnership",
      "outputs": [],
      "stateMutability": "nonpayable",
      "type": "function"
    },
    {
      "inputs": [
        {
          "internalType": "string",
          "name": "",
          "type": "string"
        },
        {
          "internalType": "uint256",
          "name": "",
          "type": "uint256"
        }
      ],
      "name": "trackingHistory",
      "outputs": [
        {
          "internalType": "string",
          "name": "trackingNumber",
          "type": "string"
        },
        {
          "internalType": "address",
          "name": "workerAddress",
          "type": "address"
        },
        {
          "internalType": "string",
          "name": "location",
          "type": "string"
        },
        {
          "components": [
            {
              "internalType": "int256",
              "name": "latitude",
              "type": "int256"
            },
            {
              "internalType": "int256",
              "name": "longitude",
              "type": "int256"
            }
          ],
          "internalType": "struct DeliveryTracking.Coordinates",
          "name": "coordinates",
          "type": "tuple"
        },
        {
          "internalType": "enum DeliveryTracking.DeliveryStatus",
          "name": "status",
          "type": "uint8"
        },
        {
          "internalType": "uint256",
          "name": "timestamp",
          "type": "uint256"
        },
        {
          "internalType": "bytes",
          "name": "signature",
          "type": "bytes"
        },
        {
          "components": [
            {
              "internalType": "string",
              "name": "ntpServer",
              "type": "string"
            },
            {
              "internalType": "uint256",
              "name": "atomicTime",
              "type": "uint256"
            },
            {
              "internalType": "string",
              "name": "timezone",
              "type": "string"
            }
          ],
          "internalType": "struct DeliveryTracking.ProofOfTime",
          "name": "proofOfTime",
          "type": "tuple"
        },
        {
          "internalType": "uint256",
          "name": "blockNumber",
          "type": "uint256"
        },
        {
          "internalType": "bytes32",
          "name": "timeProofHash",
          "type": "bytes32"
        }
      ],
      "stateMutability": "view",
      "type": "function"
    },
    {
      "inputs": [
        {
          "internalType": "address",
          "name": "newOwner",
          "type": "address"
        }
      ],
      "name": "transferOwnership",
      "outputs": [],
      "stateMutability": "nonpayable",
      "type": "function"
    },
    {
      "inputs": [
        {
          "internalType": "string",
          "name": "trackingNumber",
          "type": "string"
        },
        {
          "internalType": "string",
          "name": "location",
          "type": "string"
        },
        {
          "components": [
            {
              "internalType": "int256",
              "name": "latitude",
              "type": "int256"
            },
            {
              "internalType": "int256",
              "name": "longitude",
              "type": "int256"
            }
          ],
          "internalType": "struct DeliveryTracking.Coordinates",
          "name": "coordinates",
          "type": "tuple"
        },
        {
          "internalType": "enum DeliveryTracking.DeliveryStatus",
          "name": "status",
          "type": "uint8"
        },
        {
          "internalType": "bytes",
          "name": "signature",
          "type": "bytes"
        },
        {
          "components": [
            {
              "internalType": "string",
              "name": "ntpServer",
              "type": "string"
            },
            {
              "internalType": "uint256",
              "name": "atomicTime",
              "type": "uint256"
            },
            {
              "internalType": "string",
              "name": "timezone",
              "type": "string"
            }
          ],
          "internalType": "struct DeliveryTracking.ProofOfTime",
          "name": "proofOfTime",
          "type": "tuple"
        }
      ],
      "name": "updateStatus",
      "outputs": [],
      "stateMutability": "nonpayable",
      "type": "function"
    },
    {
      "inputs": [
        {
          "internalType": "string",
          "name": "trackingNumber",
          "type": "string"
        },
        {
          "internalType": "uint256",
          "name": "updateIndex",
          "type": "uint256"
        },
        {
          "internalType": "bytes32",
          "name": "expectedHash",
          "type": "bytes32"
        }
      ],
      "name": "verifyTimeProof",
      "outputs": [
        {
          "internalType": "bool",
          "name": "",
          "type": "bool"
        }
      ],
      "stateMutability": "view",
      "type": "function"
    },
    {
      "inputs": [
        {
          "internalType": "address",
          "name": "",
          "type": "address"
        }
      ],
      "name": "workers",
      "outputs": [
        {
          "internalType": "bool",
          "name": "isAuthorized",
          "type": "bool"
        },
        {
          "internalType": "string",
          "name": "name",
          "type": "string"
        },
        {
          "internalType": "string",
          "name": "role",
          "type": "string"
        },
        {
          "internalType": "uint256",
          "name": "registrationTime",
          "type": "uint256"
        },
        {
          "internalType": "uint256",
          "name": "totalUpdates",
          "type": "uint256"
        }
      ],
      "stateMutability": "view",
      "type": "function"
    }
  ],
  "bytecode": "0x6080806040523461007e5733156100685760008054336001600160a01b03198216811783556040519290916001600160a01b0316907f8be0079c531659141344cd1fd0a4f28419497f9722a3daafe3b4186f6b6457e09080a360018055612a9490816100848239f35b631e4fbdf760e01b815260006004820152602490fd5b600080fdfe6080604052600436101561001257600080fd5b60003560e01c806311b1838214611ac95780632877a1b01461195f5780632d46d9eb1461191d5780633544e430146118d45780634048a2571461184e5780634202b2ab146116c75780634444465a1461165f5780634a61caa1146115f957806353c8aca814611196578063558a5e3314610fc8578063715018a614610f6f5780637be1bb1b14610d1b5780638da5cb5b14610cf25780639f464e3014610aa5578063ad0d1f3c1461099c578063b13e52cf14610739578063ce8ef7a614610680578063ced2393f146105c0578063ea19c706146101865763f2fde38b146100f857600080fd5b3461018157602036600319011261018157610111612668565b610119612886565b6001600160a01b0390811690811561016857600054826001600160601b0360a01b821617600055167f8be0079c531659141344cd1fd0a4f28419497f9722a3daafe3b4186f6b6457e0600080a3005b604051631e4fbdf760e01b815260006004820152602490fd5b600080fd5b34610181576020366003190112610181576004356001600160401b0380821161018157366023830112156101815781600401356101c28161286f565b926101d0604051948561254d565b8184526024602085019260051b820101913683116101815760248201905b838210610598578580516102018161286f565b9161020f604051938461254d565b818352601f1961021e8361286f565b0136602085013761022e8261286f565b9161023c604051938461254d565b8083526102488161286f565b602084019190601f190136833761025e8161286f565b9261026c604051948561254d565b818452601f1961027b8361286f565b0160005b81811061058557505060005b828110610380575050506040519384936060850160608652825180915260206080870193019060005b8181106103575750505060209085830382870152519182815201919060005b81811061033e575050508281036040840152815180825260208201916020808360051b8301019401926000915b83831061030d5786860387f35b91939550919360208061032c600193601f19868203018752895161274e565b97019301930190928695949293610300565b82518452869550602093840193909201916001016102d3565b919495965091926020808261036f600194895161282e565b0195019101918796959493926102b4565b61039861039282849996979899612a4a565b51612642565b546103b1575b6103a7906129c2565b959493929561028b565b6103f460ff6103d960206103c58587612a4a565b51816040519382858094519384920161261f565b8101600381520301902054166103ef8387612a4a565b61299e565b61040360206103c58385612a4a565b81016005815203019020546104188289612a4a565b526104266103928284612a4a565b9081546104328161286f565b92610440604051948561254d565b81845260208401906000526020600020906000905b8382106104b357505050508151600019810190811161049d5761047d6040916103a794612a4a565b51015161048a8289612a4a565b526104958188612a4a565b50905061039e565b634e487b7160e01b600052601160045260246000fd5b600d60206001926040516104c681612516565b6040516104de816104d7818b6126b8565b038261254d565b8152848060a01b03858801541683820152604051610503816104d78160028c016126b8565b6040820152610514600388016127cc565b606082015261052d60ff6005890154166080830161299e565b600687015460a082015260405161054b816104d78160078c016126b8565b60c082015261055c600888016127ea565b60e0820152600b870154610100820152600c870154610120820152815201930191019091610455565b606060208288018101919091520161027f565b8135858111610181576020916105b58392602436918801016125b4565b8152019101906101ee565b34610181576020366003190112610181576105d9612668565b6105e1612886565b6001600160a01b031660008181526004602052604090205460ff161561064357806000526004602052604060002060ff1981541690557fba6b9d85000e233681fab73707a2bd4aa982a6a8a565fa3c4b0a29df8edb20576020604051428152a2005b60405162461bcd60e51b815260206004820152601560248201527415dbdc9ad95c881b9bdd08185d5d1a1bdc9a5e9959605a1b6044820152606490fd5b34610181576020366003190112610181576001600160a01b036106a1612668565b16600052600460205260406000206040516106bb81612532565b60ff82541615158152610735604051916106e3836106dc81600188016126b8565b038461254d565b6020810192835260405193610706856106ff81600285016126b8565b038661254d565b846040830152600460038201549182606085015201549182608082015251151593519460405195869586612773565b0390f35b3461018157602080600319360112610181576004356001600160401b0381116101815761076a9036906004016125b4565b9061077782511515612952565b8061078b604051938481519384920161261f565b82019181816002948581520301902080546107a58161286f565b936107b3604051958661254d565b81855260009283528383208486019391845b8484106108cd57604080518881528951818a01819052600092600582901b83018101918a918c9085015b8287106107fc5785850386f35b909192938280600192603f1989820301855287519061014061089161084e61082d855161016080875286019061274e565b888060a01b038787015116878601526040860151858203604087015261274e565b856060808701519081519087015201516080908186015285015161087760a0918287019061282e565b85015160c0908186015285015184820360e086015261274e565b926108ab60e082015194610100958582038787015261283b565b93810151906101209182850152015191015296019201960195929190926107ef565b600d8760019260409a999a516108e281612516565b6040516108f3816104d7818b6126b8565b8152848060a01b03858801541683820152604051610917816104d7818a8c016126b8565b6040820152610928600388016127cc565b606082015261094160ff6005890154166080830161299e565b600687015460a082015260405161095f816104d78160078c016126b8565b60c0820152610970600888016127ea565b60e0820152600b870154610100820152600c8701546101208201528152019301930192919695966107c5565b34610181576040366003190112610181576001600160401b03600435818111610181576109cd9036906004016125b4565b90602435908111610181576109e69036906004016125b4565b90336000526004602052610a0160ff60406000205416612906565b610a0d81511515612952565b815115610a6757610a56610a417f8f72c3a6f2d62f16ace0e9833b96cb9c9691e5ce62b87141c2ec664a0b8a0539926129d1565b9260405191829160608352606083019061274e565b4260208301523360408301520390a2005b60405162461bcd60e51b8152602060048201526016602482015275526561736f6e2063616e6e6f7420626520656d70747960501b6044820152606490fd5b3461018157602080600319360112610181576004356001600160401b03811161018157610ad69036906004016125b4565b90610ae382511515612952565b604051918181519181810192610afa81878661261f565b850194828160029788815203019020805490610b158261286f565b96610b23604051988961254d565b8288526000918252848220908589015b848410610c1f57898760ff610b61828c8b610b50875115156129f1565b60405193849283925192839161261f565b8101600381520301902054166006811015610c095760041480600091610bcd575b83519260a0610b9086612a3d565b5101518551600019810190811161049d57610baf60a097918892612a4a565b51015191604051958652850152604084015260608301526080820152f35b90508251600019810190811161049d57610be960a09185612a4a565b51015160a0610bf785612a3d565b510151810390811161049d5790610b82565b634e487b7160e01b600052602160045260246000fd5b6001919293949596600d91604051610c3681612516565b604051610c47816104d7818b6126b8565b8152848060a01b03858801541683820152604051610c6b816104d7818a8c016126b8565b6040820152610c7c600388016127cc565b6060820152610c9560ff6005890154166080830161299e565b600687015460a0820152604051610cb3816104d78160078c016126b8565b60c0820152610cc4600888016127ea565b60e0820152600b870154610100820152600c8701546101208201528152019301930191908795949391610b33565b34610181576000366003190112610181576000546040516001600160a01b039091168152602090f35b3461018157602080600319360112610181576004356001600160401b03811161018157610d4c9036906004016125b4565b90600081604051610d5c816124e0565b8281520152610d6d82511515612952565b6040519180519082810191610d8381868561261f565b840193838160029687815203019020805490610d9e8261286f565b95610dac604051978861254d565b828752600091825285822090868089015b858510610ea457505050505050610dd6845115156129f1565b835160001981019490851161049d57610e7794610df291612a4a565b519060ff60405185818451610e0881838a61261f565b81016003815203019020541693610e87606060408501519401519460405183818651610e3581838761261f565b810160058152030190205493610e536040519283925192839161261f565b81019060068252838160018060a01b0393030190205416936040519788809861282e565b60c08388015260c087019061274e565b938051604087015201516060850152608084015260a08301520390f35b600191600d91604051610eb681612516565b604051610ec7816104d7818b6126b8565b8152848060a01b03858801541683820152604051610eeb816104d7818a8c016126b8565b6040820152610efc600388016127cc565b6060820152610f1560ff6005890154166080830161299e565b600687015460a0820152604051610f33816104d78160078c016126b8565b60c0820152610f44600888016127ea565b60e0820152600b870154610100820152600c8701546101208201528152019301930192918790610dbd565b3461018157600036600319011261018157610f88612886565b600080546001600160a01b0319811682556001600160a01b03167f8be0079c531659141344cd1fd0a4f28419497f9722a3daafe3b4186f6b6457e08280a3005b3461018157606080600319360112610181576004356001600160401b03811161018157610ff99036906004016125b4565b9060243561100983511515612952565b60405191835161101e8185602080980161261f565b8301928481600295868152030190208054916110398361286f565b94611047604051968761254d565b838652600092835286832091878088015b8686106110cc5750878781518110156110875761107b6101209160443593612a4a565b51015114604051908152f35b60405162461bcd60e51b815260048101849052601a60248201527f55706461746520696e646578206f7574206f6620626f756e64730000000000006044820152606490fd5b600191600d916040516110de81612516565b6040516110ef816104d7818c6126b8565b8152848060a01b03858901541683820152604051611113816104d7818b8d016126b8565b6040820152611124600389016127cc565b8682015261113c60ff60058a0154166080830161299e565b600688015460a082015260405161115a816104d78160078d016126b8565b60c082015261116b600889016127ea565b60e0820152600b880154610100820152600c8801546101208201528152019401940193928890611058565b34610181576060366003190112610181576111af612668565b6024356001600160401b038111610181576111ce9036906004016125b4565b6044356001600160401b038111610181576111ed9036906004016125b4565b6111f5612886565b6001600160a01b038316156115bb576001600160a01b03831660009081526004602052604090205460ff166115765781511561153a578051156114fe5760405161123e81612532565b6001815260208101908382528260408201524260608201526000608082015260018060a01b03851660005260046020526040600020918151151560ff80198554169116178355518051906001600160401b0382116113f25781906112b2826112a9600188015461267e565b600188016128b2565b602090601f831160011461148c57600092611481575b50508160011b916000199060031b1c19161760018301555b6002820160408201518051906001600160401b0382116113f25761130e82611308855461267e565b856128b2565b602090601f83116001146114135791806080949260049694600092611408575b50508160011b916000199060031b1c19161790555b60608101516003850155015191015560075491600160401b8310156113f2576113db6113cd9261139a8560017f7ec0761edda390ff15717c4b67f90261a4561c665f080ebe90afe581dfdfb2b197016007556125d2565b81546001600160a01b0389811660039390931b92831b921b1916179055604051606080825290948594909185019061274e565b90838203602085015261274e565b4260408301526001600160a01b03909416930390a2005b634e487b7160e01b600052604160045260246000fd5b015190508a8061132e565b90601f198316918460005260206000209260005b8181106114695750926001928592600498966080989610611450575b505050811b019055611343565b015160001960f88460031b161c191690558a8080611443565b92936020600181928786015181550195019301611427565b0151905087806112c8565b9250600185016000526020600020906000935b601f19841685106114e3576001945083601f198116106114ca575b505050811b0160018301556112e0565b015160001960f88460031b161c191690558780806114ba565b8181015183556020948501946001909301929091019061149f565b60405162461bcd60e51b8152602060048201526014602482015273526f6c652063616e6e6f7420626520656d70747960601b6044820152606490fd5b60405162461bcd60e51b81526020600482015260146024820152734e616d652063616e6e6f7420626520656d70747960601b6044820152606490fd5b60405162461bcd60e51b815260206004820152601960248201527f576f726b657220616c72656164792072656769737465726564000000000000006044820152606490fd5b60405162461bcd60e51b8152602060048201526016602482015275496e76616c696420776f726b6572206164647265737360501b6044820152606490fd5b34610181576020366003190112610181576004356001600160401b0381116101815760ff6116446020611631819436906004016125b4565b816040519382858094519384920161261f565b81016003815203019020541661165d604051809261282e565bf35b34610181576020366003190112610181576004356001600160401b0381116101815761169160209136906004016125b4565b816116a5604051928381519384920161261f565b600690820190815281900382019020546040516001600160a01b039091168152f35b34610181576040366003190112610181576004356001600160401b038111610181576116f79036906004016125b4565b611713602060243592816040519382858094519384920161261f565b8101600281520301902090815481101561018157611730916127b0565b506040518061173f81846126b8565b0361174a908261254d565b60018201546040516001600160a01b0390911692908061176d81600285016126b8565b03611778908261254d565b611784600383016127cc565b6005830154600684015460405160ff9092169290826117a681600789016126b8565b036117b1908461254d565b6117bd600887016127ea565b93600b87015496600c015495604051998a99610160808c528b016117e09161274e565b9060208b015289810360408b01526117f79161274e565b92805160608a015260200151608089015260a088016118159161282e565b60c087015285810360e087015261182b9161274e565b84810361010086015261183d9161283b565b916101208401526101408301520390f35b34610181576020366003190112610181576001600160a01b0361186f612668565b166000526004602052604060002060ff815416610735604051926118a18461189a81600185016126b8565b038561254d565b604051906118bd826118b681600285016126b8565b038361254d565b600460038201549101549160405195869586612773565b34610181576020366003190112610181576004356001600160401b0381116101815761190a6020611631819336906004016125b4565b8101600581520301902054604051908152f35b3461018157602036600319011261018157600435600754811015610181576119466020916125d2565b905460405160039290921b1c6001600160a01b03168152f35b34610181576000366003190112610181576007546000805b828110611a7857506119a161198b8261286f565b91611999604051938461254d565b80835261286f565b6020928383019291601f19013684376000805b828110611a085750505090604051928392818401908285525180915260408401929160005b8281106119e857505050500390f35b83516001600160a01b0316855286955093810193928101926001016119d9565b611a11816125d2565b60018060a01b03809254600392831b1c166000526004885260ff60406000205416611a47575b5050611a42906129c2565b6119b4565b92611a70918394611a5a611a42956125d2565b9054911b1c16611a6a8288612a4a565b526129c2565b919087611a37565b611a81816125d2565b60018060a01b0391549060031b1c16600052600460205260ff60406000205416611ab4575b611aaf906129c2565b611977565b90611ac1611aaf916129c2565b919050611aa6565b346101815760031960e036820112610181576004356001600160401b03811161018157611afa9036906004016125b4565b906024356001600160401b03811161018157611b1a9036906004016125b4565b9060403660431901126101815760405191611b34836124e0565b60443583526064356020840152600660843510156101815760a4356001600160401b038111610181573660238201121561018157611b7c90369060248160040135910161256e565b916001600160401b0360c435116101815760609060c435360301126101815760405191611ba8836124fb565b60c435600401356001600160401b03811161018157611bcf906004369160c43501016125b4565b8352602460c435013560208401526001600160401b03604460c43501351161018157611c063660c4356044810135016004016125b4565b6040840152336000526004602052611c2560ff60406000205416612906565b611c3185511515612952565b6002600154146124ce57600260015581511561248957835163055d4a7f19811215908161247a575b5015612442576020840151630aba94ff198112159081612433575b50156123fa57602082611d1360f4888851858a015190895190878b0151926040519785611cab8a975180928d8a019d8e910161261f565b86013360601b6020820152611cca82518093602060348501910161261f565b01916034830152605482015260843560748201524260948201524360b4820152611cfe82518093602060d48501910161261f565b019060d48201520360d481018452018261254d565b5190209260405191611d2483612516565b868352336020840152836040840152856060840152611d486084356080850161299e565b4260a084015260c083015260e082015243610100820152826101208201526040516020818751611d7b8183858c0161261f565b810160028152030190208054600160401b8110156113f257611da2916001820181556127b0565b9190916123e45780518051906001600160401b0382116113f2578190611dd282611dcc875461267e565b876128b2565b602090601f83116001146123785760009261236d575b50508160011b916000199060031b1c19161782555b6001820160018060a01b036020830151166001600160601b0360a01b82541617905560408101518051906001600160401b0382116113f2578190611e5182611e48600288015461267e565b600288016128b2565b602090601f83116001146122fb576000926122f0575b50508160011b916000199060031b1c19161760028301555b60206060820151805160038501550151600483015560808101516006811015610c0957611eaf90600584016129aa565b60a0810151600683015560c08101518051906001600160401b0382116113f2578190611eeb82611ee2600788015461267e565b600788016128b2565b602090601f831160011461227e57600092612273575b50508160011b916000199060031b1c19161760078301555b60e081015180518051906001600160401b0382116113f257611f4b82611f42600888015461267e565b600888016128b2565b602090601f8311600114612200576040939291600091836121f5575b50508160011b916000199060031b1c19161760088501555b6020810151600985015501518051906001600160401b0382116113f257611fb682611fad600a87015461267e565b600a87016128b2565b602090601f8311600114612158577f461af8de2adbddd3d52440d6997792096470a1cf76d41e0cdcd00d27c6d91a25979593836060989694600c946101209460009261214d575b50508160011b916000199060031b1c191617600a8501555b610100810151600b8501550151910155612052604051875161203b818360208c0161261f565b8101906003825260208160843593030190206129aa565b6040518651612065818360208b0161261f565b8101906005825260208142930301902055604051602081885161208b8183858d0161261f565b81016006815203019020336001600160601b0360a01b82541617905533600052600460205260046040600020016120c281546129c2565b90557f63cb386c0881b88fb6038c0528a28e68f2a3d7968eab3acafcbbb8c307e0759b6120ee876129d1565b91612113604051916121028360843561282e565b60806020840152608083019061274e565b93426040830152868201528033940390a361213460208251920151946129d1565b936040519182526020820152426040820152a260018055005b015190508c80611ffd565b90600a850160005260206000209160005b601f19851681106121dd575093600184600c94610120947f461af8de2adbddd3d52440d6997792096470a1cf76d41e0cdcd00d27c6d91a259c9a9860609c9a98601f198116106121c4575b505050811b01600a850155612015565b015160001960f88460031b161c191690558c80806121b4565b91926020600181928685015181550194019201612169565b015190508a80611f67565b906008860160005260206000209160005b601f198516811061225b575091839160019360409695601f19811610612242575b505050811b016008850155611f7f565b015160001960f88460031b161c191690558a8080612232565b91926020600181928685015181550194019201612211565b015190508880611f01565b9250600785016000526020600020906000935b601f19841685106122d5576001945083601f198116106122bc575b505050811b016007830155611f19565b015160001960f88460031b161c191690558880806122ac565b81810151835560209485019460019093019290910190612291565b015190508880611e67565b9250600285016000526020600020906000935b601f1984168510612352576001945083601f19811610612339575b505050811b016002830155611e7f565b015160001960f88460031b161c19169055888080612329565b8181015183556020948501946001909301929091019061230e565b015190508880611de8565b9250846000526020600020906000935b601f19841685106123c9576001945083601f198116106123b0575b505050811b018255611dfd565b015160001960f88460031b161c191690558880806123a3565b81810151835560209485019460019093019290910190612388565b634e487b7160e01b600052600060045260246000fd5b60405162461bcd60e51b8152602060048201526011602482015270496e76616c6964206c6f6e67697475646560781b6044820152606490fd5b630aba95009150131586611c74565b60405162461bcd60e51b815260206004820152601060248201526f496e76616c6964206c6174697475646560801b6044820152606490fd5b63055d4a809150131586611c59565b60405162461bcd60e51b815260206004820152601860248201527f4c6f636174696f6e2063616e6e6f7420626520656d70747900000000000000006044820152606490fd5b604051633ee5aeb560e01b8152600490fd5b604081019081106001600160401b038211176113f257604052565b606081019081106001600160401b038211176113f257604052565b61014081019081106001600160401b038211176113f257604052565b60a081019081106001600160401b038211176113f257604052565b90601f801991011681019081106001600160401b038211176113f257604052565b9291926001600160401b0382116113f25760405191612597601f8201601f19166020018461254d565b829481845281830111610181578281602093846000960137010152565b9080601f83011215610181578160206125cf9335910161256e565b90565b6007548110156126095760076000527fa66cc928b5edb82af9bd49922954155ab7b0942694bea4ce44661d9a8736c6880190600090565b634e487b7160e01b600052603260045260246000fd5b60005b8381106126325750506000910152565b8181015183820152602001612622565b602061265b91816040519382858094519384920161261f565b8101600281520301902090565b600435906001600160a01b038216820361018157565b90600182811c921680156126ae575b602083101461269857565b634e487b7160e01b600052602260045260246000fd5b91607f169161268d565b90600092918054916126c98361267e565b91828252600193848116908160001461272b57506001146126eb575b50505050565b90919394506000526020928360002092846000945b8386106127175750505050010190388080806126e5565b805485870183015294019385908201612700565b9294505050602093945060ff191683830152151560051b010190388080806126e5565b906020916127678151809281855285808601910161261f565b601f01601f1916010190565b91926127986080946127a693989796981515855260a0602086015260a085019061274e565b90838203604085015261274e565b9460608201520152565b805482101561260957600052600d602060002091020190600090565b906040516127d9816124e0565b602060018294805484520154910152565b906002604080516127fa816124fb565b61282a8195835161280f816104d781856126b8565b8352600181015460208401526106dc845180968193016126b8565b0152565b906006821015610c095752565b6125cf916040612854835160608452606084019061274e565b9260208101516020840152015190604081840391015261274e565b6001600160401b0381116113f25760051b60200190565b6000546001600160a01b0316330361289a57565b60405163118cdaa760e01b8152336004820152602490fd5b90601f81116128c057505050565b600091825260208220906020601f850160051c830194106128fc575b601f0160051c01915b8281106128f157505050565b8181556001016128e5565b90925082906128dc565b1561290d57565b60405162461bcd60e51b815260206004820152601860248201527f4e6f7420616e20617574686f72697a656420776f726b657200000000000000006044820152606490fd5b1561295957565b60405162461bcd60e51b815260206004820152601760248201527f496e76616c696420747261636b696e67206e756d6265720000000000000000006044820152606490fd5b6006821015610c095752565b906006811015610c095760ff80198354169116179055565b600019811461049d5760010190565b6129e99060206040519282848094519384920161261f565b810103902090565b156129f857565b60405162461bcd60e51b815260206004820152601960248201527f4e6f20747261636b696e6720686973746f727920666f756e64000000000000006044820152606490fd5b8051156126095760200190565b80518210156126095760209160051b01019056fea26469706673582212207be7171f8c1747b6e11f8ccb1184af8c14e61e1e6967fed9c0cfe250fbc19ac164736f6c63430008140033",
  "linkReferences": {},
  "deployedLinkReferences": {}
}